:100000000C9435000C945D000C945D000C945D0024
:100010000C945D000C945D000C945D000C945D00EC
:100020000C945D000C945D000C945D000C945D00DC
:100030000C945D000C945D000C945D000C945D00CC
:100040000C94EB000C945D000C945D000C945D002E
:100050000C945D000C945D000C945D000C945D00AC
:100060000C9435010C945D00A90211241FBECFEF42
:10007000D8E0DEBFCDBF11E0A0E0B1E0EEE8F5E0F2
:1000800002C005900D92A231B107D9F721E0A2E19B
:10009000B1E001C01D92A239B207E1F710E0C5E35B
:1000A000D0E004C02197FE010E94BA02C433D107F8
:1000B000C9F70E945F020C94C5020C940000CF9215
:1000C000DF92EF92FF920F931F93CF93DF936C0118
:1000D0007A018B01C0E0D0E0CE15DF0581F0D801B8
:1000E0006D918D01D601ED91FC910190F081E02D93
:1000F000C6010995892B11F02196EECF7E01C7012B
:10010000DF91CF911F910F91FF90EF90DF90CF90F3
:10011000089585ED8093BC008091BC0084FDFCCFE8
:1001200010926301089540913F01262F30E0240F83
:10013000311D21323105DCF4209163012430C9F4F2
:10014000FC0180E090E0861758F430913F01219146
:10015000DC01A15EBE4FA30FB11D2C930196F3CF1E
:1001600080913F01680F60933F0180E0089581E036
:10017000089582E0089508958FEF9FEF08958FEF1F
:100180009FEF08958091120190E0919581959109DA
:100190000895CF93DF93CB01EA01642F0E9493006F
:1001A000CE01DF91CF910895CF93DF931F92CDB70A
:1001B000DEB7698361E0CE0101960E94930081E081
:1001C00090E00F90DF91CF910895089580E090E046
:1001D00008950E94C0021F920F920FB60F92112431
:1001E0002F933F938F939F93AF93BF9380918E01F3
:1001F00090918F01A0919001B091910130918D016A
:1002000023E0230F2D3720F40196A11DB11D05C059
:1002100026E8230F0296A11DB11D20938D01809326
:100220008E0190938F01A0939001B09391018091E2
:10023000890190918A01A0918B01B0918C01019666
:10024000A11DB11D8093890190938A01A0938B0118
:10025000B0938C01BF91AF919F918F913F912F915E
:100260000F900FBE0F901F9018951F920F920FB610
:100270000F9211242F933F934F935F936F937F932C
:100280008F939F93AF93BF93EF93FF938091B900A8
:10029000887F803609F49CC068F5883209F45BC019
:1002A00090F4803109F454C038F4882309F4F2C082
:1002B000883009F44DC0F2C0883109F44CC0803256
:1002C00009F45DC0EBC0803409F468C048F48033A1
:1002D00009F455C0883309F0E1C080936201D4C0AD
:1002E000803509F44FC0883509F45DC0883409F0C1
:1002F000D5C0D2C0883909F4C3C0A8F4883709F43E
:1003000067C038F4883609F463C0803709F460C0E8
:10031000C5C0883809F4B4C0803909F45FC080389A
:1003200009F0BCC05BC0803B09F484C038F4803A5B
:1003300009F466C0883A09F47DC0B0C0803C09F475
:10034000A3C0883C09F4A0C0883B09F486C0A6C0BD
:100350008091880110C09091870180918601981743
:1003600070F5E091870181E08E0F80938701F0E0C6
:10037000EA59FE4F80818093BB0085EC82C0809358
:1003800062018AC0E091870181E08E0F809387012E
:100390008091BB00F0E0EA59FE4F80839091870185
:1003A000809186016AC0E091870181E08E0F809381
:1003B00087018091BB00F0E0EA59FE4F8083809175
:1003C0006501811169C081E08093640184EA5DC0A8
:1003D00083E08093630110926101CFCF809161012E
:1003E000803208F04DC0E091610181E08E0F809372
:1003F00061018091BB00F0E0EF5BFE4F8083BDCFD9
:1004000085EC8093BC001092630180916101803281
:1004100030F4E0916101F0E0EF5BFE4F10826091FB
:10042000610170E081E491E0E0E0F0E00995109274
:10043000610134C084E08093630110924001109206
:100440003F01E0E0F0E0099580913F01811105C096
:1004500081E080933F0110921F01E091400181E013
:100460008E0F80934001F0E0E15EFE4F808180932B
:10047000BB009091400180913F01981708F47DCF17
:1004800085E88093BC000AC085EC8093BC00109284
:10049000630104C0109262010E948900FF91EF91F4
:1004A000BF91AF919F918F917F916F915F914F918C
:1004B0003F912F910F900FBE0F901F901895789439
:1004C00084B5826084BD84B5816084BD85B5826059
:1004D00085BD85B5816085BD80916E00816080930A
:1004E0006E00109281008091810082608093810073
:1004F0008091810081608093810080918000816083
:10050000809380008091B10084608093B1008091DD
:10051000B00081608093B00080917A008460809305
:100520007A0080917A00826080937A0080917A00CC
:10053000816080937A0080917A00806880937A004D
:100540001092C100C0E0D0E02097F1F30E940000BB
:10055000FBCFE3E1F1E01382128288EE93E0A0E0AA
:10056000B0E084839583A683B78384E091E0918390
:1005700080830895EE0FFF1F0590F491E02D0994FC
:0E05800081E090E0F8940C94C502F894FFCF4F
:10058E0000000000D400C900E600BB00C200BF009E
:02059E00BC009F
:00000001FF
