:100000000C94430E0C946B0E0C946B0E0C946B0EB4
:100010000C946B0E0C946B0E0C946B0E0C946B0E7C
:100020000C946B0E0C946B0E0C946B0E0C946B0E6C
:100030000C946B0E0C946B0E0C946B0E0C946B0E5C
:100040000C946F120C946B0E0C944E1D0C94281D86
:100050000C946B0E0C946B0E0C946B0E0C946B0E3C
:100060000C94B9120C946B0E00001F1F20FEE17956
:10007000001F1F20FEE1F2001F1F20FEE16B011F89
:100080001F20FEE1E4011F1F20FEE15D021F1F2073
:10009000FEE1D6021F1F20FEE14F031F1F20FEE1DD
:1000A000C8031F1F20FEE141041F1F20FEE1BA0408
:1000B0001F1F20FEE133051F1F20FEE1AC051F1F9F
:1000C00020FEE125061F1F20FEE19E061F1F20FEC9
:1000D000E117070C1C0F01E64107101A1502E6751F
:1000E00007091A1503E69307101A1502E6C7071049
:1000F0001A1502E6FB07111A1502E633080F1A1546
:1001000003E66408101A1502E69808111A1501E6AC
:10011000D008101A1502E60409101A1502E638096B
:100120001C0D2002F36609140D0702F387091C0D4C
:100130001402F3B5091C0D2002F3E3091C0D200283
:10014000F3110A02021102FE120A00001FFE0A1237
:100150000A12201700E05A0A1E201700E0D20A13E4
:100160001A1802E6100B111A1904E6480B0F1A169A
:1001700004E6790B0F1A1604E6AA0B131A1A03E603
:10018000E80B131A1A03E6260C011A0A04E62A0CD5
:100190000E1A1502E6580C121A1804E6930C0E1AE1
:1001A0001404E6C10C171A2004E60C0D131A1A03E6
:1001B000E64A0D141A1902E68B0D101A1704E6BF51
:1001C0000D141E1902E60A0E111A1904E6420E1247
:1001D0001A1602E67D0E141A1701E6BE0E121A193F
:1001E00003E6F90E141A1701E63A0F1D1A1F01E66D
:1001F000990F141A1701E6DA0F141A1701E61B10EB
:10020000121A1702E6000FE00000FFF80007FFFCDB
:10021000001FFFFC007FFFFC01FFFFFC07FFFFFC4E
:1002200017FFFFF42FFFFFE8BFFFFFE97FC0FFD2FA
:10023000FFBFFFABFF7FFFB7FEFFFF6FFC1FFEDFBF
:10024000FBDFFDBFF7DFFB7FEFBFF6FFDF7FEAFFDE
:10025000BDFFA5FF07FF4BFFFFFE8BFFFFFA17FF58
:10026000FFF417FFFFD017FFFF4017FFFD0013FF3C
:10027000E40018FE30000E03800003F80000000FB9
:10028000E00000FFF80007FFFC001FFFFC004FFF2D
:10029000E40107FF04040000041000000420000033
:1002A0000880000009003F00120040002800800084
:1002B000300100006003E000C0042001800820033A
:1002C000001040060020800A0042002400F8004888
:1002D0000000008800000210000004100000101050
:1002E0000000401000010010000400180030000E53
:1002F00003800003F80000000FE00000FFF8000793
:10030000FFFC001FFFFC007FFFFC01FFFFFC07FF5D
:10031000FFFC17FFFFF42FFFFFE8BFFFFFE9703F6F
:10032000FFD2EFFFFFABDFFFFFB7BFFFFF6F07FF9E
:10033000FEDEF7FFFDBDF7FFFB7BEFFFF6F7DFFF0C
:10034000EAEF7FFFA5C1FFFF4BFFFFFE8BFFFFFA28
:1003500013FFFFE410000010100000401000010027
:1003600010000400180030000E03800003F80000A5
:10037000000FE00000FFF80007FFFC001FFFFC007B
:100380007FFFFC01FFFFFC07FFFFFC17FFFFF42FBF
:10039000FFFFE8BFFFFFE9703FFFD2EFF9F9ABDFE6
:1003A000F9E7B7BFF99F6F07F87EDEF7999DBDF7B4
:1003B0009E7B7BEF99F6F7DF87EAEF7F9FA5C1FF72
:1003C000FF4BFFFFFE8BFFFFFA13FFFFE41000005F
:1003D0001010000040100001001000040018003050
:1003E000000E03800003F80000000FE00000FFF89B
:1003F0000007FFFC001FFFFC007FFFFC01FFFFFC6C
:1004000007FFFFFC17FFFFF42FFFFFE8BFFFFFE927
:10041000703FFFD2EFFF9FABDFFE1FB7BFF99F6FAB
:1004200007E79EDEF7999DBDF7E1FB7BEF99F6F7B5
:10043000DE79EAEF79F9A5C1FFFF4BFFFFFE8BFFE5
:10044000FFFA13FFFFE4100000101000004010003E
:10045000010010000400180030000E03800003F8B3
:100460000000000FE00000FFF80007FFFC001FFF86
:10047000FC007FFFFC01FFFFFC07FFFFFC17FFFFF5
:10048000F42FFFFFE8BFFFFFE97FC0FFD2FFBFFFF0
:10049000ABFF7FFFB7FEFFFF6FFDFFFEDFFBFFFD42
:1004A000BFF7FFFB7FEFFFF6FFDFFFEAFFBFFFA510
:1004B000FF7FFF4BFFFFFE8BFFFFFA17FFFFF417D5
:1004C000FFFFD017FFFF4017FFFD0013FFE40018E8
:1004D000FE30000E03800003F80000000FE0000073
:1004E000FFF80007FFFC001FFFFC004FFFE40107BF
:1004F000FF04040000041000000420000008800035
:100500000009003F00120040002800800030010078
:100510000060020000C00400018008000300100019
:10052000060020000A00400024008000480000006F
:1005300088000002100000041000001010000040AD
:100540001000010010000400180030000E038000AD
:1005500003F80000000FE00000FFF80007FFFC00B8
:100560001FFFFC007FFFFC01FFFFFC07FFFFFC17E4
:10057000FFFFF42FFFFFE8BFFFFFE9703FFFD2EF5F
:10058000FFFFABDFFFFFB7BFFFFF6F7FFFFEDEFFA9
:10059000FFFDBDFFFFFB7BFFFFF6F7FFFFEAEFFF6D
:1005A000FFA5DFFFFF4BFFFFFE8BFFFFFA13FFFFEF
:1005B000E4100000101000004010000100100004C2
:1005C00000180030000E03800003F80000000FE068
:1005D0000000FFF80007FFFC001FFFFC007FFFFC8E
:1005E00001FFFFFC07FFFFFC17FFFFF42FFFFFE8F1
:1005F000BFFFFFE9703FFFD2EFF9F9ABDFF9E7B7D3
:10060000BFF99F6F7FF87EDEFF999DBDFF9E7B7BCC
:10061000FF99F6F7FF87EAEFFF9FA5DFFFFF4BFF8C
:10062000FFFE8BFFFFFA13FFFFE410000010100025
:1006300000401000010010000400180030000E03FC
:10064000800003F80000000FE00000FFF80007FF43
:10065000FC001FFFFC007FFFFC01FFFFFC07FFFF0A
:10066000FC17FFFFF42FFFFFE8BFFFFFE9703FFF1C
:10067000D2EFFF9FABDFFE1FB7BFF99F6F7FE79EF3
:10068000DEFF999DBDFFE1FB7BFF99F6F7FE79EA5E
:10069000EFF9F9A5DFFFFF4BFFFFFE8BFFFFFA131A
:1006A000FFFFE410000010100000401000010010D7
:1006B000000400180030000E03800003F800000062
:1006C0000FE00000FFF80007FFFC001FFFFC007FA9
:1006D000FFFC01FFFFFC07FFFFFC17FFFFF42FFFEC
:1006E000FFE8BFFFFFE97FDF7FD2FFBEFFABFFBBAD
:1006F000FFB7FF77FF6FFF5FFEDFFF7FFDBFFD7F6F
:10070000FB7FF77FF6FFEEFFEAFFBEFFA5FF7DFF51
:100710004BFFFFFE8BFFFFFA17FFFFF417FFFFD021
:1007200017FFFF4017FFFD0013FFE40018FE300025
:100730000E03800003F80000000FE00000FFF80047
:1007400007FFFC001FFFFC004FFFE40107FF04044C
:1007500000000410000004200000088000000900D0
:100760002080120041002800440030008800600012
:10077000A000C000800180028003000880060011F4
:10078000000A0041002400820048000000880000A8
:1007900002100000041000001010000040100001C2
:1007A0000010000400180030000E03800003F80061
:1007B00000000FE00000FFF80007FFFC001FFFFC37
:1007C000007FFFFC01FFFFFC07FFFFFC17FFFFF4AA
:1007D0002FFFFFE8BFFFFFE977DFFFD2EFBFFFABDF
:1007E000EEFFFFB7DDFFFF6FD7FFFEDFDFFFFDBFCF
:1007F0005FFFFB7DDFFFF6FBBFFFEAEFBFFFA5DF7B
:100800007FFF4BFFFFFE8BFFFFFA13FFFFE410009B
:10081000001010000040100001001000040018003B
:1008200030000E03800003F80000000FE00000FF1E
:10083000F80007FFFC001FFFFC007FFFFC01FFFF2B
:10084000FC07FFFFFC17FFFFF42FFFFFE8BFFFFFD0
:10085000E977DFFFD2EFB9F9ABEEF9E7B7DDF99F42
:100860006FD7F87EDFDF999DBF5F9E7B7DDF99F6B6
:10087000FBBF87EAEFBF9FA5DF7FFF4BFFFFFE8B2C
:10088000FFFFFA13FFFFE4100000101000004010FB
:1008900000010010000400180030000E0380000367
:1008A000F80000000FE00000FFF80007FFFC001F49
:1008B000FFFC007FFFFC01FFFFFC07FFFFFC17FFB1
:1008C000FFF42FFFFFE8BFFFFFE977DFFFD2EFBFA5
:1008D0009FABEEFE1FB7DDF99F6FD7E79EDFDF9975
:1008E0009DBF5FE1FB7DDF99F6FBBE79EAEFB9F9C9
:1008F000A5DF7FFF4BFFFFFE8BFFFFFA13FFFFE437
:100900001000001010000040100001001000040052
:10091000180030000E03800003F8000000300200D1
:1009200020040040040080080100100100200200A3
:10093000600400400800800801001002002002004E
:1009400040040040080007E00C3010082004400676
:10095000400240024002800180018001800180014C
:10096000800180018001800180014002400240023C
:100970004006200410080C3007E001874C381008AE
:100980000402010080402010080402010080402081
:10099000100804020100804007E0183020084004DD
:1009A000400480028002800200020004000400086B
:1009B00000180010002000400080018003000200A9
:1009C000040008001000200060007FFF07E01818F6
:1009D000200440064002400280020002000200069D
:1009E000000C001807E000180004000200020001DB
:1009F000800180018001400240022004181807E0B5
:100A00000008000C000A00050004800440022002D7
:100A10001002080104010201010080808040802052
:100A20004010400840043FFFE0010000800040000B
:100A300020001000080004003FFE4000800100027A
:100A400000040008001000200080011F83C1840002
:100A500080008000800100020004000C00140028C7
:100A6000005001100618180FC00078038006000817
:100A7000001000200020004000400043E04C18B06F
:100A800004A002C002800180018001800180014039
:100A90000140024002200610040C1803E0FFFF8012
:100AA0000080004000200020001000100008000816
:100AB000000400040002000100010000800080002A
:100AC0004000400020002000100008000800040042
:100AD000040002000007E0181820046006400240ED
:100AE0000240024002400240022004181807E018A9
:100AF0001820044002800180018001800180018073
:100B00000140026006181C07F007C018303008606A
:100B10000440064002800280028001800180018042
:100B200001800340034005200A183207C20002007A
:100B3000040004000C0018003000C01F00809FF06B
:100B4000FC190010A29002094900208890020809AF
:100B5000FC208090020809002080900208090020F3
:100B600080900208090010809FF0F00F1011110111
:100B7000211014110141101411FF411014110141F1
:100B800010141101FF901809018090108083F0F873
:100B9000084110808812080901208090120809017C
:100BA0002080901208090120FF9FF2000901200017
:100BB000901200090110009010F08090241C19067A
:100BC00041A2906419490A418890A41809127F80B3
:100BD00093241809224180942418094241809824C2
:100BE00018098241809024103F1FE41409004380BB
:100BF0001004480100488010050801F860801005C5
:100C000008010048801004480100428010041409C3
:100C100000413F1FE410F000C000300012000480CB
:100C2000021000840040801020040802010080406F
:100C30004008100204008200108004400090002848
:100C400000060001800060001800060001800060BE
:100C50000014000900022001040080E1C0078000A8
:100C6000018000000F000000660000030C00001867
:100C7000180000C03000060060003000C001800194
:100C8000800C0003006000060300000C1800001830
:100C9000E0000076800001727F9FE409024090240A
:100CA000090240902409024090240902409024093E
:100CB00002409027F9024080040902001024080035
:100CC00040902001024080040902001024080040E6
:100CD00090200103C0FFFC01F800C0C060040800C0
:100CE0004200048000900012000140001000020049
:100CF00000400008000100002000040000800008FF
:100D000000010000A0001400044000840020C0087E
:100D10000606003F00FFC0401820031000C8002452
:100D2000000A000500018000C000600030001800CB
:100D30000C0006000300018000C0006000300028A5
:100D4000001400120019001880307FE000FFFF003F
:100D50000200040008001000200040008001000292
:100D60000004000FFF9000200040008001000200FE
:100D7000040008001000200040008001FFFCFFFF7D
:100D80000002000400080010002000400080010064
:100D9000020004000FFFD00020004000800100028C
:100DA0000004000800100020004000800100000145
:100DB000F801C0C060041800420004800090000CDC
:100DC0000000800010000200004000080001000048
:100DD000200FFC000180003000050000A00014007E
:100DE0000240004C0008C0060603803F80800030AF
:100DF00000060000C000180003000060000C0001A5
:100E000080003000060000C0001FFFFF00006000EF
:100E10000C000180003000060000C0001800030034
:100E20000060000C00018000300004FFFFFFC000E4
:100E30000400100040010004001000400100040004
:100E400010004001000400100040010004001000E8
:100E500060018006001C00900630303F008001A039
:100E6000008800420020801020080804020200814F
:100E70000020800840023000940028800C300206D8
:100E80000080802010080202004080082001080035
:100E900062000880012000308002000800200080ED
:100EA00002000800200080020008002000800200EC
:100EB00008002000800200080020008002000800D6
:100EC00020008003FFF080000380000F00001E0060
:100ED000003A0000B40001640004C800098800233F
:100EE00010004620008C2002184004304010608022
:100EF00020C0808181010302020602080C04101840
:100F00000440300880600A00C014018028030020DB
:100F100004C0003800068000C800190003100061FA
:100F2000000C300182003020060600C04018040387
:100F300000C060080C008180183001060010C0015C
:100F4000180023000260002C0005800070000401DE
:100F5000F80060600801010008200046000440001D
:100F600024000240002800018000180001800018C1
:100F700000018000180001800014000240002400DD
:100F800002600062000410008180180606001F80C5
:100F9000FFE08018800480028002800180018001CF
:100FA000800180018003800280048018FFE08000BF
:100FB0008000800080008000800080008000800031
:100FC0008000800001F80060600801010008200036
:100FD0004600044000240002400028000180001860
:100FE000000180001800018000180001800014003A
:100FF000024000240002600062000410008180189A
:101000000606001FE000030000180000C00006FFF5
:10101000E0400C20011000480014000A0005000206
:1010200080014000A000900048004400C3FF810000
:10103000408030400820021001880044003200093E
:1010400000028001C0004007F006030200210004F6
:101050004000A00028000B000040001800038000A2
:101060003C0001E0000F0000600004000080002050
:1010700000060001800060002400098004180E01B1
:10108000FE00FFFFF00400004000040000400004E8
:101090000000400004000040000400004000040084
:1010A0000040000400004000040000400004000074
:1010B0004000040000400004000040000400004024
:1010C000000400800060001800060001800060003D
:1010D0001800060001800060001800060001800072
:1010E0006000180006000180006000180006000182
:1010F00040009000220010C00C0C0C00FC0080008E
:101100001800014000240002200062000420004179
:10111000000810008100080801008010080100404C
:10112000200402002040020400204001080010803A
:1011300001080009000090000A000060000600801D
:10114000010002000C001000A0008005000400282F
:101150000090022004801100240088011008201053
:10116000804100840208042010202081010204082C
:10117000081020404081040104042008402100425E
:101180000110011008800880240048012002400A54
:10119000000A0030006001800300080008004000E1
:1011A0002200042000410008080100C030040200B1
:1011B0002040030C00108000900006000060000634
:1011C0000000900019800108002040060600402021
:1011D0000801010008100082000440002C00038078
:1011E0000014000260006200041000810008080181
:1011F000008030040200204002040010800108003A
:1012000009000060000600004000040000400004E7
:101210000000400004000040000400004000040002
:101220007FFFC00020001800040002000100004001
:101230000020001000040002000100004000200017
:101240001000040002000100004000200010000413
:1012500000020001000040003FFFF0DB40A4A62E8A
:10126000AFDA0281DA1281DA02818F2000A1C8D3BD
:1012700000408DAED580A800006000000000000096
:101280000000000000000000E0000000000000007E
:1012900000000000000001E000000000000000006D
:1012A000000000000001F00000000000000000004D
:1012B0000000000003F0000000000000000000003B
:1012C00000000007F0000000000000000000000027
:1012D000000007F80000000000000000000000000F
:1012E000000FF800000003C0007E000001E0007F56
:1012F0000FF800000003C000FE000001E000FFEF57
:10130000F800000003C000FE000001E000FFFFF84D
:1013100000000003C000F00000000F007FFE7FC04F
:10132000000003C000F00000000F003FFE7FF83F08
:10133000F1FBCFFCFEF3BC3DEFE01FFE7FFF7FFB28
:10134000FFDFFEFEFFBC3DEFE01FC6FFFF7FFBFFA0
:10135000DFFEFEFFBC3DEFE00FE3C7FE787BC3DEA0
:101360001EF0FFBC3DEF0007FF87FC787BC3DE1E4D
:10137000F0F83C3DEF0001FFFFF0007BC3C01EF022
:10138000F03C3DEF0001F37FE03FFBC3CFFEF0F008
:101390003C3DEF0003E33F807FFBC3DFFEF0F03C0A
:1013A0003DEF0007E73C00787BC3DE1EF0F03C3DDC
:1013B000EF0007FFBE00787BC3DE1EF0F03C3DEF80
:1013C0000007FFFE00787BC3DE1EF0F03C3DEF001F
:1013D0000FFFFE007FFBFFDFFEF0F03FFDEFE00FB1
:1013E000FFFF007FFBFFDFFEF0F03FFDEFE00FF9B6
:1013F000FF003E79F9CF9EF0F01F3DE7E01FF1FFBF
:101400000000000000000000000000001F80FF003E
:101410007FFFFFFFFFFFFFFFFFFFE01C007F007F5C
:10142000FFFFFFFEB46D888D18E000001F007FFFF6
:10143000FFFFFE95AD7DB577E000000F007FFFFF59
:10144000FFFEA5AD9D8D19E0000006007FFFFFFFA8
:10145000FEB5ADEDB57EE0000000000001800000AB
:1014600000000000000000038000000000000000F9
:10147000000007C000000000000000000007C000DE
:1014800000000000000000000FC00000000000008D
:101490000000001FE00000000000000000001FE04E
:1014A0000000000000000000003FE000000000001D
:1014B000000000003FF00000000000000000007F7E
:1014C000F0000000000000001FF87FF000000000A6
:1014D0000000003FFE7FF0000000000000003FFF22
:1014E0007FF0000000000000001FFFFBE000000094
:1014F000000000000FFFF9FFC00000000000000F17
:10150000FFF9FFF800000000000007FFF1FFFF00F7
:10151000000000000003FC73FFFF800000000000DB
:1015200001FE3FFFFF80000000000000FF1E0FFFD4
:10153000000000000000007FFE1FFC000000000013
:1015400000003FFFFFF8000000000000000FDFFF79
:10155000E0000000000000001F19FFC000000000B4
:101560000000003F3CFF00000000000000007E7C07
:10157000F800000000000000007FFE7C000000007A
:1015800000000000FFFFFC0000000000000000FF62
:10159000FFFE0000000000000000FFFFFE00000052
:1015A0000000000001FFEFFE00000000000000014D
:1015B000FFCFFE0000000000000003FF07FE000058
:1015C000000000000003FC07FE0000000000000017
:1015D00003F003FE00000000000000018000FE0098
:1015E0000000000000000000007E0000000000007D
:1015F000000000003E000000000000000000000CA1
:10160000000000000000078000FC000003C0000094
:1016100000078001FC000003C0000000078001FCFF
:10162000000003C0000000078001E00000001E0071
:101630000000078001E00000001E007FE3F79FF933
:10164000FDE7787BDFC0FFF7FFBFFDFDFF787BDFA5
:10165000C0FFF7FFBFFDFDFF787BDFC0F0F787BC61
:101660003DE1FF787BDE00F0F787BC3DE1F0787B61
:10167000DE0000F787803DE1E0787BDE007FF787C2
:101680009FFDE1E0787BDE00FFF787BFFDE1E078BA
:101690007BDE00F0F787BC3DE1E0787BDE00F0F711
:1016A00087BC3DE1E0787BDE00F0F787BC3DE1E000
:1016B000787BDE00FFF7FFBFFDE1E07FFBDFC0FFCF
:1016C000F7FFBFFDE1E07FFBDFC07CF3F39F3DE16F
:1016D000E03E7BCFC00000000000000000000000E2
:1016E000FFFFFFFFFFFFFFFFFFFFC0FFFFFFFFFD4B
:1016F00068DB111A31C0FFFFFFFFFD2B5AFB6AEFB9
:10170000C0FFFFFFFFFD4B5B3B1A33C0FFFFFFFF36
:10171000FD6B5BDB6AFDC02200FF21000502680053
:10172000205A2B00000008000201000003040700FB
:1017300000000000000000000103070F1F3F7F00B2
:1017400080C0E0F0F8FCFE00000000003E5B4F5B54
:101750003E3E6B4F6B3E1C3E7C3E1C183C7E3C1854
:101760001C577D571C1C5E7F5E1C00183C1800FF38
:10177000E7C3E7FF0018241800FFE7DBE7FF304866
:101780003A060E2629792926407F050507407F0560
:10179000253F5A3CE73C5A7F3E1C1C08081C1C3E57
:1017A0007F14227F22145F5F005F5F06097F017F45
:1017B000006689956A606060606094A2FFA29408E8
:1017C000047E040810207E201008082A1C08081C2B
:1017D0002A08081E101010100C1E0C1E0C30383E6B
:1017E0003830060E3E0E06000000000000005F00CC
:1017F000000007000700147F147F14242A7F2A1298
:10180000231308646236495620500008070300007D
:101810001C2241000041221C002A1C7F1C2A0808AF
:101820003E080800807030000808080808000060C2
:10183000600020100804023E5149453E00427F40AE
:101840000072494949462141494D331814127F100D
:1018500027454545393C4A49493141211109073657
:1018600049494936464949291E00001400000040F4
:1018700034000000081422411414141414004122EE
:10188000140802015909063E415D594E7C1211129D
:101890007C7F494949363E414141227F4141413E99
:1018A0007F494949417F090909013E414151737FFF
:1018B0000808087F00417F41002040413F017F0828
:1018C0001422417F404040407F021C027F7F040879
:1018D000107F3E4141413E7F090909063E415121A9
:1018E0005E7F09192946264949493203017F0103D0
:1018F0003F4040403F1F2040201F3F4038403F6353
:101900001408146303047804036159494D43007FAC
:101910004141410204081020004141417F0402017D
:10192000020440404040400003070800205454781F
:10193000407F284444383844444428384444287F6D
:10194000385454541800087E090218A4A49C787FC7
:101950000804047800447D40002040403D007F1092
:1019600028440000417F40007C047804787C08040F
:1019700004783844444438FC1824241818242418C3
:10198000FC7C08040408485454542404043F4424B0
:101990003C4040207C1C2040201C3C4030403C44CB
:1019A000281028444C9090907C4464544C44000887
:1019B00036410000007700000041360800020102B5
:1019C00004023C2623263C1EA1A161123A4040207D
:1019D0007A385454555921555579412254547842F6
:1019E000215554784020545579400C1E52721239BA
:1019F0005555555939545454593955545458000073
:101A0000457C410002457D420001457C407D12112C
:101A1000127DF0282528F07C545545002054547C34
:101A2000547C0A097F4932494949323A4444443A8C
:101A3000324A4848303A4141217A3A4240207800BF
:101A40009DA0A07D3D4242423D3D4040403D3C2462
:101A5000FF2424487E4943662B2FFC2F2BFF0929A6
:101A6000F620C0887E090320545479410000447D4B
:101A7000413048484A32384040227A007A0A0A7295
:101A80007D0D19317D2629292F282629292926303F
:101A9000484D4020380808080808080808382F1062
:101AA000C8ACBA2F102834FA00007B000008142AB2
:101AB000142222142A14085500550055AA55AA5577
:101AC000AAFF55FF55FF000000FF00101010FF0097
:101AD000141414FF001010FF00FF1010F010F01489
:101AE0001414FC001414F700FF0000FF00FF14148E
:101AF000F404FC141417101F10101F101F141414DA
:101B00001F00101010F0000000001F101010101F18
:101B100010101010F010000000FF10101010101026
:101B2000101010FF10000000FF140000FF00FF0065
:101B3000001F10170000FC04F414141710171414DD
:101B4000F404F40000FF00F714141414141414F730
:101B500000F7141414171410101F101F141414F489
:101B6000141010F010F000001F101F0000001F14D0
:101B7000000000FC140000F010F01010FF10FF1423
:101B80001414FF141010101F00000000F010FFFFCD
:101B9000FFFFFFF0F0F0F0F0FFFFFF00000000009B
:101BA000FFFF0F0F0F0F0F3844443844FC4A4A4AD6
:101BB000347E02020606027E027E026355494163BC
:101BC0003844443C04407E201E2006027E020299D6
:101BD000A5E7A5991C2A492A1C4C7201724C304A6F
:101BE0004D4D303048784830BC625A463D3E4949F8
:101BF00049007E0101017E2A2A2A2A2A44445F44A0
:101C00004440514A444040444A51400000FF0103CF
:101C1000E080FF000008086B6B0836123624360699
:101C20000F090F06000018180000001010003040C7
:101C3000FF0101001F01011E00191D1712003C3C8D
:101C40003C3C000000000000000000250028002BA4
:101C50000000000000240027002A000404040404FB
:101C60000404040202020202020303030303030149
:101C70000204081020408001020408102001020420
:101C800008102000192511241FBECFEFD8E0DEBFB9
:101C9000CDBF23E0AAE6B1E001C01D92AC35B2078A
:101CA000E1F711E0A0E0B1E0E0ECFFE402C0059054
:101CB0000D92AA36B107D9F71EE0C3E4DEE004C0F6
:101CC0002197FE010E94D525C234D107C9F70E9491
:101CD000F3220C94DE270C94000085ED8093BC0069
:101CE0008091BC0084FDFCCF10924A02089540917F
:101CF000B001262F30E0240F311D21323105DCF4F4
:101D000020914A022430C9F4FC0180E090E086175B
:101D100058F43091B0012191DC01A057BE4FA30FC0
:101D2000B11D2C930196F3CF8091B001680F6093A1
:101D3000B00180E0089581E0089582E0089508955B
:101D400008950895E0916B0180916A01E81730F4DD
:101D5000F0E0E059FE4F808190E008958FEF9FEF13
:101D6000089590916B0180916A01981750F4E92FC2
:101D7000F0E0E059FE4F208130E09F5F90936B01CF
:101D800002C02FEF3FEFC901089580916A0190E0F2
:101D900020916B01821B91090895CF92DF92EF92FF
:101DA000FF920F931F93CF93DF937C01CB018A01A6
:101DB00020914B02222389F0EB016B01C40ED51E4A
:101DC000CC15DD0569F06991D701ED91FC91019089
:101DD000F081E02DC7010995F3CF642F0E94770EA3
:101DE000C801DF91CF911F910F91FF90EF90DF908D
:101DF000CF900895CF93DF931F92CDB7DEB769835D
:101E000020914B022223D1F020916E02203240F02B
:101E100021E030E0FC013383228380E090E015C0B4
:101E200080914C02E82FF0E0E35BFD4F99819083B5
:101E30008F5F80934C0280936E0205C061E0CE01FB
:101E400001960E94770E81E090E00F90DF91CF9194
:101E50000895FC0177FDB9C08085918568177907E1
:101E60000CF0B3C057FDB1C0828593854817590760
:101E70000CF008958589823079F484819581DC01A4
:101E8000A61BB70BBD016150710986819781DC01EA
:101E9000A41BB50BAD010EC0833009F084C06427CC
:101EA0007527CA0186279727682779274681578192
:101EB000481B590B415051092130310531F048F18F
:101EC0002230310509F44AC00895CA0157FD07962A
:101ED0009C01A3E035952795AA95E1F7A481B581EA
:101EE0002A9FC0012B9F900D3A9F900D1124680FDF
:101EF000791F068CF78DE02DE60FF71F47705527E9
:101F000081E090E001C0880F4A95EAF79081892B23
:101F100048C0CA0157FD07969C0193E03595279567
:101F20009A95E1F7A481B5812A9FC0012B9F900D5E
:101F30003A9F900D1124680F791F068CF78DE02DC4
:101F4000E60FF71F4770552781E090E001C0880F2A
:101F50004A95EAF780959081892323C0CA0157FDED
:101F600007969C0183E0359527958A95E1F7A48132
:101F7000B5812A9FC0012B9F900D3A9F900D11248F
:101F8000680F791F068CF78DE02DE60FF71F47705D
:101F9000552781E090E001C0880F4A95EAF79081CB
:101FA000892780830895813009F086CF64277527BB
:101FB000462757276427752784819581DC01A61B56
:101FC000B70BBD016150710977CF08950895FC01E9
:101FD0006370658B8481958126813781613039F00A
:101FE000633029F09187808733872287089531876E
:101FF00020879387828708956F927F928F929F9216
:10200000AF92BF92CF92DF92EF92FF920F931F9306
:10201000CF93DF93EC014B015A0169013801E8814C
:10202000F9810284F385E02D0995E881F981028820
:10203000F389E02D87019601A501B401CE01099530
:10204000A501460D571D41505109E881F9810288CB
:10205000F389E02D9601B401CE010995E881F9815B
:102060000088F189E02D9301A501B401CE01099505
:10207000C80CD91CB60161507109E881F98100884A
:10208000F189E02D9301A501CE010995E881F9813F
:102090000688F789E02DCE01DF91CF911F910F9136
:1020A000FF90EF90DF90CF90BF90AF909F908F9078
:1020B0007F906F9009948F929F92AF92BF92CF9230
:1020C000DF92EF92FF920F931F93CF93DF934C0118
:1020D0006B015A01E901DC01ED91FC916217730774
:1020E00081F40417150724F48B2D5801042F182FA1
:1020F0000A191B0998012F5F3F4F048CF58DE02DC5
:1021000012C04017510709F52617370724F48D2D03
:102110006901C62FD82F9E012C193D092F5F3F4F13
:10212000068CF78DE02D8701A501B601C401099544
:10213000DF91CF911F910F91FF90EF90DF90CF90A3
:10214000BF90AF909F908F9008950284F385E02D0B
:102150000995D401ED91FC910488F589E02D9E014B
:10216000A501B601C4010995D401ED91FC91068841
:10217000F789E02DC401DF91CF911F910F91FF905E
:10218000EF90DF90CF90BF90AF909F908F90099489
:10219000EF92FF920F931F93DC011A960D911C9101
:1021A0001B9718962D913C911997ED91FC9100A0E9
:1021B000F1A1E02D7B0140E050E060E070E0099586
:1021C0001F910F91FF90EF9008950F931F93CF935E
:1021D000DF93DC015596EC915597E23071F0E330D6
:1021E000E9F0E13079F5FB0114960D90BC91A02D3A
:1021F000A41BB50BA21BB30B18C0EC01EC81FD8135
:10220000E61BF70BBF0161507109EE81FF81DF0111
:10221000A41BB50BAD01421B530B14C0DA01EC013A
:10222000EE81FF81E61BF70B3197F7FD0DC0EC0146
:102230004E815F81E417F5073CF4AF01BD010E94B8
:102240002C2102C00E949321DF91CF911F910F9109
:1022500008950F931F93DC015596EC915597E2304A
:1022600061F0E33009F1E13081F51496ED91FC91D4
:102270001597E41BF50B319723C0DC011496ED9103
:10228000FC911597DF01A61BB70BBD01DC0116966B
:10229000ED91FC911797DF01A41BB50BAD014150E7
:1022A0005109621B730B11C0FA01DC0116964D91A6
:1022B0005C911797DA01A61BB70BBD01621B730B6C
:1022C000AB01BF010E9493210CC057FD0AC0DC0185
:1022D0001696ED91FC9117974E175F0714F40E9424
:1022E0002C211F910F910895AF92BF92CF92EF9240
:1022F000FF920F931F93CF93DF93EC01262F888DCE
:10230000998D009709F040C06A3059F41D861C86EB
:102310002C898E859F8538E0239F800D911D112487
:1023200041C06D3009F4AAC08E898823C1F03C8970
:102330008C859D8546E0349F800D911D1124488534
:102340005985481759075CF41D861C868E859F8524
:1023500048E0349F800D911D11249F878E87EA8865
:10236000FB88088919894E855F856C857D85CC88B9
:10237000CE010E94121F2C898C859D8536E0239FFB
:10238000800D911D112442C06A3079F41D861C868F
:102390002C89FC013696E4918E859F852E9F800DB9
:1023A000911D11249F878E8769C06D3009F466C026
:1023B000FC0134963491631708F460C03196E491BF
:1023C000E61708F45BC0FC01329665917491422FC8
:1023D00050E0431B510937E0349F5001359FB00C4A
:1023E0001124A60EB71EF501329634913196E49170
:1023F000332311F0E1110DC0F5013496E4912C89DD
:102400008C859D85E29F800D911D11249D878C8771
:1024100035C0F501359644915E89552311F16C89DB
:10242000E32FF0E0E40FF11D47FDFA956E9FD00118
:102430006F9FB00D11244C855D854A0F5B1FE885A9
:10244000F985E417F5076CF41D861C86FC013696A9
:10245000E4918E859F856E9F800D911D11249F872D
:102460008E87EA88FB88088919894E855F856C8587
:102470007D85CC88CE010E94121FBECF81E090E006
:10248000DF91CF911F910F91FF90EF90CF90BF9070
:10249000AF9008953FB7F8948091D4019091D50101
:1024A000A091D601B091D70126B5A89B05C02F3FBA
:1024B00019F00196A11DB11D3FBFBA2FA92F982F6A
:1024C0008827820F911DA11DB11DBC01CD0142E0E5
:1024D000660F771F881F991F4A95D1F708951F929D
:1024E0000F920FB60F9211242F933F938F939F93C8
:1024F000AF93BF938091E1019091E201A091E3013C
:10250000B091E4013091D30123E0230F2D3720F463
:102510000196A11DB11D05C026E8230F0296A11D3D
:10252000B11D2093D3018093E1019093E201A09328
:10253000E301B093E4018091D4019091D501A09181
:10254000D601B091D7010196A11DB11D8093D40190
:102550009093D501A093D601B093D701BF91AF91CD
:102560009F918F913F912F910F900FBE0F901F90D1
:1025700018951F920F920FB60F9211242F933F932D
:102580004F935F936F937F938F939F93AF93BF937B
:10259000EF93FF938091B900887F803609F49CC047
:1025A00068F5883209F45BC090F4803109F454C0B6
:1025B00038F4882309F4F6C0883009F44DC0F6C019
:1025C000883109F44CC0803209F45DC0EFC080341A
:1025D00009F468C048F4803309F455C0883309F021
:1025E000E5C080934802D8C0803509F44FC08835D3
:1025F00009F45DC0883409F0D9C0D6C0883909F41F
:10260000C7C0A8F4883709F467C038F4883609F4DD
:1026100063C0803709F460C0C9C0883809F4B8C005
:10262000803909F45FC0803809F0C0C05BC0803BCE
:1026300009F486C038F4803A09F466C0883A09F48F
:102640007FC0B4C0803C09F4A7C0883C09F4A4C092
:10265000883B09F48AC0AAC08091250210C09091DD
:10266000470280914602981770F5E091470281E099
:102670008E0F80934702F0E0EA5DFD4F80818093EA
:10268000BB0085EC86C0809348028EC0E091470273
:1026900081E08E0F809347028091BB00F0E0EA5DFD
:1026A000FD4F808390914702809146026EC0E09179
:1026B000470281E08E0F809347028091BB00F0E0DB
:1026C000EA5DFD4F80838091490281116DC081E0F8
:1026D0008093240284EA61C083E080934A021092CE
:1026E000D201CFCF8091D201803208F051C0E09169
:1026F000D20181E08E0F8093D2018091BB00F0E087
:10270000EE54FE4F8083BDCF85EC8093BC001092C9
:102710004A028091D201803230F4E091D201F0E09F
:10272000EE54FE4F10826091D20170E0E0916E0194
:10273000F0916F0182EB91E009951092D20136C0C1
:1027400084E080934A021092B1011092B001E091AE
:102750006C01F0916D0109958091B001811105C066
:1027600081E08093B00110929001E091B10181E08D
:102770008E0F8093B101F0E0E057FE4F808180938F
:10278000BB009091B1018091B001981708F479CF06
:1027900085E88093BC000AC085EC8093BC00109251
:1027A0004A0204C0109248020E946D0EFF91EF9100
:1027B000BF91AF919F918F917F916F915F914F9159
:1027C0003F912F910F900FBE0F901F901895FC0115
:1027D000868197819C01295F3F4F37FF02C0295FA7
:1027E0003F4F83E0359527958A95E1F78481958160
:1027F000289FA001299F500D389F500D112460E0A3
:1028000070E0868D978D0C94D02708958EBD0000C2
:102810000DB407FEFDCF8EB50895DF92EF92FF92C3
:102820000F931F93CF93DF93EC01D62E072F142F16
:102830008C8D9D8D009709F44DC028A131E0309317
:102840004B0220936D0210924C0210926E02DC013A
:10285000ED91FC910190F081E02D60E00995ED2C67
:10286000F02E01E0DD24D3948C8D9D8D112349F150
:102870000032B0F00E94A91E88A1D0924B02809332
:102880006D0210924C0210926E028C8D9D8DDC01B7
:10289000ED91FC910190F081E02D60E0099501E05F
:1028A0008C8D9D8DF7016491DC01ED91FC9101907F
:1028B000F081E02D09950F5F1150F70131967F01EE
:1028C000D3CFDF91CF911F910F91FF90EF90DF90C9
:1028D0000C94A91EECA5FDA590818AA98095892359
:1028E0008083E62EF72E112379F1F70184912A8D4A
:1028F0003B8D232B39F00E9406141150C70101961D
:102900007C01F1CF28E030E040E8E8A5F9A598A9DE
:10291000582F542319F05081952B03C05081909566
:1029200095239083EAA5FBA5508199A9952B9083C7
:10293000EAA5FBA5508199A990959523908346958A
:102940002150310911F7D9CFDF91CF911F910F910C
:10295000FF90EF90DF9008951F93CF93DF93FC01DA
:10296000848D958D009729F1162FEF0120A131E07C
:1029700030934B0220936D0210924C0210926E0223
:10298000DC01ED91FC910190F081E02D60E0099572
:102990008C8D9D8DDC01ED91FC910190F081E02DFD
:1029A000612F09958C8D9D8DDF91CF911F910C9496
:1029B000A91EA4A5B5A59C9182A9809589238C9375
:1029C000828D938D892B31F0862FDF91CF911F91CE
:1029D0000C94061428E030E080E8A0A5B1A590A9E9
:1029E000462F482319F04C91942B03C04C9190959D
:1029F00094239C93A2A5B3A54C9191A9942B9C934D
:102A0000A2A5B3A54C9191A9909594239C938695EA
:102A10002150310911F7DF91CF911F9108958CBD9D
:102A20009DBD08951F93CF93DF93EC01162F8C8DDE
:102A30009D8D892BB1F02EA93FA948AD59AD60E01D
:102A400074E284EF90E00E94B325DA01C901409757
:102A5000A109B109B695A795979587958093B80078
:102A60000FC08A8D9B8D892B21F08CA99DA90E9476
:102A70000F15EEA5FFA590818BA9809589238083F2
:102A8000111102C066EA01C067EACE010E94AC14CF
:102A90008C8D9D8D892BB1F02AAD3BAD4CAD5DADDC
:102AA00060E074E284EF90E00E94B325DA01C9018E
:102AB0004097A109B109B695A795979587958093F9
:102AC000B80006C0EEA5FFA590818BA9892B808355
:102AD000DF91CF911F9108954F925F926F927F92F5
:102AE0008F929F92AF92BF92CF92DF92EF92FF921E
:102AF0000F931F93CF93DF936C012B015A01390180
:102B00004801DC01ED91FC910284F385E02D0995EB
:102B1000E201640C751CD601ED91FC91C615D70538
:102B20005CF40088F189E02D87019401A501BE01C4
:102B3000C60109952196EFCF0688F789E02DC601D9
:102B4000DF91CF911F910F91FF90EF90DF90CF9089
:102B5000BF90AF909F908F907F906F905F904F90BD
:102B600009948F929F92AF92BF92CF92DF92EF9291
:102B7000FF920F931F93CF93DF93EC015B014A0108
:102B80006901E881F9810284F385E02D09959501B9
:102B90002C0D3D1D21503109E881F9810488F5890A
:102BA000E02D78018401A401B501CE010995E881E9
:102BB000F9810688F789E02DCE01DF91CF911F9131
:102BC0000F91FF90EF90DF90CF90BF90AF909F90CC
:102BD0008F9009948F929F92AF92BF92CF92DF9283
:102BE000EF92FF920F931F93CF93DF93EC015B0162
:102BF0004A0169017801E881F9810284F385E02DB9
:102C00000995C80CD91C860101501109E881F98188
:102C10000488F589E02D9501A401B501CE0109953F
:102C2000E881F9810688F789E02DCE01DF91CF9107
:102C30001F910F91FF90EF90DF90CF90BF90AF90DA
:102C40009F908F900994EF92FF920F931F93DC0156
:102C5000ED91FC9100A0F1A1E02D09951F910F913C
:102C6000FF90EF9008950F931F93DC01ED91FC917D
:102C7000068CF78DE02D09951F910F9108950F9304
:102C80001F93DC01ED91FC91048CF58DE02D0995ED
:102C90001F910F910895DC01ED91FC910084F18565
:102CA000E02D09942F923F924F925F926F927F9204
:102CB0008F929F92AF92BF92CF92DF92EF92FF924C
:102CC0000F931F93CF93DF9300D000D000D0CDB7E8
:102CD000DEB72C017E836D836A015901C801FC8235
:102CE000EB824801841A950A97FE03C0919481945F
:102CF000910835012D813E81621A730A77FE03C067
:102D0000719461947108681479045CF43A2D2B2D48
:102D10005C01832F922F3D812E81DE82CD82C32ED6
:102D2000D22EAD81BE81AA16BB065CF43C2D2D2DA2
:102D30006C01832F922F3D812E81BE82AD82A32E06
:102D4000B22E85012D813E81021B130B1C012C1814
:102D50003D0837FE03C0319421943108780117FFF4
:102D600003C03FEFE31AF30AF594E794C816D906B7
:102D70002CF08FEF9FEF9A83898304C0A1E0B0E02D
:102D8000BA83A9832D813E81A216B30624F1D20114
:102D9000ED91FC910484F585E02D2B813C81681434
:102DA000790424F44D815E81B60103C0A6016D81D2
:102DB0007E81C2010995E218F308F7FE06C0298159
:102DC0003A81C20ED31EE00EF11E8D819E810196C6
:102DD0009E838D83D7CF26960FB6F894DEBF0FBEA5
:102DE000CDBFDF91CF911F910F91FF90EF90DF90BA
:102DF000CF90BF90AF909F908F907F906F905F909B
:102E00004F903F902F900895089580E090E00895AE
:102E1000CF93DF93EC010E94051FCE0106960E941E
:102E2000051F198A188ADD87CC8782E090E09F878A
:102E30008E87DF91CF9108950F931F93CF93809149
:102E4000D9018111C4C2109272021092710220E85D
:102E500030E0309374022093730280E290E090930C
:102E600076028093750230937802209377029093D4
:102E70007A02809379021092840210927C0210925E
:102E80007B0210927E0210927D0281E08093830289
:102E90002FEF3FEF30938202209381023093800224
:102EA00020937F02809385021092860210928802FE
:102EB000109287028AE091E09093700280936F02F3
:102EC00010928A02109289028CE493E090938C0213
:102ED00080938B0210928E0210928D028FEF80935E
:102EE000920280939302809394028093950284E0EF
:102EF0008093960280E58093A3021092A40280E85A
:102F00009AE1A6E0B0E08093A5029093A602A09378
:102F1000A702B093A80280EA96E8A1E0B0E080930F
:102F2000A9029093AA02A093AB02B093AC021092B4
:102F3000AE021092AD0280918D0290918E02892B8B
:102F400051F480E092E00E94DB2590938E02809302
:102F50008D02892B81F38FE692E00E94E713209186
:102F60007502309176028091730290917402213241
:102F70003105A4F0B9016054710977FF02C06F5F99
:102F80007F4F759567958255910997FD019600E4ED
:102F900010E022E530E047E554E113C0B90160528A
:102FA000710977FF02C06F5F7F4F759567958357F3
:102FB000910997FD019600E210E023E730E047E732
:102FC00052E1959587950E94071E82E080939002BA
:102FD00080918B0290918C02892BB9F18CE38093C4
:102FE0008F0210926B0110926A0110924C021092A3
:102FF0006E0210924A0281E08093490210922402EC
:1030000061E082E10E94801D61E083E10E94801DF9
:103010008091B9008E7F8093B9008091B9008D7F37
:103020008093B90088E48093B80085E48093BC0065
:103030008FE99EE090936D0180936C0180EA9EE0A1
:1030400090936F0180936E01B6C0809194020E94AC
:103050008A1E809195020E948A1E80919402082EF9
:10306000000C990BFC01E55AF34EE491F0E0EE0FF1
:10307000FF1FE95BF34E2591349130939C0220931E
:103080009B02FC01E159F34EE491E093A10280918F
:103090009502082E000C990BFC01E55AF34EE491C1
:1030A000F0E0EE0FFF1FE95BF34EA591B491B093F2
:1030B0009E02A0939D02FC01E159F34EE491E0933E
:1030C000A2028C91E82BEC938091890290918A0264
:1030D000892B89F1CFB7F8948091D801811124C050
:1030E000E5E6FCE18491E9E7FCE19491E82FF0E06A
:1030F000EE0FFF1FEF5AF34EA591B491EC91E92327
:1031000021F461E08AE00E94801D8AE00E948A1E0C
:103110008CB580618CBD8CB580648CBD8DE00E94C7
:103120008A1E8BE00E948A1E8091D8018F5F809357
:10313000D801CFBF40C0809192020E948A1E809128
:1031400093020E948A1E80919202082E000C990B15
:10315000FC01E55AF34EE491F0E0EE0FFF1FE95B4E
:10316000F34E259134913093980220939702FC01FD
:10317000E159F34EE491E0939F0280919302082E6F
:10318000000C990BFC01E55AF34EE491F0E0EE0FD0
:10319000FF1FE95BF34EA591B491B0939A02A093FF
:1031A0009902FC01E159F34EE491E093A0028C9165
:1031B000E095E823EC938091960287FD1DC00E9464
:1031C0008A1E61E0809196020E94801D61E070E09D
:1031D00080E090E00E94CD1D60E0809196020E9408
:1031E000801D6AE070E080E090E00E94CD1D61E00B
:1031F000809196020E94801D80918B0290918C029A
:10320000892BD1F02091A5023091A6024091A7020E
:103210005091A80260E074E284EF90E00E94B32530
:10322000DA01C9014097A109B109B695A79597950B
:1032300087958093B80016C08091890290918A0288
:10324000892B31F08091A3029091A4020E940F1566
:10325000E0919D02F0919E0290818091A202809562
:103260008923808344E063E772E18FE692E00E9465
:103270000D146091750261508FE692E00E94AC14CB
:1032800044E06FE672E18FE692E00E940D148091B7
:103290009002813011F460E101C064E18FE692E0B8
:1032A0000E94AC1444E06BE672E18FE692E00E946B
:1032B0000D1480917302909174028038910509F584
:1032C00080917502909176028032910541F444E03C
:1032D00067E672E18FE692E00E940D142DC0803403
:1032E000910551F543E064E672E18FE692E00E94B9
:1032F0000D1480919002813011F46FE919C06FECC8
:1033000017C080369105C1F48091750290917602C4
:10331000409791F443E061E672E18FE692E00E940B
:103320000D1480919002813011F460E101C06FEAC8
:103330008FE692E00E94AC1469ED8FE692E00E9465
:10334000AC1480919002813011F462E201C061EF0F
:103350008FE692E00E94AC1446E06BE572E18FE6E6
:1033600092E00E940D1480918B0290918C02892B27
:10337000D1F02091A9023091AA024091AB02509164
:10338000AC0260E074E284EF90E00E94B325DA01C1
:10339000C9014097A109B109B695A7959795879559
:1033A0008093B80011C0E0919D02F0919E0290813F
:1033B0008091A202892B80838091890290918A0258
:1033C000892B11F00E94051481E08093D9018FE6CA
:1033D00092E0CF911F910F910895AF92BF92CF923B
:1033E000DF92EF92FF920F931F93CF93DF9300D062
:1033F00000D000D0CDB7DEB70E941C170E94E713A3
:103400000E941C17DC01DE968D919C91DF97892B21
:1034100009F477C00E941C17FC01808D918D892BC7
:1034200029F4868597850696978786878CE197E1AC
:10343000918F808F0E941C1721E030E0FC01338BBC
:10344000228B318B208B0E941C1721E0DC015496CB
:103450002C930E941C17FC011586148620E230E094
:10346000378726870E941C17DC01DE960D911C9180
:10347000DF97F80180899189892B29F4CE01019683
:103480000E94051F2DC02FB7F8946091E101709143
:10349000E2018091E3019091E4012FBF24EF31E03C
:1034A00040E050E00E94B325D8015096CD90DC90CA
:1034B0005197E12CF12CCA01B901A70196010E9494
:1034C000B32526E0269FA001279F500D1124F80167
:1034D00064857585640F751FCE0101960E941F1DBE
:1034E0000E941C174D815E8169817A81DC01ED911A
:1034F000FC910280F381E02D0995CE0101960E9496
:103500001A1D0E941C178C01FC01848D958D892B3E
:10351000B1F026A937A940AD51AD60E074E284EF67
:1035200090E00E94B325DA01C9014097A109B109D1
:10353000B695A795979587958093B80013C0828D0F
:10354000938D892B21F084A995A90E940F15D8018C
:103550009E96ED91FC919F979081D3968C9180954A
:103560008923808345E067E177E1C8010E940D145B
:10357000F80164816150C8010E94AC14D80116960C
:103580002D913C911797C901079697FD079633E057
:10359000959587953A95E1F7F80124813581829FC9
:1035A0006001839FD00C929FD00C1124E68CF78C85
:1035B000848D958DCE0CDF1C009709F44EC020A1A0
:1035C00031E030934B0220936D0210924C02109226
:1035D0006E02DC01ED91FC910190F081E02D60E440
:1035E00009955701FF24F394EE24E394F801848DA8
:1035F000958DCA14DB0471F1FFE1FF15E0F40E9420
:10360000A91ED80190968C919097E0924B028093DE
:103610006D0210924C0210926E025C968D919C91FC
:103620005D97DC01ED91FC910190F081E02D60E46B
:103630000995FF24F394F801848D958DD5016D9142
:103640005D01DC01ED91FC910190F081E02D099587
:10365000F394CCCF0E94A91E47C0D80104A4F5A5BD
:10366000E02D9081D2968C91892B8083CE14DF043B
:10367000D9F1F70181917F01D8015A962D913C91A2
:103680005B97232B19F00E940614F0CF28E030E05E
:1036900040E8D8019896ED91FC919997D0969C912D
:1036A000582F542319F05081952B03C050819095C9
:1036B00095239083D8019A96ED91FC919B97508128
:1036C000D1969C91D197952B90839A96ED91FC91F0
:1036D0009B975081D1969C91909595239083469588
:1036E00021503109B1F6C2CFF801848D958D892B17
:1036F000B1F022AD33AD44AD55AD60E074E284EF7E
:1037000090E00E94B325DA01C9014097A109B109EF
:10371000B695A795979587958093B80012C0D80164
:1037200006A4F7A5E02D9081D3968C91D397892B91
:1037300080835A968D919C915B97892B11F00E9402
:10374000051426960FB6F894DEBF0FBECDBFDF91ED
:10375000CF911F910F91FF90EF90DF90CF90BF908E
:10376000AF900895CF92DF92EF92FF920F931F9345
:10377000CF93DF936C017A018B01C0E0D0E0CE15CE
:10378000DF0581F0D8016D918D01D601ED91FC919D
:103790000190F081E02DC6010995892B11F0219649
:1037A000EECF7E01C701DF91CF911F910F91FF9066
:1037B000EF90DF90CF900895FC01538D448D252F1D
:1037C00030E0842F90E0821B930B541710F0CF96BB
:1037D000089501970895FC01918D828D981761F0ED
:1037E000828DDF01A80FB11D5D968C91928D9F5F38
:1037F0009F73928F90E008958FEF9FEF0895FC01E3
:10380000918D828D981731F0828DE80FF11D858D95
:1038100090E008958FEF9FEF0895FC01918D228D28
:10382000892F90E0805C9F4F821B91098F739927AD
:1038300008958FEA92E00E940D1C21E0892B09F483
:1038400020E0822F0895FC01848DDF01A80FB11DB7
:10385000A35ABF4F2C91848D90E001968F739927C6
:10386000848FA689B7892C93A089B1898C918370A4
:1038700080648C93938D848D981306C00288F3899D
:10388000E02D80818F7D80830895EF92FF920F93CA
:103890001F93CF93DF93EC0181E0888F9B8D8C8DFC
:1038A000981305C0E889F989808185FD26C0F62E28
:1038B0000B8D10E00F5F1F4F0F731127E02E8C8DC3
:1038C000E8120CC00FB607FCFACFE889F9898081AD
:1038D00085FFF5CFCE010E94231CF1CF8B8DFE0119
:1038E000E80FF11DE35AFF4FF0829FB7F8940B8F5A
:1038F000EA89FB89808180620AC09FB7F894EE89CB
:10390000FF896083E889F98980818370806480837E
:103910009FBF81E090E0DF91CF911F910F91FF90C9
:10392000EF900895CF93DF93EC01888D8823C9F041
:10393000EA89FB89808185FD05C0A889B9898C91B8
:1039400086FD0FC00FB607FCF5CF808185FFF2CF53
:10395000A889B9898C9185FFEDCFCE010E94231CE7
:10396000E7CFDF91CF91089580E090E0892B29F097
:103970000E94191C81110C94000008950E94C22716
:103980000F931F93CF93DF93EC0188819981009768
:1039900029F02A813B812617370788F48B016F5F56
:1039A0007F4F0E94FC26009761F0998388831B83D8
:1039B0000A832C813D81232B11F4FC01108281E0CC
:1039C00001C080E0DF91CF911F910F910895CF93B7
:1039D000DF93EC0188819981009711F00E94732692
:1039E000198218821D821C821B821A82DF91CF915C
:1039F0000895EF92FF920F931F93CF93DF93EC0103
:103A00007B018A01BA010E94C01C811104C0CE0151
:103A10000E94E71C07C01D830C83B7018881998130
:103A20000E94D727CE01DF91CF911F910F91FF9078
:103A3000EF900895FC01808191810C947326FC0124
:103A40001182108213821282158214820C94C02279
:103A50001F920F920FB60F9211242F933F934F9303
:103A60005F936F937F938F939F93AF93BF93EF93E6
:103A7000FF938FEA92E00E94231CFF91EF91BF9188
:103A8000AF919F918F917F916F915F914F913F91F6
:103A90002F910F900FBE0F901F9018951F920F92AD
:103AA0000FB60F9211242F938F939F93EF93FF9351
:103AB000E091BF02F091C0028081E091C502F091D7
:103AC000C60282FD12C090818091C8028F5F8F7301
:103AD0002091C902821751F0E091C802F0E0E1554F
:103AE000FD4F958F8093C80201C08081FF91EF91B7
:103AF0009F918F912F910F900FBE0F901F9018954F
:103B000090E0FC01ED5DF84E2491FC01E159F34E8B
:103B10003491FC01E55AF34EE491EE2309F43CC0E4
:103B2000222339F1233091F038F42130A9F02230EA
:103B300001F584B58F7D12C0273091F02830A1F0B7
:103B40002430B9F4809180008F7D03C08091800083
:103B50008F77809380000DC084B58F7784BD09C0B6
:103B60008091B0008F7703C08091B0008F7D8093EB
:103B7000B000F0E0EE0FFF1FE95BF34EA591B491AA
:103B80009FB7F894611104C08C913095382302C01E
:103B9000EC913E2B3C939FBF08958F929F92AF92E2
:103BA000BF92CF92DF92EF92FF926B017C010E9455
:103BB0004A124B015C01C114D104E104F104F1F09B
:103BC0000E944A12DC01CB0188199909AA09BB0994
:103BD000883E9340A105B10570F321E0C21AD108D7
:103BE000E108F10888EE880E83E0981EA11CB11C44
:103BF000C114D104E104F10419F7DDCFFF90EF9077
:103C0000DF90CF90BF90AF909F908F9008953F929C
:103C10004F925F926F927F928F929F92AF92BF92DC
:103C2000CF92DF92EF92FF920F931F93CF93DF9388
:103C300000D000D000D0CDB7DEB72C013B014A0147
:103C40005901C901079697FD07969C0193E03595A8
:103C500027959A95E1F73C832B83C12CD12CE12C3D
:103C6000F12C312CC3018E0D9F1D9A838983E016A0
:103C7000F106C4F51E821D822D813E812A153B0569
:103C80004CF5C90187709927892B11F0330C0EC0B0
:103C9000ED81FE81F7FD379683E0F595E7958A95EE
:103CA000E1F7EC0DFD1DE80DF91D349037FE0CC059
:103CB00021E030E049815A816D817E81640D751D5E
:103CC0008FE692E00E944B168D819E8101969E8325
:103CD0008D83D2CF9FEFE91AF90A2B813C81C20E66
:103CE000D31EC0CF26960FB6F894DEBF0FBECDBF51
:103CF000DF91CF911F910F91FF90EF90DF90CF90C8
:103D0000BF90AF909F908F907F906F905F904F90FB
:103D10003F90089590E0FC01E159F34E2491FC019D
:103D2000E55AF34E8491882399F090E0880F991F0B
:103D3000FC01EF5AF34EA591B491FC01E95BF34EFF
:103D4000859194918FB7F894EC91E22BEC938FBF0F
:103D5000089530916E02313208F04BC080914A02D2
:103D60008111FCCF90916D0222E020934A0221E064
:103D7000209349022FEF209348021092470230937C
:103D80004602EDE4F2E0A6E2B2E020E0321721F0D4
:103D900041914D932F5FFACF109225022091250279
:103DA000990F922B9093250290912402913061F407
:103DB00010922402909125029093BB009091BC0038
:103DC00093FDF8CF95EC01C095EE9093BC009091D7
:103DD0004A029230E1F3909148029F3F79F080913E
:103DE0004802803241F080914802803331F084E013
:103DF00005C081E003C082E001C083E010924C0264
:103E000010926E0210924B020895FC0111821082F2
:103E1000138212821582148240E050E068E671E05D
:103E20000C94F91C2F923F924F925F926F927F9267
:103E30008F929F92AF92BF92CF92DF92EF92FF92BA
:103E40000F931F93CF93DF93CDB7DEB76B970FB66A
:103E5000F894DEBF0FBECDBF9B8F8A8F5B011A0126
:103E6000D22E1F830E833701C982DC0158962D9113
:103E70003C9159972115310509F0E6C018968D91AE
:103E80009C911997681779070CF0CDC11A968D91FE
:103E90009C911B97481759070CF0C5C18C2C912C8D
:103EA000FB0126E0C29EE00DF11D1124FB87EA878D
:103EB0001E161F060CF0B7C1A40183E0440F551F66
:103EC0008A95E1F75D874C87CA01820D931D18160C
:103ED00019060CF0A8C157968C91811104C05FEAB5
:103EE0005D1508F4D394AA8DBB8DED91FC911197CB
:103EF0000284F385E02DCD010995B5E0DB9EC0017C
:103F00001124F5013596FF87EE87BB82AA82250131
:103F10009C012A193B09398B288BA101485F5F4F0F
:103F20005B8B4A8BE889F989E40DF51DE95BF84E56
:103F30005491588761013D822C82888580FF13C08F
:103F4000AA8DBB8DED91FC91B981B13031F404841F
:103F5000F585E02D2E813F8116C00684F785E02D82
:103F6000EE80FF801AC0EE81FF81E615F705F1F0C3
:103F7000AA8DBB8DED91FC91B981B13051F40484CF
:103F8000F585E02D9301A601B2018A8D9B8D0995DF
:103F90000DC00684F785E02D7301840194014C81E6
:103FA0005D816A817B818A8D9B8D0995E885E69587
:103FB000E887FFEFCF1ADF0A2C813D81280D391DDC
:103FC0003D832C834A895B89C416D50609F0B5CF99
:103FD0005FEF451A550A8A819B81880D991D9B8345
:103FE0008A83AE85BF854A165B0609F09BCFEE81BA
:103FF000FF81E615F70509F4F4C0EA8DFB8DA08179
:10400000B181F981F13079F4B5016B5F7F4F509642
:10401000ED91FC915197830128E030E0A1018A8D58
:104020009B8D0995DEC06A857B85681979091E9686
:10403000ED91FC911F9773010C851D859401A101E1
:104040008A8D9B8D0995CDC0F9013496E491DE1AD5
:10405000F901329685919491B7E0DB9E800D911D18
:104060001124F901259134913B8B2A8BFC01259178
:1040700034912901FC013296C490319634913E87E7
:10408000329614913196D4904981423058F0612E85
:10409000012E000C77088D2D0D2C000C990B9987A3
:1040A000888704C019861886612C712CAA8DBB8D57
:1040B000ED91FC9111970284F385E02DCD010995D6
:1040C000B9818B2E912C689CC001699C900D789CC5
:1040D000900D1124FC01EA0DFB1DFD87EC871A826F
:1040E000712C612CE12F110FFF0B95012E0F3F1F3B
:1040F0003B872A87AC0CB11CA5014E0F5F1F5F8B5D
:104100004E8BC1018D0D911DD7FC9A95998F888F8B
:104110009E85691608F065C0862D90E04885598512
:10412000480F591F489D9001499D300D589D300DF5
:104130001124D101A20FB31FB98BA88BEC85FD858B
:10414000FD83EC83AA84BB84DA80FA85DF1A288D8C
:10415000398D280F391F3D8B2C8B8D2D8A0D4E8963
:104160005F89A416B506C1F1877041F4C2010196BA
:10417000EA89FB89E40DF51D74902C0177FE21C0BE
:10418000AA8DBB8DED91FC91B981B13061F40484AD
:10419000F585E02D2E813F814C895D89B5018A8DA1
:1041A0009B8D09950EC00684F785E02DEE80FF807B
:1041B00084019401488959896C817D818A8D9B8D08
:1041C0000995770CEFEFAE1ABE0A2C813D81280DC0
:1041D000391D3D832C83C1CF3A813C0D3A836394D2
:1041E00097CFAA8DBB8DED91FC9111970688F78929
:1041F000E02DCD016B960FB6F894DEBF0FBECDBF9C
:10420000DF91CF911F910F91FF90EF90DF90CF90B2
:10421000BF90AF909F908F907F906F905F904F90E6
:104220003F902F9009946B960FB6F894DEBF0FBEA7
:10423000CDBFDF91CF911F910F91FF90EF90DF9055
:10424000CF90BF90AF909F908F907F906F905F9036
:104250004F903F902F9008950F931F93CF93DF932C
:1042600077FF04C0260F371F60E070E0DC01149672
:10427000CD91DC911597FB01E20FF31FCE17DF07FD
:104280001CF49E01261B370B121613060CF046C0B9
:10429000FA0157FD3796DF01E3E0B595A795EA955A
:1042A000E1F7AC9FF001AD9FF00DBC9FF00D112424
:1042B0006E0F7F1FDC015E96ED91FC915F97E60F1C
:1042C000F71F4770552781E090E001C0880F4A959D
:1042D000EAF7482F0130110539F078F00230110566
:1042E000E9F42E0F3F1F13C02E0F3F1FE217F307F5
:1042F000A9F08081842B8193F9CF80952E0F3F1FE9
:10430000E217F30759F0908198239193F9CFE217C0
:10431000F30721F0808184278193F9CFDF91CF913A
:104320001F910F910895EF92FF920F931F93CF93D8
:10433000DF93EC0177FDA5C0EC80FD806E157F0555
:104340000CF09FC057FF04C0240F351F40E050E021
:104350008E819F81FA01E20FF31F8E179F071CF4D5
:104360009C01241B350B121613060CF08AC0922FE9
:10437000842F8695869586958E9DD0018F9DB00D54
:1043800011246A0F7B1FAE8DBF8DA60FB71F47701C
:10439000B1F188E0841B482F682F70E0FB01E15CDD
:1043A000F84EE491281798F4621B71092FEF30E062
:1043B00002C0359527956A95E2F7E2230130110591
:1043C00049F078F00230110509F05BC00EC00130F1
:1043D000110519F48C91E82B0AC00130110508F081
:1043E00049C0E0958C91E82302C08C91E827EC93BA
:1043F000941708F446C02C813D81A20FB31FE92F0A
:10440000E41BE830F8F00230110561F48E2F9C9126
:1044100090959C932C813D81A20FB31F88508830CA
:10442000B0F70FC081E00115110509F480E0819516
:104430009E2F8C932C813D81A20FB31F98509830F2
:10444000C0F7E770EE23E9F0F0E0E95CF84EE491A4
:104450000130110539F048F00230110591F48C91CA
:10446000E82706C08C91E82B03C0E0958C91E823E7
:10447000EC9307C00230110509F4B7CFAE0DBF1D94
:10448000BECFDF91CF911F910F91FF90EF900895D4
:10449000EF92FF920F931F93CF93DF9300D0CDB78E
:1044A000DEB78C0169831A82FC01E480F580FFEF9E
:1044B000EF1AFF0AB7010E94C01C882381F0F8019F
:1044C0002081318184819581BE016F5F7F4F820F92
:1044D000931F0E94D727F801F582E48203C0C80128
:1044E0000E94E71CC8010F900F90DF91CF911F91A0
:1044F0000F91FF90EF900895CF93DF93EC0161153A
:10450000710559F0FB0101900020E9F73197AF01E7
:10451000461B570B0E94F91C02C00E94E71CCE01EB
:10452000DF91CF9108950F931F93CF93DF93CDB772
:10453000DEB729970FB6F894DEBF0FBECDBF8C0152
:10454000862FF80111821082138212821582148242
:104550004AE0BE016F5F7F4F90E00E945225BE018E
:104560006F5F7F4FC8010E947C2229960FB6F89496
:10457000DEBF0FBECDBFDF91CF911F910F91089588
:10458000CF93DF93EC01FB018617970761F0608101
:1045900071816115710529F0448155810E94F91CD2
:1045A00002C00E94E71CCE01DF91CF910895FC016B
:1045B000808191810097B1F02481358142815381BE
:1045C0002417350778F4A9014F5F5F4F5583448363
:1045D000E6E0E29FA001E39F500D1124840F951F98
:1045E0000C94C0220895CF93DF93CDB7DEB72C97FC
:1045F0000FB6F894DEBF0FBECDBF789484B582604D
:1046000084BD84B5816084BD85B5826085BD85B576
:10461000816085BD80916E00816080936E001092F4
:10462000810080918100826080938100809181006F
:104630008160809381008091800081608093800000
:104640008091B10084608093B1008091B00081605E
:104650008093B00080917A00846080937A0080918A
:104660007A00826080937A0080917A0081608093E2
:104670007A0080917A00806880937A001092C1005D
:10468000E091BF02F091C00282E08083E091BB0222
:10469000F091BC021082E091BD02F091BE0280E177
:1046A00080831092C702E091C302F091C40286E0B9
:1046B0008083E091C102F091C20280818061808399
:1046C000E091C102F091C202808188608083E09114
:1046D000C102F091C202808180688083E091C102B2
:1046E000F091C20280818F7D80838DE3E82EFF24CC
:1046F000F39498EE892E93E0992EA12CB12C06E329
:1047000011E08091120281115FC085EE91E00E945C
:10471000081787EF91E00E94081710920902109283
:104720000A0210920B0210920C0210920D022FB787
:10473000F8948091E1019091E201A091E301B091A0
:10474000E4012FBF80930E0290930F02A0931002FA
:10475000B0931102CE0101960E94051FBE016F5F4A
:104760007F4F83E092E00E94D722CE0101960E9403
:104770001A1DCE0101960E94051FBE016F5F7F4F7B
:1047800083E092E00E94D722CE0101960E941A1D7A
:104790001A8219821C821B821E821D82EF82188659
:1047A000BE01695F7F4FCE0101960E947C22BE014F
:1047B0006F5F7F4F81EF91E00E94D722CE0101967B
:1047C0000E941A1DF09212020E941C17FC0186AD75
:1047D00097AD875F914039F00E941C1727EF31E0B9
:1047E000FC0137AF26AF2FB7F8948091E10190918B
:1047F000E201A091E301B091E4012FBF40900E02CD
:1048000050900F026090100270901102BC01CD0117
:104810006419750986099709A50194010E94B325B9
:1048200030910902230F209309022FB7F89440908A
:10483000E1015090E2016090E3017090E4012FBF2C
:10484000A3019201261B370B480B590B20930E0234
:1048500030930F024093100250931102809109028D
:104860008C3340F090910A029F5F90930A028C5320
:104870008093090280910A028C3340F090910B02E0
:104880009F5F90930B028C5380930A0280910B02DE
:10489000883140F090910C029F5F90930C028851F8
:1048A00080930B0280910C028E3140F090910D02AA
:1048B0009F5F90930D028E5180930C0260910D02C8
:1048C000662369F0CE0107960E949322BE01695FBC
:1048D0007F4FCE0101960E941F1D6AE310C06091B8
:1048E0000C026623D1F1CE0107960E949322BE01ED
:1048F000695F7F4FCE0101960E941F1D6BE3CE01C1
:1049000001960E944822BC0180910302909104020A
:104910000E94C022CE0101960E941A1DCE01079668
:104920000E941A1D6091030270910402CE0101964B
:104930000E941F1D6FE3CE0101960E944822209124
:10494000030230910402BC01C90106960E94C022F4
:10495000CE0101960E941A1D59C060910B02662378
:1049600069F0CE0107960E949322BE01695F7F4FD6
:10497000CE0101960E941F1D6CE3C1CF60910A0217
:10498000662369F0CE0107960E949322BE01695FFB
:104990007F4FCE0101960E941F1D6DE3B0CF609145
:1049A0000902662359F1CE0107960E949322BE01A7
:1049B000695F7F4FCE0101960E941F1D6EE3CE01FD
:1049C00001960E9448226FE30E944822BC01809118
:1049D0000302909104020E94C022CE0101960E941F
:1049E0001A1DCE0107960E941A1D80910302909114
:1049F0000402BC0106960E94C02208C068E671E06D
:104A000080910302909104020E947C220E941C1754
:104A100080911C02811106C010931B0200931A02A0
:104A2000F0921C028AE192E00E94ED190E94B41CEF
:104A300068CEEFEAF2E01382128288EE93E0A0E003
:104A4000B0E084839583A683B7832CE331E0318380
:104A5000208325EC30E03587248724EC30E037874D
:104A6000268720EC30E0318B208B21EC30E0338B3B
:104A7000228B22EC30E0358B248B26EC30E0378B18
:104A8000268B118E128E138E148EECE4F3E01382BB
:104A9000128284839583A683B7838AE591E091830C
:104AA00080830895BB27FB015527AA27880F991FEC
:104AB000AA1FA41710F0A41B83955051B9F7A05D4D
:104AC000AA3308F0A95DA193009779F7B111B193CA
:104AD0001192CB010C946C25DC01FC01672F7191C4
:104AE0007723E1F7329704C07C916D9370836291D4
:104AF000AE17BF07C8F308952F923F924F925F926F
:104B00006F927F928F929F92AF92BF92CF92DF92DD
:104B1000EF92FF920F931F93CF93DF93CDB7DEB742
:104B2000CA1BDB0B0FB6F894DEBF0FBECDBF0994D6
:104B30002A88398848885F846E847D848C849B842D
:104B4000AA84B984C884DF80EE80FD800C811B813B
:104B5000AA81B981CE0FD11D0FB6F894DEBF0FBE6A
:104B6000CDBFED010895A1E21A2EAA1BBB1BFD01CA
:104B70000DC0AA1FBB1FEE1FFF1FA217B307E4073C
:104B8000F50720F0A21BB30BE40BF50B661F771F94
:104B9000881F991F1A9469F7609570958095909574
:104BA0009B01AC01BD01CF010895EE0FFF1F0590E1
:104BB000F491E02D09940F931F93CF93DF938230EC
:104BC000910510F482E090E0E0915A03F0915B03CC
:104BD00020E030E0A0E0B0E0309719F14081518151
:104BE0000281138148175907C8F08417950769F4A3
:104BF000109731F012960C93129713961C9327C0BE
:104C000000935A0310935B0322C02115310519F05C
:104C10004217530718F49A01BD01EF01DF01F801B3
:104C2000DBCF21153105F9F0281B390B2430310574
:104C300080F48A819B816115710521F0FB019383CA
:104C4000828304C090935B0380935A03FE013296E3
:104C500044C0FE01E20FF31F81939193225031096A
:104C6000398328833AC02091580330915903232B6C
:104C700041F42091020130910301309359032093B4
:104C8000580320910001309101012115310541F4B3
:104C90002DB73EB74091040150910501241B350BFF
:104CA000E0915803F0915903E217F307A0F42E1B8B
:104CB0003F0B2817390778F0AC014E5F5F4F241780
:104CC000350748F04E0F5F1F509359034093580328
:104CD0008193919302C0E0E0F0E0CF01DF91CF91AA
:104CE0001F910F910895CF93DF93009709F481C02E
:104CF000FC01329713821282A0915A03B0915B0398
:104D0000109781F420813181820F931F20915803E5
:104D1000309159032817390751F5F0935903E0935F
:104D2000580367C0ED0120E030E0CE17DF0740F404
:104D30004A815B819E0141155105F1F0EA01F5CFF1
:104D4000D383C28340815181840F951FC817D9072F
:104D500059F488819981840F951F029691838083ED
:104D60008A819B81938382832115310529F4F093F5
:104D70005B03E0935A033DC0E901FB83EA83499159
:104D80005991C40FD51FEC17FD0761F48081918103
:104D9000840F951F0296E90199838883828193810C
:104DA0009B838A83E0E0F0E012968D919C911397AB
:104DB000009719F0FD01DC01F7CF8D919C911197BF
:104DC0009D012E5F3F4F820F931F2091580330911A
:104DD00059032817390769F4309729F410925B03B7
:104DE00010925A0302C013821282B0935903A09307
:104DF0005803DF91CF910895A0E0B0E0E2E0F7E240
:104E00000C948025EC01009721F4CB010E94DB2556
:104E1000B4C0FC01E60FF71F9C0122503109E217D4
:104E2000F30708F4A8C0D9010D911C91119706173A
:104E30001707B0F00530110508F49BC0C8010497AE
:104E40008617970708F495C002501109061B170B27
:104E5000019311936D937C93CF010E94732689C0B7
:104E60005B01A01AB10A4C01800E911EA0915A0359
:104E7000B0915B03612C712CE12CF12C109709F49B
:104E800046C08D919C911197A815B905B1F56C019B
:104E900042E0C40ED11CCA14DB0478F14C018A181C
:104EA0009B08640142E0C40ED11C1296BC9012977C
:104EB0001396AC91B5E0CB16D10440F0B282A38337
:104EC00091828082D9016D937C9309C00E5F1F4F40
:104ED000800F911FF90191838083EB2DFA2FE1144C
:104EE000F10431F0D7011396FC93EE93129741C071
:104EF000F0935B03E0935A033CC06816790608F40C
:104F00003C017D0112960D90BC91A02DB7CF8091F0
:104F100058039091590388169906E1F466167706AE
:104F2000C8F48091000190910101009741F48DB780
:104F30009EB74091040150910501841B950BE81721
:104F4000F907C8F4F0935903E0935803F90171830A
:104F500060830FC0CB010E94DB257C01009759F0D4
:104F6000A801BE010E94C727CE010E947326C70177
:104F700004C0CE0102C080E090E0CDB7DEB7EEE025
:104F80000C949C2581E090E0F8940C94DE27FB01C2
:104F9000DC0102C001900D9241505040D8F70895B5
:104FA000DC0101C06D9341505040E0F70895FB01D2
:104FB000DC0101900D920020E1F70895F894FFCFF5
:104FC00000005C038000000000007411B21B051794
:104FD0000417290FA10E4B1623163F16331652162F
:104FE000A10EE70F1215E51029116C15C8105B1002
:104FF000FC0F00000000ED1900000000451CB21B72
:10500000DC1B921C0D1CEB1BFF1B00000000BE1CD8
:10501000B21B0517041700000000FA0ECD0E05178D
:0A502000A10EC50EB10EA20E000095
:107800000C94343C0C94513C0C94513C0C94513CE1
:107810000C94513C0C94513C0C94513C0C94513CB4
:107820000C94513C0C94513C0C94513C0C94513CA4
:107830000C94513C0C94513C0C94513C0C94513C94
:107840000C94513C0C94513C0C94513C0C94513C84
:107850000C94513C0C94513C0C94513C0C94513C74
:107860000C94513C0C94513C11241FBECFEFD8E036
:10787000DEBFCDBF11E0A0E0B1E0ECE9FFE702C060
:1078800005900D92A230B107D9F712E0A2E0B1E065
:1078900001C01D92AD30B107E1F70E942D3D0C945F
:1078A000CC3F0C94003C982F959595959595959582
:1078B000905D8F708A307CF0282F295A8091C0000B
:1078C00085FFFCCF9093C6008091C00085FFFCCF60
:1078D0002093C6000895282F205DF0CF982F809127
:1078E000C00085FFFCCF9093C6000895EF92FF92F1
:1078F0000F931F93EE24FF2487018091C00087FD22
:1079000017C00894E11CF11C011D111D81E4E8164B
:1079100082E4F8068FE0080780E0180770F3E09132
:107920000401F091050109958091C00087FFE9CF1E
:107930008091C6001F910F91FF90EF9008950E94D3
:10794000763C982F8091C00085FFFCCF9093C600B5
:1079500091362CF490330CF09053892F089597555D
:10796000892F08951F930E949F3C182F0E949F3CCF
:107970001295107F810F1F9108951F93182F882350
:1079800021F00E94763C1150E1F71F9108951F935A
:10799000182F0E94763C803249F0809103018F5F5E
:1079A000809303018530C1F01F9108958091C0003C
:1079B00085FFFCCF84E18093C6008091C00085FFE5
:1079C000FCCF1093C6008091C00085FFFCCF80E102
:1079D0008093C6001F910895E0910401F091050184
:1079E00009951F9108950E94763C803241F0809164
:1079F00003018F5F80930301853081F008958091AA
:107A0000C00085FFFCCF84E18093C6008091C00058
:107A100085FFFCCF80E18093C6000895E0910401CA
:107A2000F09105010995089540E951E08823A1F0FE
:107A30002D9A28EE33E0FA013197F1F721503040CA
:107A4000D1F72D9828EE33E0FA013197F1F7215064
:107A50003040D1F7815061F708953F924F925F9285
:107A60006F927F928F929F92AF92BF92CF92DF924E
:107A7000EF92FF920F931F93CF93DF93000080E16B
:107A80008093C4001092C50088E18093C10086E015
:107A90008093C2005098589A259A81E00E94143D24
:107AA00024E1F22E9EE1E92E85E9D82E0FE0C02ECA
:107AB00010E1B12EAA24A394B1E49B2EA6E58A2E50
:107AC000F2E57F2EE0E26E2E79E4572E63E5462E36
:107AD00050E5352E0E94763C8033B1F18133B9F107
:107AE000803409F46FC0813409F476C0823409F41B
:107AF00085C0853409F488C0803531F1823521F1A3
:107B0000813511F1853509F485C0863509F48DC0BC
:107B1000843609F496C0843709F403C1853709F423
:107B200072C1863709F466C0809103018F5F80932C
:107B30000301853079F6E0910401F0910501099582
:107B40000E94763C803351F60E94F33CC3CF0E94E2
:107B5000763C803249F78091C00085FFFCCFF092DF
:107B6000C6008091C00085FFFCCF9092C600809136
:107B7000C00085FFFCCF8092C6008091C00085FFC9
:107B8000FCCF7092C6008091C00085FFFCCF609250
:107B9000C6008091C00085FFFCCF5092C600809146
:107BA000C00085FFFCCF4092C6008091C00085FFD9
:107BB000FCCF3092C6008091C00085FFFCCFB09210
:107BC000C60088CF0E94763C863808F4BDCF0E945C
:107BD000763C0E94F33C7ECF0E94763C803809F4CC
:107BE0009CC0813809F40BC1823809F43CC1883942
:107BF00009F48FC080E00E94C73C6CCF84E10E94F2
:107C0000BD3C0E94F33C66CF85E00E94BD3C0E94D3
:107C1000F33C60CF0E94763C809306010E94763C44
:107C2000809307010E94F33C55CF0E94763C80333D
:107C300009F41DC183E00E94BD3C80E00E94C73C66
:107C400049CF0E94763C809309020E94763C809343
:107C5000080280910C028E7F80930C020E94763C79
:107C6000853409F415C18091080290910902892B8D
:107C700089F000E010E00E94763CF801E85FFE4FDA
:107C800080830F5F1F4F80910802909109020817AF
:107C9000190788F30E94763C803209F045CF809125
:107CA0000C0280FF01C16091060170910701660F0F
:107CB000771F7093070160930601A0910802B091AD
:107CC00009021097C9F0E8E0F1E09B01AD014E0F09
:107CD0005F1FF999FECF32BD21BD819180BDFA9A17
:107CE000F99A2F5F3F4FE417F50799F76A0F7B1F4B
:107CF00070930701609306018091C00085FFFCCF5F
:107D0000F092C6008091C00085FFFCCFB092C60003
:107D1000E1CE83E00E94C73CDDCE82E00E94C73CFA
:107D2000D9CE0E94763C809309020E94763C8093D3
:107D300008028091060190910701880F991F909386
:107D40000701809306010E94763C853409F4A6C0A1
:107D500080910C028E7F80930C020E94763C8032D0
:107D600009F0B8CE8091C00085FFFCCFF092C6002C
:107D7000609108027091090261157105B9F140E046
:107D800050E080910C02A82FA170B82FB27011C0E2
:107D9000BB2309F45CC0E0910601F0910701319624
:107DA000F0930701E09306014F5F5F4F46175707B7
:107DB000E8F4AA2369F3F999FECF209106013091E6
:107DC000070132BD21BDF89A90B58091C00085FFB2
:107DD000FCCF9093C6002F5F3F4F30930701209355
:107DE00006014F5F5F4F4617570718F38091C00099
:107DF00085FDE5CE8091C00085FFF8CFE0CE81E023
:107E00000E94C73C67CE0E94763C803209F08CCE3F
:107E10008091C00085FFFCCFF092C6008091C00029
:107E200085FFFCCFE092C6008091C00085FFFCCFAB
:107E3000D092C6008091C00085FFFCCFC092C600E2
:107E40008091C00085FFFCCFB092C60043CEE09188
:107E50000601F091070194918091C00085FFFCCF4D
:107E60009093C6009CCF80E10E94C73C33CE0E9415
:107E7000763C0E94763C182F0E94763C112309F430
:107E800083C0113009F484C08FE00E94C73C22CE29
:107E900080910C02816080930C02E5CE80910C02EF
:107EA000816080930C0259CF809107018823880F4D
:107EB000880B8A2180930B02809106019091070123
:107EC000880F991F90930701809306018091080203
:107ED00080FF09C080910802909109020196909359
:107EE000090280930802F894F999FECF1127E091D6
:107EF0000601F0910701C8E0D1E08091080290915D
:107F00000902103091F40091570001700130D9F34B
:107F100003E000935700E89500915700017001308D
:107F2000D9F301E100935700E89509901990009169
:107F3000570001700130D9F301E000935700E89534
:107F40001395103498F011270091570001700130FB
:107F5000D9F305E000935700E895009157000170B0
:107F60000130D9F301E100935700E895329602976A
:107F700009F0C7CF103011F00296E5CF112480919F
:107F8000C00085FFB9CEBCCE8EE10E94C73CA2CD19
:0C7F900085E90E94C73C9ECDF894FFCF0D
:027F9C00800063
:040000030000780081
:00000001FF