:100000000C94BD020C94E5020C94E5020C94E502FC
:100010000C94E5020C94E5020C94E5020C94E502C4
:100020000C94E5020C94E5020C94E5020C94E502B4
:100030000C94E5020C94E5020C94E5020C94E502A4
:100040000C94B7090C94E5020C942B0F0C94050F3B
:100050000C94E5020C94E5020C94E5020C94E50284
:100060000C94010A0C94E502000103070F1F3F7F67
:100070000080C0E0F0F8FCFE00000000003E5B4F96
:100080005B3E3E6B4F6B3E1C3E7C3E1C183C7E3CF8
:10009000181C577D571C1C5E7F5E1C00183C180006
:1000A000FFE7C3E7FF0018241800FFE7DBE7FF3096
:1000B000483A060E2629792926407F050507407F04
:1000C00005253F5A3CE73C5A7F3E1C1C08081C1C77
:1000D0003E7F14227F22145F5F005F5F06097F016D
:1000E0007F006689956A606060606094A2FFA29458
:1000F00008047E040810207E201008082A1C080826
:100100001C2A08081E101010100C1E0C1E0C303873
:100110003E3830060E3E0E06000000000000005F74
:1001200000000007000700147F147F14242A7F2A90
:100130001223130864623649562050000807030052
:10014000001C2241000041221C002A1C7F1C2A089E
:10015000083E080800807030000808080808000001
:1001600060600020100804023E5149453E00427F75
:10017000400072494949462141494D331814127FC4
:100180001027454545393C4A494931412111090764
:100190003649494936464949291E000014000000E5
:1001A00040340000000814224114141414140041B7
:1001B00022140802015909063E415D594E7C121174
:1001C000127C7F494949363E414141227F414141AC
:1001D0003E7F494949417F090909013E4141517327
:1001E0007F0808087F00417F41002040413F017F98
:1001F000081422417F404040407F021C027F7F0460
:1002000008107F3E4141413E7F090909063E4151A8
:10021000215E7F09192946264949493203017F0198
:10022000033F4040403F1F2040201F3F4038403F99
:10023000631408146303047804036159494D4300AF
:100240007F4141410204081020004141417F0402E6
:10025000010204404040404000030708002054547D
:1002600078407F284444383844444428384444285B
:100270007F385454541800087E090218A4A49C78AE
:100280007F0804047800447D40002040403D007F0A
:100290001028440000417F40007C047804787C08EA
:1002A0000404783844444438FC18242418182424BE
:1002B00018FC7C08040408485454542404043F44A3
:1002C000243C4040207C1C2040201C3C4030403CD2
:1002D00044281028444C9090907C4464544C440032
:1002E0000836410000007700000041360800020196
:1002F0000204023C2623263C1EA1A161123A404082
:10030000207A3854545559215555794122545478FE
:1003100042215554784020545579400C1E52721297
:100320003955555559395454545939555454580020
:1003300000457C410002457D420001457C407D1224
:1003400011127DF0282528F07C5455450020545486
:100350007C547C0A097F4932494949323A44444431
:100360003A324A4848303A4141217A3A424020786C
:10037000009DA0A07D3D4242423D3D4040403D3C6D
:1003800024FF2424487E4943662B2FFC2F2BFF0992
:1003900029F620C0887E0903205454794100004486
:1003A0007D413048484A32384040227A007A0A0A71
:1003B000727D0D19317D2629292F282629292926E4
:1003C00030484D4020380808080808080808382F29
:1003D00010C8ACBA2F102834FA00007B00000814B3
:1003E0002A142222142A14085500550055AA55AA89
:1003F00055AAFF55FF55FF000000FF00101010FF29
:1004000000141414FF001010FF00FF1010F010F083
:10041000141414FC001414F700FF0000FF00FF1474
:1004200014F404FC141417101F10101F101F1414C0
:10043000141F00101010F0000000001F101010100A
:100440001F10101010F010000000FF1010101010FE
:1004500010101010FF10000000FF140000FF00FF3C
:1004600000001F10170000FC04F4141417101714D8
:1004700014F404F40000FF00F714141414141414FA
:10048000F700F7141414171410101F101F1414146D
:10049000F4141010F010F000001F101F0000001FD7
:1004A00014000000FC140000F010F01010FF10FF0A
:1004B000141414FF141010101F00000000F010FF9F
:1004C000FFFFFFFFF0F0F0F0F0FFFFFF0000000083
:1004D00000FFFF0F0F0F0F0F3844443844FC4A4A07
:1004E0004A347E02020606027E027E0263554941BC
:1004F000633844443C04407E201E2006027E0202F3
:1005000099A5E7A5991C2A492A1C4C7201724C3006
:100510004A4D4D303048784830BC625A463D3E49DD
:100520004949007E0101017E2A2A2A2A2A44445F81
:10053000444440514A444040444A51400000FF0175
:1005400003E080FF000008086B6B08361236243683
:10055000060F090F060000181800000010100030E8
:1005600040FF0101001F01011E00191D1712003C70
:100570003C3C3C00000000005D0F11241FBECFEF8B
:10058000D8E0DEBFCDBF11E0A0E0B1E0EAEBF4E2DD
:1005900002C005900D92A635B107D9F722E0A6E575
:1005A000B1E001C01D92A13EB207E1F712E0CDEB30
:1005B000D2E004C02197FE010E942F11CC3BD1074D
:1005C000C9F70E94960F0C945B120C940000FC017A
:1005D000538D448D252F30E0842F90E0821B930BA8
:1005E000541710F0CF96089501970895FC01918D4E
:1005F000828D981761F0828DDF01A80FB11D5D9685
:100600008C91928D9F5F9F73928F90E008958FEFF2
:100610009FEF0895FC01918D828D981731F0828DA6
:10062000E80FF11D858D90E008958FEF9FEF0895FD
:10063000FC01918D228D892F90E0805C9F4F821B61
:1006400091098F739927089580E090E0892B29F014
:100650000E94560B81110C940000089585ED809343
:10066000BC008091BC0084FDFCCF1092BF010895B6
:1006700040919B01262F30E0240F311D213231059E
:10068000DCF42091BF012430C9F4FC0180E090E04B
:10069000861758F430919B012191DC01A558BE4F7B
:1006A000A30FB11D2C930196F3CF80919B01680F8E
:1006B00060939B0180E0089581E0089582E00895B1
:1006C0008FEF9FEF08958FEF9FEF089580917A014C
:1006D00090E09195819591090895CF92DF92EF92E4
:1006E000FF920F931F93CF93DF937C01CB018A017D
:1006F00020917901222389F0EB016B01C40ED51EF4
:10070000CC15DD0569F06991D701ED91FC9101905F
:10071000F081E02DC7010995F3CF642F0E943803C3
:10072000C801DF91CF911F910F91FF90EF90DF9063
:10073000CF900895CF93DF931F92CDB7DEB7698333
:10074000209179012223D1F020917801203240F0CC
:1007500021E030E0FC013383228380E090E015C08B
:1007600080917701E82FF0E0E95AFE4F998190835C
:100770008F5F809377018093780105C061E0CE019F
:1007800001960E94380381E090E00F90DF91CF91B5
:1007900008951F93CF93DF93EC01162F8C8D9D8DC1
:1007A000892BB1F02EA93FA948AD59AD60E074E2A4
:1007B00084EF90E00E940D11DA01C9014097A10970
:1007C000B109B695A795979587958093B8000FC006
:1007D0008A8D9B8D892B21F09CA98DA99CBD8DBDF7
:1007E000EEA5FFA590818BA98095892380831111A7
:1007F00002C016EA01C017EA8C8D9D8D009709F49E
:100800006FC028A131E030937901209356011092F6
:10081000770110927801DC01ED91FC910190F0815B
:10082000E02D60E009958C8D9D8DDC01ED91FC91B2
:100830000190F081E02D612F0995209178012132FE
:1008400008F047C08091BF018111FCCF8091560113
:1008500092E09093BF0191E09093C1019FEF90933C
:10086000BE011092E3012093E201E7E5F1E0A2EC82
:10087000B1E090E0291721F031913D939F5FFACFCD
:100880001092E4019091E401880F892B8093E40198
:100890008091C001813061F41092C0018091E40127
:1008A0008093BB008091BC0083FDF8CF85EC01C034
:1008B00085EE8093BC008091BF018230E1F380918E
:1008C000BE018F3F31F08091BE01803211F08091E6
:1008D000BE0110927701109278011092790133C015
:1008E000ECA5FDA590818AA98095892380838A8DB6
:1008F0009B8D892B39F01EBD00000DB407FEFDCF86
:100900008EB521C028E030E090E8E8A5F9A588A9D7
:10091000412F492319F04081842B03C040818095E9
:1009200084238083EAA5FBA5408189A9842B808349
:10093000EAA5FBA5408189A98095842380839695AB
:100940002150310911F78C8D9D8D892BB1F02AAD85
:100950003BAD4CAD5DAD60E074E284EF90E00E9491
:100960000D11DA01C9014097A109B109B695A79502
:10097000979587958093B80006C0EEA5FFA5908156
:100980008BA9892B8083DF91CF911F910895FC0162
:1009900077FDB9C080859185681779070CF0B3C0E1
:1009A00057FDB1C082859385481759070CF008950B
:1009B0008589823079F484819581DC01A61BB70B8F
:1009C000BD016150710986819781DC01A41BB50BC3
:1009D000AD010EC0833009F084C064277527CA01B9
:1009E000862797276827792746815781481B590B07
:1009F000415051092130310531F048F122303105A3
:100A000009F44AC00895CA0157FD07969C01A3E066
:100A100035952795AA95E1F7A481B5812A9FC00154
:100A20002B9F900D3A9F900D1124680F791F068C13
:100A3000F78DE02DE60FF71F4770552781E090E016
:100A400001C0880F4A95EAF79081892B48C0CA01F6
:100A500057FD07969C0193E0359527959A95E1F708
:100A6000A481B5812A9FC0012B9F900D3A9F900DC4
:100A70001124680F791F068CF78DE02DE60FF71F04
:100A80004770552781E090E001C0880F4A95EAF74A
:100A900080959081892323C0CA0157FD07969C0148
:100AA00083E0359527958A95E1F7A481B5812A9F42
:100AB000C0012B9F900D3A9F900D1124680F791F54
:100AC000068CF78DE02DE60FF71F4770552781E064
:100AD00090E001C0880F4A95EAF7908189278083CA
:100AE0000895813009F086CF642775274627572758
:100AF0006427752784819581DC01A61BB70BBD0196
:100B00006150710977CF08950895FC016370658B7A
:100B10008481958126813781613039F0633029F0F5
:100B2000918780873387228708953187208793872D
:100B3000828708956F927F928F929F92AF92BF9219
:100B4000CF92DF92EF92FF920F931F93CF93DF9399
:100B5000EC014B015A0169013801E881F9810284F5
:100B6000F385E02D0995E881F9810288F389E02D6C
:100B700087019601A501B401CE010995A501460D95
:100B8000571D41505109E881F9810288F389E02D10
:100B90009601B401CE010995E881F9810088F189B7
:100BA000E02D9301A501B401CE010995C80CD91C13
:100BB000B60161507109E881F9810088F189E02D61
:100BC0009301A501CE010995E881F9810688F7898D
:100BD000E02DCE01DF91CF911F910F91FF90EF900B
:100BE000DF90CF90BF90AF909F908F907F906F904D
:100BF00009948F929F92AF92BF92CF92DF92EF9221
:100C0000FF920F931F93CF93DF934C016B015A0117
:100C1000E901DC01ED91FC916217730781F404177F
:100C2000150724F48B2D5801042F182F0A191B09BE
:100C300098012F5F3F4F048CF58DE02D12C04017B7
:100C4000510709F52617370724F48D2D6901C62FA2
:100C5000D82F9E012C193D092F5F3F4F068CF78D31
:100C6000E02D8701A501B601C4010995DF91CF915F
:100C70001F910F91FF90EF90DF90CF90BF90AF90BA
:100C80009F908F9008950284F385E02D0995D401FB
:100C9000ED91FC910488F589E02D9E01A501B60136
:100CA000C4010995D401ED91FC910688F789E02DE6
:100CB000C401DF91CF911F910F91FF90EF90DF90D2
:100CC000CF90BF90AF909F908F900994EF92FF923A
:100CD0000F931F93DC011A960D911C911B97189688
:100CE0002D913C911997ED91FC9100A0F1A1E02D7F
:100CF0007B0140E050E060E070E009951F910F91AA
:100D0000FF90EF9008954F925F926F927F928F9233
:100D10009F92AF92BF92CF92DF92EF92FF920F938A
:100D20001F93CF93DF936C012B015A0139014801C6
:100D3000DC01ED91FC910284F385E02D0995E2013F
:100D4000640C751CD601ED91FC91C615D7055CF4B9
:100D50000088F189E02D87019401A501BE01C6013B
:100D600009952196EFCF0688F789E02DC601DF911E
:100D7000CF911F910F91FF90EF90DF90CF90BF9098
:100D8000AF909F908F907F906F905F904F9009945D
:100D90008F929F92AF92BF92CF92DF92EF92FF928B
:100DA0000F931F93CF93DF93EC015B014A0169011D
:100DB000E881F9810284F385E02D099595012C0DD8
:100DC0003D1D21503109E881F9810488F589E02D24
:100DD00078018401A401B501CE010995E881F9816A
:100DE0000688F789E02DCE01DF91CF911F910F91F9
:100DF000FF90EF90DF90CF90BF90AF909F908F903B
:100E000009948F929F92AF92BF92CF92DF92EF920E
:100E1000FF920F931F93CF93DF93EC015B014A0185
:100E200069017801E881F9810284F385E02D099553
:100E3000C80CD91C860101501109E881F981048888
:100E4000F589E02D9501A401B501CE010995E88150
:100E5000F9810688F789E02DCE01DF91CF911F91AE
:100E60000F91FF90EF90DF90CF90BF90AF909F9049
:100E70008F900994EF92FF920F931F93DC01ED91F5
:100E8000FC9100A0F1A1E02D09951F910F91FF9019
:100E9000EF9008950F931F93DC01ED91FC91068C68
:100EA000F78DE02D09951F910F9108950F931F93D2
:100EB000DC01ED91FC91048CF58DE02D09951F91DD
:100EC0000F910895DC01ED91FC910084F185E02DF6
:100ED00009942F923F924F925F926F927F928F92DE
:100EE0009F92AF92BF92CF92DF92EF92FF920F93B9
:100EF0001F93CF93DF9300D000D000D0CDB7DEB7E3
:100F00002C017E836D836A015901C801FC82EB824A
:100F10004801841A950A97FE03C091948194910820
:100F200035012D813E81621A730A77FE03C07194E8
:100F300061947108681479045CF43A2D2B2D5C01DE
:100F4000832F922F3D812E81DE82CD82C32ED22E21
:100F5000AD81BE81AA16BB065CF43C2D2D2D6C0123
:100F6000832F922F3D812E81BE82AD82A32EB22E81
:100F700085012D813E81021B130B1C012C183D089D
:100F800037FE03C0319421943108780117FF03C064
:100F90003FEFE31AF30AF594E794C816D9062CF04C
:100FA0008FEF9FEF9A83898304C0A1E0B0E0BA83FA
:100FB000A9832D813E81A216B30624F1D201ED91C1
:100FC000FC910484F585E02D2B813C816814790423
:100FD00024F44D815E81B60103C0A6016D817E813E
:100FE000C2010995E218F308F7FE06C029813A818B
:100FF000C20ED31EE00EF11E8D819E8101969E834E
:101000008D83D7CF26960FB6F894DEBF0FBECDBF27
:10101000DF91CF911F910F91FF90EF90DF90CF90D4
:10102000BF90AF909F908F907F906F905F904F9008
:101030003F902F900895089580E090E008950E94D9
:1010400056120F931F93CF93DF93DC015596EC91CB
:101050005597E23071F0E330E9F0E13079F5FB01CA
:1010600014960D90BC91A02DA41BB50BA21BB30B25
:1010700018C0EC01EC81FD81E61BF70BBF0161504C
:101080007109EE81FF81DF01A41BB50BAD01421B8D
:10109000530B14C0DA01EC01EE81FF81E61BF70B64
:1010A0003197F7FD0DC0EC014E815F81E417F50724
:1010B0003CF4AF01BD010E94E90D02C00E94500E38
:1010C000DF91CF911F910F9108950F931F93DC0132
:1010D0005596EC915597E23061F0E33009F1E1303B
:1010E00081F51496ED91FC911597E41BF50B319762
:1010F00023C0DC011496ED91FC911597DF01A61B2E
:10110000B70BBD01DC011696ED91FC911797DF013D
:10111000A41BB50BAD0141505109621B730B11C0EB
:10112000FA01DC0116964D915C911797DA01A61B26
:10113000B70BBD01621B730BAB01BF010E94500EC8
:101140000CC057FD0AC0DC011696ED91FC91179773
:101150004E175F0714F40E94E90D1F910F91089537
:10116000AF92BF92CF92EF92FF920F931F93CF93C4
:10117000DF93EC01262F888D998D009709F040C0F0
:101180006A3059F41D861C862C898E859F8538E02F
:10119000239F800D911D112441C06D3009F4AAC018
:1011A0008E898823C1F03C898C859D8546E0349FDB
:1011B000800D911D112448855985481759075CF405
:1011C0001D861C868E859F8548E0349F800D911D6D
:1011D00011249F878E87EA88FB88088919894E85A4
:1011E0005F856C857D85CC88CE010E94CF0B2C89D4
:1011F0008C859D8536E0239F800D911D112442C072
:101200006A3079F41D861C862C89FC013696E4919F
:101210008E859F852E9F800D911D11249F878E871F
:1012200069C06D3009F466C0FC01349634916317CF
:1012300008F460C03196E491E61708F45BC0FC0145
:10124000329665917491422F50E0431B510937E06B
:10125000349F5001359FB00C1124A60EB71EF50126
:10126000329634913196E491332311F0E1110DC09F
:10127000F5013496E4912C898C859D85E29F800D43
:10128000911D11249D878C8735C0F50135964491B9
:101290005E89552311F16C89E32FF0E0E40FF11D15
:1012A00047FDFA956E9FD0016F9FB00D11244C85BC
:1012B0005D854A0F5B1FE885F985E417F5076CF437
:1012C0001D861C86FC013696E4918E859F856E9F57
:1012D000800D911D11249F878E87EA88FB880889DD
:1012E00019894E855F856C857D85CC88CE010E94ED
:1012F000CF0BBECF81E090E0DF91CF911F910F9196
:10130000FF90EF90CF90BF90AF9008958AE091E06A
:101310009093EF018093EE0180910C0290910D0269
:10132000009711F00C94CD110895FC01848DDF011C
:10133000A80FB11DA35ABF4F2C91848D90E0019648
:101340008F739927848FA689B7892C93A089B18937
:101350008C91837080648C93938D848D981306C0D8
:101360000288F389E02D80818F7D808308951F920C
:101370000F920FB60F9211242F933F938F939F9349
:10138000AF93BF938091EA019091EB01A091EC01A2
:10139000B091ED013091E90123E0230F2D3720F4C6
:1013A0000196A11DB11D05C026E8230F0296A11DBF
:1013B000B11D2093E9018093EA019093EB01A09382
:1013C000EC01B093ED018091E5019091E601A091CF
:1013D000E701B091E8010196A11DB11D8093E501DF
:1013E0009093E601A093E701B093E801BF91AF911C
:1013F0009F918F913F912F910F900FBE0F901F9053
:1014000018951F920F920FB60F9211242F933F93AE
:101410004F935F936F937F938F939F93AF93BF93FC
:10142000EF93FF938091B900887F803609F49CC0C8
:1014300068F5883209F45BC090F4803109F454C037
:1014400038F4882309F4F2C0883009F44DC0F2C0A2
:10145000883109F44CC0803209F45DC0EBC080349F
:1014600009F468C048F4803309F455C0883309F0A2
:10147000E1C08093BE01D4C0803509F44FC08835E7
:1014800009F45DC0883409F0D5C0D2C0883909F4A8
:10149000C3C0A8F4883709F467C038F4883609F463
:1014A00063C0803709F460C0C5C0883809F4B4C08F
:1014B000803909F45FC0803809F0BCC05BC0803B54
:1014C00009F484C038F4803A09F466C0883A09F413
:1014D0007DC0B0C0803C09F4A3C0883C09F4A0C022
:1014E000883B09F486C0A6C08091E40110C09091A9
:1014F000E3018091E201981770F5E091E30181E04A
:101500008E0F8093E301F0E0EE53FE4F80818093D5
:10151000BB0085EC82C08093BE018AC0E091E301EC
:1015200081E08E0F8093E3018091BB00F0E0EE53E9
:10153000FE4F80839091E3018091E2016AC0E091C7
:10154000E30181E08E0F8093E3018091BB00F0E026
:10155000EE53FE4F80838091C101811169C081E00B
:101560008093C00184EA5DC083E08093BF01109244
:10157000BD01CFCF8091BD01803208F04DC0E09118
:10158000BD0181E08E0F8093BD018091BB00F0E032
:10159000E356FE4F8083BDCF85EC8093BC00109254
:1015A000BF018091BD01803230F4E091BD01F0E0D7
:1015B000E356FE4F10826091BD0170E08DE991E02D
:1015C000E0E0F0E009951092BD0134C084E0809322
:1015D000BF0110929C0110929B01E0E0F0E00995A0
:1015E00080919B01811105C081E080939B01109245
:1015F0007B01E0919C0181E08E0F80939C01F0E0E3
:10160000E558FE4F80818093BB0090919C018091B2
:101610009B01981708F47DCF85E88093BC000AC031
:1016200085EC8093BC001092BF0104C01092BE01F3
:101630000E942E03FF91EF91BF91AF919F918F91E7
:101640007F916F915F914F913F912F910F900FBEBE
:101650000F901F9018950895CF92DF92EF92FF920E
:101660000F931F93CF93DF936C017A018B01C0E03E
:10167000D0E0CE15DF0581F0D8016D918D01D60146
:10168000ED91FC910190F081E02DC6010995892B27
:1016900011F02196EECF7E01C701DF91CF911F910E
:1016A0000F91FF90EF90DF90CF90089584E392E048
:1016B0000E94180321E0892B09F420E0822F08956D
:1016C000EF92FF920F931F93CF93DF93EC0181E092
:1016D000888F9B8D8C8D981305C0E889F98980814E
:1016E00085FD26C0F62E0B8D10E00F5F1F4F0F7388
:1016F0001127E02E8C8DE8120CC00FB607FCFACF34
:10170000E889F989808185FFF5CFCE010E9495098E
:10171000F1CF8B8DFE01E80FF11DE35AFF4FF082F0
:101720009FB7F8940B8FEA89FB89808180620AC099
:101730009FB7F894EE89FF896083E889F9898081F1
:101740008370806480839FBF81E090E0DF91CF91C0
:101750001F910F91FF90EF900895CF93DF93EC01CD
:10176000888D8823C9F0EA89FB89808185FD05C0C1
:10177000A889B9898C9186FD0FC00FB607FCF5CFFB
:10178000808185FFF2CFA889B9898C9185FFEDCF43
:10179000CE010E949509E7CFDF91CF9108952F9256
:1017A0003F924F925F926F927F928F929F92AF92F1
:1017B000BF92CF92DF92EF92FF920F931F93CF933E
:1017C000DF93CDB7DEB76B970FB6F894DEBF0FBED1
:1017D000CDBF9B8F8A8F5B011A01D22E1F830E8390
:1017E0003701C982DC0158962D913C9159972115FA
:1017F000310509F0E6C018968D919C9119976817EC
:1018000079070CF0CDC11A968D919C911B974817C2
:1018100059070CF0C5C18C2C912CFB0126E0C29E0F
:10182000E00DF11D1124FB87EA871E161F060CF040
:10183000B7C1A40183E0440F551F8A95E1F75D8786
:101840004C87CA01820D931D181619060CF0A8C109
:1018500057968C91811104C05FEA5D1508F4D3940A
:10186000AA8DBB8DED91FC9111970284F385E02D3B
:10187000CD010995B5E0DB9EC0011124F501359637
:10188000FF87EE87BB82AA8225019C012A193B09AA
:10189000398B288BA101485F5F4F5B8B4A8BE889AE
:1018A000F989E40DF51DE858FF4F549158876101FF
:1018B0003D822C82888580FF13C0AA8DBB8DED915F
:1018C000FC91B981B13031F40484F585E02D2E818D
:1018D0003F8116C00684F785E02DEE80FF801AC098
:1018E000EE81FF81E615F705F1F0AA8DBB8DED9134
:1018F000FC91B981B13051F40484F585E02D930158
:10190000A601B2018A8D9B8D09950DC00684F785CD
:10191000E02D7301840194014C815D816A817B819A
:101920008A8D9B8D0995E885E695E887FFEFCF1AAC
:10193000DF0A2C813D81280D391D3D832C834A8986
:101940005B89C416D50609F0B5CF5FEF451A550A75
:101950008A819B81880D991D9B838A83AE85BF8573
:101960004A165B0609F09BCFEE81FF81E615F7056D
:1019700009F4F4C0EA8DFB8DA081B181F981F130C9
:1019800079F4B5016B5F7F4F5096ED91FC915197C3
:10199000830128E030E0A1018A8D9B8D0995DEC08E
:1019A0006A857B85681979091E96ED91FC911F97D0
:1019B00073010C851D859401A1018A8D9B8D09956C
:1019C000CDC0F9013496E491DE1AF9013296859181
:1019D0009491B7E0DB9E800D911D1124F9012591B2
:1019E00034913B8B2A8BFC01259134912901FC0118
:1019F0003296C490319634913E8732961491319646
:101A0000D4904981423058F0612E012E000C7708A5
:101A10008D2D0D2C000C990B9987888704C0198691
:101A20001886612C712CAA8DBB8DED91FC911197BC
:101A30000284F385E02DCD010995B9818B2E912C7F
:101A4000689CC001699C900D789C900D1124FC014C
:101A5000EA0DFB1DFD87EC871A82712C612CE12FAA
:101A6000110FFF0B95012E0F3F1F3B872A87AC0CF0
:101A7000B11CA5014E0F5F1F5F8B4E8BC1018D0DF9
:101A8000911DD7FC9A95998F888F9E85691608F0CD
:101A900065C0862D90E048855985480F591F489D9F
:101AA0009001499D300D589D300D1124D101A20F98
:101AB000B31FB98BA88BEC85FD85FD83EC83AA84CD
:101AC000BB84DA80FA85DF1A288D398D280F391FFB
:101AD0003D8B2C8B8D2D8A0D4E895F89A416B50602
:101AE000C1F1877041F4C2010196EA89FB89E40DD6
:101AF000F51D74902C0177FE21C0AA8DBB8DED9150
:101B0000FC91B981B13061F40484F585E02D2E811A
:101B10003F814C895D89B5018A8D9B8D09950EC0E9
:101B20000684F785E02DEE80FF80840194014889CA
:101B300059896C817D818A8D9B8D0995770CEFEF9A
:101B4000AE1ABE0A2C813D81280D391D3D832C83A0
:101B5000C1CF3A813C0D3A83639497CFAA8DBB8D58
:101B6000ED91FC9111970688F789E02DCD016B96D8
:101B70000FB6F894DEBF0FBECDBFDF91CF911F919E
:101B80000F91FF90EF90DF90CF90BF90AF909F901C
:101B90008F907F906F905F904F903F902F9009941F
:101BA0006B960FB6F894DEBF0FBECDBFDF91CF911D
:101BB0001F910F91FF90EF90DF90CF90BF90AF906B
:101BC0009F908F907F906F905F904F903F902F905D
:101BD00008950F931F93CF93DF9377FF04C0260FD1
:101BE000371F60E070E0DC011496CD91DC91159711
:101BF000FB01E20FF31FCE17DF071CF49E01261B2B
:101C0000370B121613060CF046C0FA0157FD379633
:101C1000DF01E3E0B595A795EA95E1F7AC9FF00108
:101C2000AD9FF00DBC9FF00D11246E0F7F1FDC01E6
:101C30005E96ED91FC915F97E60FF71F4770552771
:101C400081E090E001C0880F4A95EAF7482F013003
:101C5000110539F078F002301105E9F42E0F3F1F1D
:101C600013C02E0F3F1FE217F307A9F08081842BCA
:101C70008193F9CF80952E0F3F1FE217F30759F09C
:101C8000908198239193F9CFE217F30721F0808197
:101C900084278193F9CFDF91CF911F910F91089500
:101CA000EF92FF920F931F93CF93DF93EC0177FD99
:101CB000A5C0EC80FD806E157F050CF09FC057FF1E
:101CC00004C0240F351F40E050E08E819F81FA014F
:101CD000E20FF31F8E179F071CF49C01241B350B8A
:101CE000121613060CF08AC0922F842F86958695C3
:101CF00086958E9DD0018F9DB00D11246A0F7B1F9C
:101D0000AE8DBF8DA60FB71F4770B1F188E0841B61
:101D1000482F682F70E0FB01E059FF4FE49128172E
:101D200098F4621B71092FEF30E002C035952795BA
:101D30006A95E2F7E2230130110549F078F00230AC
:101D4000110509F05BC00EC00130110519F48C912A
:101D5000E82B0AC00130110508F049C0E0958C91CC
:101D6000E82302C08C91E827EC93941708F446C04E
:101D70002C813D81A20FB31FE92FE41BE830F8F05E
:101D80000230110561F48E2F9C9190959C932C81CB
:101D90003D81A20FB31F88508830B0F70FC081E09B
:101DA0000115110509F480E081959E2F8C932C81FB
:101DB0003D81A20FB31F98509830C0F7E770EE2313
:101DC000E9F0F0E0E859FF4FE4910130110539F0F6
:101DD00048F00230110591F48C91E82706C08C91EF
:101DE000E82B03C0E0958C91E823EC9307C0023008
:101DF000110509F4B7CFAE0DBF1DBECFDF91CF9156
:101E00001F910F91FF90EF9008951F920F920FB6C0
:101E10000F9211242F933F934F935F936F937F9370
:101E20008F939F93AF93BF93EF93FF9384E392E0DD
:101E30000E949509FF91EF91BF91AF919F918F9172
:101E40007F916F915F914F913F912F910F900FBEB6
:101E50000F901F9018951F920F920FB60F9211249A
:101E60002F938F939F93EF93FF93E0914402F09110
:101E700045028081E0914A02F0914B0282FD12C03E
:101E8000908180914D028F5F8F7320914E02821757
:101E900051F0E0914D02F0E0EC5CFD4F958F8093A6
:101EA0004D0201C08081FF91EF919F918F912F9101
:101EB0000F900FBE0F901F901895E4E3F2E013828D
:101EC000128288EE93E0A0E0B0E084839583A6833D
:101ED000B78326E331E03183208325EC30E035877A
:101EE000248724EC30E03787268720EC30E0318BE4
:101EF000208B21EC30E0338B228B22EC30E0358BD1
:101F0000248B26EC30E0378B268B118E128E138EAD
:101F1000148EE1EDF2E01382128284839583A6830E
:101F2000B78388E491E0918380830895CF93DF9312
:101F3000CDB7DEB72D970FB6F894DEBF0FBECDBF7D
:101F4000789484B5826084BD84B5816084BD85B594
:101F5000826085BD85B5816085BD80916E008160A0
:101F600080936E0010928100809181008260809346
:101F70008100809181008160809381008091800048
:101F80008160809380008091B10084608093B10073
:101F90008091B00081608093B00080917A0084606D
:101FA00080937A0080917A00826080937A00809199
:101FB0007A00816080937A0080917A0080688093B3
:101FC0007A001092C100E0914402F091450282E053
:101FD0008083E0914002F09141021082E091420240
:101FE000F091430280E1808310924C02E09148021C
:101FF000F091490286E08083E0914602F091470229
:10200000808180618083E0914602F0914702808167
:1020100088608083E0914602F09147028081806869
:102020008083E0914602F091470280818F7D80831A
:10203000C090F001D090F1010091F2011091F301F4
:10204000198708870091F4011091F5012091F6019C
:102050003091F7013C872B87A091F801B091F901ED
:1020600020900302E091FA01F091FB016091FC01E4
:102070007091FD01309002024091000250910102E6
:102080002091FE013091FF01409004025090050222
:10209000E0900602F09007028091EE019091EF012E
:1020A0009B838A83609008027090090280900A02E4
:1020B00090900B02A0900C02B0900D029091110232
:1020C0009983809112028C83909113029D83809159
:1020D00014028F83909115029E83809122028A8739
:1020E000909123029D8780912C02811136C01D861C
:1020F00000E50A871FEF1E832FEF2F833FEF3D83FD
:102100008FEF8C839FEF9983A12CB12C81ED882ECA
:1021100082E0982E612C712C0AE011E01B830A8367
:10212000E12CF12C512C442443942FEF3FEF4FEF3F
:102130005FEF3324339460E070E0E0E0F0E0212CC6
:10214000A0E2B0E080E890E09C878B8700E210E09E
:1021500099878887C12CD12C81E080932C02D09262
:10216000F101C092F001888599859093F3018093E5
:10217000F2011093F5010093F4010B851C85109377
:10218000F7010093F601B093F901A093F8012092B2
:102190000302F093FB01E093FA017093FD01609359
:1021A000FC013092020250930102409300023093EE
:1021B000FF012093FE014092040250920502F0922A
:1021C0000702E09206022A813B813093EF012093BF
:1021D000EE01709209026092080290920B028092C6
:1021E0000A02B0920D02A0920C02398130931102C2
:1021F0008C81809312029D81909313020F81009332
:1022000014021E81109315022A85209322023D8517
:10221000309323020E9424030BCFA1E21A2EAA1BA3
:10222000BB1BFD010DC0AA1FBB1FEE1FFF1FA21786
:10223000B307E407F50720F0A21BB30BE40BF50B83
:10224000661F771F881F991F1A9469F7609570950C
:10225000809590959B01AC01BD01CF010895EE0FD3
:10226000FF1F0590F491E02D09940F931F93CF93D6
:10227000DF938230910510F482E090E0E091DF027C
:10228000F091E00220E030E0A0E0B0E0309719F1FA
:10229000408151810281138148175907C8F0841782
:1022A000950769F4109731F012960C9312971396D4
:1022B0001C9327C00093DF021093E00222C0211577
:1022C000310519F04217530718F49A01BD01EF01C7
:1022D000DF01F801DBCF21153105F9F0281B390B9F
:1022E0002430310580F48A819B816115710521F0CC
:1022F000FB019383828304C09093E0028093DF020A
:10230000FE01329644C0FE01E20FF31F81939193C8
:1023100022503109398328833AC02091DD0230915F
:10232000DE02232B41F4209102013091030130930E
:10233000DE022093DD022091000130910101211580
:10234000310541F42DB73EB740910401509105018C
:10235000241B350BE091DD02F091DE02E217F3075A
:10236000A0F42E1B3F0B2817390778F0AC014E5F05
:102370005F4F2417350748F04E0F5F1F5093DE0262
:102380004093DD028193919302C0E0E0F0E0CF0141
:10239000DF91CF911F910F910895CF93DF93009715
:1023A00009F481C0FC01329713821282A091DF02EE
:1023B000B091E002109781F420813181820F931F48
:1023C0002091DD023091DE022817390751F5F09394
:1023D000DE02E093DD0267C0ED0120E030E0CE17C1
:1023E000DF0740F44A815B819E0141155105F1F000
:1023F000EA01F5CFD383C28340815181840F951FB9
:10240000C817D90759F488819981840F951F0296BE
:10241000918380838A819B819383828321153105F7
:1024200029F4F093E002E093DF023DC0E901FB8371
:10243000EA8349915991C40FD51FEC17FD0761F448
:1024400080819181840F951F0296E9019983888389
:10245000828193819B838A83E0E0F0E012968D91E4
:102460009C911397009719F0FD01DC01F7CF8D9136
:102470009C9111979D012E5F3F4F820F931F2091DA
:10248000DD023091DE022817390769F4309729F40C
:102490001092E0021092DF0202C013821282B09307
:1024A000DE02A093DD02DF91CF91089581E090E0FC
:0A24B000F8940C945B12F894FFCF2F
:1024BA000000E102800000000000B0082C0B1C089C
:1024CA001B08C7042B0B62073A0756074A07690716
:1024DA002B0B8505C9032108650883066606F905DD
:1024EA009A0500000000600B2C0BE702AD0B1803E5
:1024FA00F6020A03000000009A036D031C082B0B66
:06250A0066036303600399
:00000001FF
