:100000000C9435000C945D000C945D000C945D0024
:100010000C945D000C945D000C945D000C945D00EC
:100020000C945D000C945D000C945D000C945D00DC
:100030000C945D000C945D000C945D000C945D00CC
:100040000C94AA020C945D000C9478020C94520259
:100050000C945D000C945D000C945D000C945D00AC
:100060000C94F4020C945D001E0411241FBECFEF0B
:10007000D8E0DEBFCDBF22E0AEE2B1E001C01D920C
:10008000AF34B207E1F711E0A0E0B1E0E4E0FDE059
:1000900002C005900D92AE32B107D9F710E0C5E36A
:1000A000D0E004C02197FE010E945405C433D1075B
:1000B000C9F70E9457040C9480060C940000CF925C
:1000C000DF92EF92FF920F931F93CF93DF936C0118
:1000D0007A018B01C0E0D0E0CE15DF0581F0D801B8
:1000E0006D918D01D601ED91FC910190F081E02D93
:1000F000C6010995892B11F02196EECF7E01C7012B
:10010000DF91CF911F910F91FF90EF90DF90CF90F3
:100110000895FC01538D448D252F30E0842F90E00D
:10012000821B930B541710F0CF96089501970895F2
:10013000FC01918D828D981761F0828DDF01A80FEF
:10014000B11D5D968C91928D9F5F9F73928F90E011
:1001500008958FEF9FEF0895FC01918D828D981780
:1001600031F0828DE80FF11D858D90E008958FEFBD
:100170009FEF0895FC01918D228D892F90E0805C86
:100180009F4F821B91098F739927089582EA91E00E
:100190000E94BA0021E0892B09F420E0822F089503
:1001A000FC01848DDF01A80FB11DA35ABF4F2C9114
:1001B000848D90E001968F739927848FA689B789E3
:1001C0002C93A089B1898C91837080648C93938DDA
:1001D000848D981306C00288F389E02D80818F7D7D
:1001E00080830895EF92FF920F931F93CF93DF9335
:1001F000EC0181E0888F9B8D8C8D981305C0E88978
:10020000F989808185FD26C0F62E0B8D10E00F5FE9
:100210001F4F0F731127E02E8C8DE8120CC00FB604
:1002200007FCFACFE889F989808185FFF5CFCE01F7
:100230000E94D000F1CF8B8DFE01E80FF11DE35A33
:10024000FF4FF0829FB7F8940B8FEA89FB8980817A
:1002500080620AC09FB7F894EE89FF896083E889BD
:10026000F98980818370806480839FBF81E090E002
:10027000DF91CF911F910F91FF90EF900895CF9351
:10028000DF93EC01888D8823C9F0EA89FB8980819E
:1002900085FD05C0A889B9898C9186FD0FC00FB670
:1002A00007FCF5CF808185FFF2CFA889B9898C91B1
:1002B00085FFEDCFCE010E94D000E7CFDF91CF9137
:1002C000089580E090E0892B29F00E94C6008111FA
:1002D0000C940000089585ED8093BC008091BC00D3
:1002E00084FDFCCF10927301089540914F01262F99
:1002F00030E0240F311D21323105DCF420917301EF
:100300002430C9F4FC0180E090E0861758F4309165
:100310004F012191DC01A15DBE4FA30FB11D2C93B4
:100320000196F3CF80914F01680F60934F0180E0F9
:10033000089581E0089582E0089508958FEF9FEF7A
:1003400008958FEF9FEF089580912E0190E0919591
:10035000819591090895CF93DF93CB01EA01642F32
:100360000E947501CE01DF91CF910895CF93DF9365
:100370001F92CDB7DEB7698361E0CE0101960E947E
:10038000750181E090E00F90DF91CF91089508957D
:1003900080E090E008958F929F92AF92BF920F936A
:1003A0001F93CF93DF93CDB7DEB7A1970FB6F89425
:1003B000DEBF0FBECDBF19A2423008F44AE08E0165
:1003C0000F5D1F4F842E912CA12CB12CA5019401FF
:1003D0000E943205E62FB901CA0101501109EA3025
:1003E00014F4E05D01C0E95CD801EC93232B242BCD
:1003F000252B61F70115110571F0F801019000201E
:10040000E9F73197AF01401B510BB80182EA91E047
:100410000E945F0002C080E090E0A1960FB6F894C1
:10042000DEBF0FBECDBFDF91CF911F910F91BF9067
:10043000AF909F908F9008950E947B06EF92FF925D
:100440000F931F93CF93DF93EC018B01CB01880FA8
:10045000991F0E945A057C0169817A81FC0120E084
:1004600030E08B819C81261737076CF4A901440F7B
:10047000551FDC01A40FB51F8D919C918193919321
:100480002F5F3F4FEECF009711F00E94F205EB82F5
:10049000FC821E830D83DF91CF911F910F91FF90FE
:1004A000EF9008951F920F920FB60F9211242F9381
:1004B0003F934F935F936F937F938F939F93AF93EC
:1004C000BF93EF93FF9382EA91E00E94D000FF91E7
:1004D000EF91BF91AF919F918F917F916F915F91BC
:1004E0004F913F912F910F900FBE0F901F90189535
:1004F0001F920F920FB60F9211242F938F939F93F9
:10050000EF93FF93E091B201F091B3018081E0910C
:10051000B801F091B90182FD12C090818091BB01B8
:100520008F5F8F732091BC01821751F0E091BB0166
:10053000F0E0EE55FE4F958F8093BB0101C08081A6
:10054000FF91EF919F918F912F910F900FBE0F9080
:100550001F9018951F920F920FB60F9211242F9390
:100560003F938F939F93AF93BF9380919E01909100
:100570009F01A091A001B091A10130919D0123E0C4
:10058000230F2D3720F40196A11DB11D05C026E8CB
:10059000230F0296A11DB11D20939D0180939E0102
:1005A00090939F01A093A001B093A1018091990124
:1005B00090919A01A0919B01B0919C010196A11D7F
:1005C000B11D8093990190939A01A0939B01B093E0
:1005D0009C01BF91AF919F918F913F912F910F906F
:1005E0000FBE0F901F9018951F920F920FB60F928B
:1005F00011242F933F934F935F936F937F938F9328
:100600009F93AF93BF93EF93FF938091B900887F3F
:10061000803609F49CC068F5883209F45BC090F418
:10062000803109F454C038F4882309F4F2C08830CA
:1006300009F44DC0F2C0883109F44CC0803209F48D
:100640005DC0EBC0803409F468C048F4803309F41D
:1006500055C0883309F0E1C080937201D4C0803561
:1006600009F44FC0883509F45DC0883409F0D5C05D
:10067000D2C0883909F4C3C0A8F4883709F467C028
:1006800038F4883609F463C0803709F460C0C5C007
:10069000883809F4B4C0803909F45FC0803809F0A3
:1006A000BCC05BC0803B09F484C038F4803A09F4D4
:1006B00066C0883A09F47DC0B0C0803C09F4A3C08C
:1006C000883C09F4A0C0883B09F486C0A6C080918C
:1006D000980110C09091970180919601981770F53C
:1006E000E091970181E08E0F80939701F0E0EA5846
:1006F000FE4F80818093BB0085EC82C080937201A5
:100700008AC0E091970181E08E0F809397018091DC
:10071000BB00F0E0EA58FE4F8083909197018091F2
:1007200096016AC0E091970181E08E0F8093970156
:100730008091BB00F0E0EA58FE4F80838091750104
:10074000811169C081E08093740184EA5DC083E017
:100750008093730110927101CFCF8091710180322B
:1007600008F04DC0E091710181E08E0F809371011E
:100770008091BB00F0E0EF5AFE4F8083BDCF85EC47
:100780008093BC001092730180917101803230F42B
:10079000E0917101F0E0EF5AFE4F1082609171011B
:1007A00070E081E591E0E0E0F0E0099510927101E0
:1007B00034C084E0809373011092500110924F0175
:1007C000E0E0F0E0099580914F01811105C081E0E2
:1007D00080934F0110922F01E091500181E08E0F24
:1007E00080935001F0E0E15DFE4F80818093BB007B
:1007F0009091500180914F01981708F47DCF85E8C2
:100800008093BC000AC085EC8093BC0010927301F9
:1008100004C0109272010E946B01FF91EF91BF9191
:10082000AF919F918F917F916F915F914F913F9188
:100830002F910F900FBE0F901F901895E2EAF1E0F4
:100840001382128288EE93E0A0E0B0E08483958367
:10085000A683B7832AE031E03183208325EC30E0A2
:100860003587248724EC30E03787268720EC30E07A
:10087000318B208B21EC30E0338B228B22EC30E06B
:10088000358B248B26EC30E0378B268B118E128E25
:10089000138E148EEFE3F2E0138212828483958329
:1008A000A683B7838CE191E0918380830895CF93F1
:1008B000DF93CDB7DEB727970FB6F894DEBF0FBE34
:1008C000CDBF789484B5826084BD84B5816084BDD9
:1008D00085B5826085BD85B5816085BD80916E00DE
:1008E000816080936E00109281008091810082600F
:1008F000809381008091810081608093810080914C
:1009000080008160809380008091B100846080933A
:10091000B1008091B00081608093B00080917A0036
:10092000846080937A0080917A00826080937A005C
:1009300080917A00816080937A0080917A0080684B
:1009400080937A001092C100E091B201F091B3015E
:1009500082E08083E091AE01F091AF011082E091DE
:10096000B001F091B10180E180831092BA01E09171
:10097000B601F091B70186E08083E091B401F09177
:10098000B501808180618083E091B401F091B5016F
:10099000808188608083E091B401F091B50180810D
:1009A00080688083E091B401F091B50180818F7DF2
:1009B00080831B821A828E819F8197FF06C060E030
:1009C00070E0CE0101960E941E028E819F810097E9
:1009D00019F464E070E00BC02A813B818217930711
:1009E00051F4BC01660F771F8617970724F4CE01D8
:1009F00001960E941E02EA81FB81EE0FFF1F8C818F
:100A00009D81E80FF91F81E690E091838083CA8081
:100A1000DB808FEFC81AD80ADB82CA820D2C000C4B
:100A2000EE08FF08F7FE0EC06DE282EA91E00E9438
:100A3000F20066277727CB016C197D098E099F0983
:100A40004AE003C04AE0C701B6010E94CB0142E080
:100A500050E06AE271E082EA91E00E945F000E9449
:100A60006101FDCFA1E21A2EAA1BBB1BFD010DC027
:100A7000AA1FBB1FEE1FFF1FA217B307E407F5074E
:100A800020F0A21BB30BE40BF50B661F771F881F2A
:100A9000991F1A9469F760957095809590959B01C0
:100AA000AC01BD01CF010895EE0FFF1F0590F49139
:100AB000E02D09940F931F93CF93DF93823091051C
:100AC00010F482E090E0E0914D02F0914E0220E0BF
:100AD00030E0A0E0B0E0309719F14081518102810F
:100AE000138148175907C8F08417950769F41097C0
:100AF00031F012960C93129713961C9327C0009313
:100B00004D0210934E0222C02115310519F04217F3
:100B1000530718F49A01BD01EF01DF01F801DBCFA3
:100B200021153105F9F0281B390B2430310580F4EB
:100B30008A819B816115710521F0FB01938382837A
:100B400004C090934E0280934D02FE01329644C041
:100B5000FE01E20FF31F81939193225031093983F3
:100B600028833AC020914B0230914C02232B41F450
:100B7000209102013091030130934C0220934B02EB
:100B800020910001309101012115310541F42DB76B
:100B90003EB74091040150910501241B350BE091B3
:100BA0004B02F0914C02E217F307A0F42E1B3F0B0F
:100BB0002817390778F0AC014E5F5F4F24173507CF
:100BC00048F04E0F5F1F50934C0240934B028193AD
:100BD000919302C0E0E0F0E0CF01DF91CF911F914F
:100BE0000F910895CF93DF93009709F481C0FC0122
:100BF000329713821282A0914D02B0914E0210974B
:100C000081F420813181820F931F20914B0230911A
:100C10004C022817390751F5F0934C02E0934B0230
:100C200067C0ED0120E030E0CE17DF0740F44A81D5
:100C30005B819E0141155105F1F0EA01F5CFD383A7
:100C4000C28340815181840F951FC817D90759F479
:100C500088819981840F951F0296918380838A8170
:100C60009B81938382832115310529F4F0934E02F1
:100C7000E0934D023DC0E901FB83EA83499159911C
:100C8000C40FD51FEC17FD0761F480819181840F9B
:100C9000951F0296E90199838883828193819B83C2
:100CA0008A83E0E0F0E012968D919C911397009773
:100CB00019F0FD01DC01F7CF8D919C9111979D01F9
:100CC0002E5F3F4F820F931F20914B0230914C02B9
:100CD0002817390769F4309729F410924E021092C0
:100CE0004D0202C013821282B0934C02A0934B02B9
:100CF000DF91CF91089581E090E0F8940C94800604
:040D0000F894FFCF95
:100D040000004F02800000000000F2005F00890034
:100D14003F01BA009800AC0000000000B601AB012E
:0E0D2400C8019D01A401A1019E010D0A00005D
:107800000C94343C0C94513C0C94513C0C94513CE1
:107810000C94513C0C94513C0C94513C0C94513CB4
:107820000C94513C0C94513C0C94513C0C94513CA4
:107830000C94513C0C94513C0C94513C0C94513C94
:107840000C94513C0C94513C0C94513C0C94513C84
:107850000C94513C0C94513C0C94513C0C94513C74
:107860000C94513C0C94513C11241FBECFEFD8E036
:10787000DEBFCDBF11E0A0E0B1E0ECE9FFE702C060
:1078800005900D92A230B107D9F712E0A2E0B1E065
:1078900001C01D92AD30B107E1F70E942D3D0C945F
:1078A000CC3F0C94003C982F959595959595959582
:1078B000905D8F708A307CF0282F295A8091C0000B
:1078C00085FFFCCF9093C6008091C00085FFFCCF60
:1078D0002093C6000895282F205DF0CF982F809127
:1078E000C00085FFFCCF9093C6000895EF92FF92F1
:1078F0000F931F93EE24FF2487018091C00087FD22
:1079000017C00894E11CF11C011D111D81E4E8164B
:1079100082E4F8068FE0080780E0180770F3E09132
:107920000401F091050109958091C00087FFE9CF1E
:107930008091C6001F910F91FF90EF9008950E94D3
:10794000763C982F8091C00085FFFCCF9093C600B5
:1079500091362CF490330CF09053892F089597555D
:10796000892F08951F930E949F3C182F0E949F3CCF
:107970001295107F810F1F9108951F93182F882350
:1079800021F00E94763C1150E1F71F9108951F935A
:10799000182F0E94763C803249F0809103018F5F5E
:1079A000809303018530C1F01F9108958091C0003C
:1079B00085FFFCCF84E18093C6008091C00085FFE5
:1079C000FCCF1093C6008091C00085FFFCCF80E102
:1079D0008093C6001F910895E0910401F091050184
:1079E00009951F9108950E94763C803241F0809164
:1079F00003018F5F80930301853081F008958091AA
:107A0000C00085FFFCCF84E18093C6008091C00058
:107A100085FFFCCF80E18093C6000895E0910401CA
:107A2000F09105010995089540E951E08823A1F0FE
:107A30002D9A28EE33E0FA013197F1F721503040CA
:107A4000D1F72D9828EE33E0FA013197F1F7215064
:107A50003040D1F7815061F708953F924F925F9285
:107A60006F927F928F929F92AF92BF92CF92DF924E
:107A7000EF92FF920F931F93CF93DF93000080E16B
:107A80008093C4001092C50088E18093C10086E015
:107A90008093C2005098589A259A81E00E94143D24
:107AA00024E1F22E9EE1E92E85E9D82E0FE0C02ECA
:107AB00010E1B12EAA24A394B1E49B2EA6E58A2E50
:107AC000F2E57F2EE0E26E2E79E4572E63E5462E36
:107AD00050E5352E0E94763C8033B1F18133B9F107
:107AE000803409F46FC0813409F476C0823409F41B
:107AF00085C0853409F488C0803531F1823521F1A3
:107B0000813511F1853509F485C0863509F48DC0BC
:107B1000843609F496C0843709F403C1853709F423
:107B200072C1863709F466C0809103018F5F80932C
:107B30000301853079F6E0910401F0910501099582
:107B40000E94763C803351F60E94F33CC3CF0E94E2
:107B5000763C803249F78091C00085FFFCCFF092DF
:107B6000C6008091C00085FFFCCF9092C600809136
:107B7000C00085FFFCCF8092C6008091C00085FFC9
:107B8000FCCF7092C6008091C00085FFFCCF609250
:107B9000C6008091C00085FFFCCF5092C600809146
:107BA000C00085FFFCCF4092C6008091C00085FFD9
:107BB000FCCF3092C6008091C00085FFFCCFB09210
:107BC000C60088CF0E94763C863808F4BDCF0E945C
:107BD000763C0E94F33C7ECF0E94763C803809F4CC
:107BE0009CC0813809F40BC1823809F43CC1883942
:107BF00009F48FC080E00E94C73C6CCF84E10E94F2
:107C0000BD3C0E94F33C66CF85E00E94BD3C0E94D3
:107C1000F33C60CF0E94763C809306010E94763C44
:107C2000809307010E94F33C55CF0E94763C80333D
:107C300009F41DC183E00E94BD3C80E00E94C73C66
:107C400049CF0E94763C809309020E94763C809343
:107C5000080280910C028E7F80930C020E94763C79
:107C6000853409F415C18091080290910902892B8D
:107C700089F000E010E00E94763CF801E85FFE4FDA
:107C800080830F5F1F4F80910802909109020817AF
:107C9000190788F30E94763C803209F045CF809125
:107CA0000C0280FF01C16091060170910701660F0F
:107CB000771F7093070160930601A0910802B091AD
:107CC00009021097C9F0E8E0F1E09B01AD014E0F09
:107CD0005F1FF999FECF32BD21BD819180BDFA9A17
:107CE000F99A2F5F3F4FE417F50799F76A0F7B1F4B
:107CF00070930701609306018091C00085FFFCCF5F
:107D0000F092C6008091C00085FFFCCFB092C60003
:107D1000E1CE83E00E94C73CDDCE82E00E94C73CFA
:107D2000D9CE0E94763C809309020E94763C8093D3
:107D300008028091060190910701880F991F909386
:107D40000701809306010E94763C853409F4A6C0A1
:107D500080910C028E7F80930C020E94763C8032D0
:107D600009F0B8CE8091C00085FFFCCFF092C6002C
:107D7000609108027091090261157105B9F140E046
:107D800050E080910C02A82FA170B82FB27011C0E2
:107D9000BB2309F45CC0E0910601F0910701319624
:107DA000F0930701E09306014F5F5F4F46175707B7
:107DB000E8F4AA2369F3F999FECF209106013091E6
:107DC000070132BD21BDF89A90B58091C00085FFB2
:107DD000FCCF9093C6002F5F3F4F30930701209355
:107DE00006014F5F5F4F4617570718F38091C00099
:107DF00085FDE5CE8091C00085FFF8CFE0CE81E023
:107E00000E94C73C67CE0E94763C803209F08CCE3F
:107E10008091C00085FFFCCFF092C6008091C00029
:107E200085FFFCCFE092C6008091C00085FFFCCFAB
:107E3000D092C6008091C00085FFFCCFC092C600E2
:107E40008091C00085FFFCCFB092C60043CEE09188
:107E50000601F091070194918091C00085FFFCCF4D
:107E60009093C6009CCF80E10E94C73C33CE0E9415
:107E7000763C0E94763C182F0E94763C112309F430
:107E800083C0113009F484C08FE00E94C73C22CE29
:107E900080910C02816080930C02E5CE80910C02EF
:107EA000816080930C0259CF809107018823880F4D
:107EB000880B8A2180930B02809106019091070123
:107EC000880F991F90930701809306018091080203
:107ED00080FF09C080910802909109020196909359
:107EE000090280930802F894F999FECF1127E091D6
:107EF0000601F0910701C8E0D1E08091080290915D
:107F00000902103091F40091570001700130D9F34B
:107F100003E000935700E89500915700017001308D
:107F2000D9F301E100935700E89509901990009169
:107F3000570001700130D9F301E000935700E89534
:107F40001395103498F011270091570001700130FB
:107F5000D9F305E000935700E895009157000170B0
:107F60000130D9F301E100935700E895329602976A
:107F700009F0C7CF103011F00296E5CF112480919F
:107F8000C00085FFB9CEBCCE8EE10E94C73CA2CD19
:0C7F900085E90E94C73C9ECDF894FFCF0D
:027F9C00800063
:040000030000780081
:00000001FF