:100000000C9447050C946F050C946F050C946F05C8
:100010000C946F050C946F050C946F050C946F0590
:100020000C946F050C946F050C946F050C946F0580
:100030000C946F050C946F050C946F050C946F0570
:100040000C9400130C946F050C9447120C9421121D
:100050000C946F050C946F050C946F050C946F0550
:100060000C944A130C946F05DB40A4A62EAFDA0261
:1000700081DA1281DA02818F2000A1C8D300408D7D
:10008000AED580A800006000000000000000000065
:100090000000000000E00000000000000000000080
:1000A00000000001E000000000000000000000006F
:1000B000000001F00000000000000000000000004F
:1000C0000003F0000000000000000000000000003D
:1000D00007F0000000000000000000000000000722
:1000E000F8000000000000000000000000000FF811
:1000F00000000003C0007E000001E0007F0FF80058
:10010000000003C000FE000001E000FFEFF8000067
:100110000003C000FE000001E000FFFFF800000047
:1001200003C000F00000000F007FFE7FC00000034E
:10013000C000F00000000F003FFE7FF83FF1FBCF52
:10014000FCFEF3BC3DEFE01FFE7FFF7FFBFFDFFE09
:10015000FEFFBC3DEFE01FC6FFFF7FFBFFDFFEFEA3
:10016000FFBC3DEFE00FE3C7FE787BC3DE1EF0FF70
:10017000BC3DEF0007FF87FC787BC3DE1EF0F83C38
:100180003DEF0001FFFFF0007BC3C01EF0F03C3DDF
:10019000EF0001F37FE03FFBC3CFFEF0F03C3DEF0B
:1001A0000003E33F807FFBC3DFFEF0F03C3DEF0048
:1001B00007E73C00787BC3DE1EF0F03C3DEF000714
:1001C000FFBE00787BC3DE1EF0F03C3DEF0007FF72
:1001D000FE00787BC3DE1EF0F03C3DEF000FFFFE1B
:1001E000007FFBFFDFFEF0F03FFDEFE00FFFFF00C1
:1001F0007FFBFFDFFEF0F03FFDEFE00FF9FF003E79
:1002000079F9CF9EF0F01F3DE7E01FF1FF000000FD
:100210000000000000000000001F80FF007FFFFFC3
:10022000FFFFFFFFFFFFFFE01C007F007FFFFFFFDE
:10023000FEB46D888D18E000001F007FFFFFFFFEF9
:1002400095AD7DB577E000000F007FFFFFFFFEA5B5
:10025000AD9D8D19E0000006007FFFFFFFFEB5ADEC
:10026000EDB57EE00000000000018000000000000D
:1002700000000000038000000000000000000007F4
:10028000C000000000000000000007C000000000E7
:1002900000000000000FC00000000000000000008F
:1002A0001FE00000000000000000001FE000000050
:1002B0000000000000003FE000000000000000001F
:1002C000003FF00000000000000000007FF0000090
:1002D00000000000001FF87FF00000000000000098
:1002E0003FFE7FF0000000000000003FFF7FF000B5
:1002F0000000000000001FFFFBE000000000000005
:10030000000FFFF9FFC00000000000000FFFF9FF21
:10031000F800000000000007FFF1FFFF00000000F0
:10032000000003FC73FFFF80000000000001FE3F9F
:10033000FFFF80000000000000FF1E0FFF00000014
:10034000000000007FFE1FFC000000000000003FD6
:10035000FFFFF8000000000000000FDFFFE00000DA
:1003600000000000001F19FFC00000000000000096
:100370003F3CFF00000000000000007E7CF8000011
:100380000000000000007FFE7C0000000000000074
:1003900000FFFFFC0000000000000000FFFFFE0067
:1003A00000000000000000FFFFFE00000000000051
:1003B0000001FFEFFE0000000000000001FFCFFE83
:1003C0000000000000000003FF07FE000000000026
:1003D000000003FC07FE0000000000000003F00323
:1003E000FE00000000000000018000FE0000000090
:1003F0000000000000007E0000000000000000007F
:10040000003E000000000000000000000C000000A2
:10041000000000078000FC000003C000000007800F
:1004200001FC000003C0000000078001FC00000385
:10043000C0000000078001E00000001E000000076F
:100440008001E00000001E007FE3F79FF9FDE778E0
:100450007BDFC0FFF7FFBFFDFDFF787BDFC0FFF74D
:10046000FFBFFDFDFF787BDFC0F0F787BC3DE1FFFC
:10047000787BDE00F0F787BC3DE1F0787BDE0000A2
:10048000F787803DE1E0787BDE007FF7879FFDE125
:10049000E0787BDE00FFF787BFFDE1E0787BDE00E0
:1004A000F0F787BC3DE1E0787BDE00F0F787BC3DEC
:1004B000E1E0787BDE00F0F787BC3DE1E0787BDEB1
:1004C00000FFF7FFBFFDE1E07FFBDFC0FFF7FFBFED
:1004D000FDE1E07FFBDFC07CF3F39F3DE1E03E7B8D
:1004E000CFC00000000000000000000000FFFFFF80
:1004F000FFFFFFFFFFFFFFC0FFFFFFFFFD68DB11F6
:100500001A31C0FFFFFFFFFD2B5AFB6AEFC0FFFF50
:10051000FFFFFD4B5B3B1A33C0FFFFFFFFFD6B5B33
:10052000DB6AFDC02200FF2100000000080002017C
:1005300000000304070000000000000000000103A9
:10054000070F1F3F7F0080C0E0F0F8FCFE000000B6
:1005500000003E5B4F5B3E3E6B4F6B3E1C3E7C3E65
:100560001C183C7E3C181C577D571C1C5E7F5E1C73
:1005700000183C1800FFE7C3E7FF0018241800FF2D
:10058000E7DBE7FF30483A060E2629792926407F27
:10059000050507407F05253F5A3CE73C5A7F3E1C36
:1005A0001C08081C1C3E7F14227F22145F5F005F22
:1005B0005F06097F017F006689956A606060606000
:1005C00094A2FFA29408047E040810207E20100844
:1005D000082A1C08081C2A08081E101010100C1EDF
:1005E0000C1E0C30383E3830060E3E0E0600000061
:1005F000000000005F00000007000700147F147F68
:1006000014242A7F2A122313086462364956205084
:100610000008070300001C2241000041221C002AA0
:100620001C7F1C2A08083E0808008070300008085B
:10063000080808000060600020100804023E5149CC
:10064000453E00427F400072494949462141494D9B
:10065000331814127F1027454545393C4A49493122
:1006600041211109073649494936464949291E00A1
:10067000001400000040340000000814224114144B
:10068000141414004122140802015909063E415D68
:10069000594E7C1211127C7F494949363E414141F5
:1006A000227F4141413E7F494949417F0909090172
:1006B0003E414151737F0808087F00417F4100207F
:1006C00040413F017F081422417F404040407F026B
:1006D0001C027F7F0408107F3E4141413E7F090993
:1006E00009063E4151215E7F09192946264949499B
:1006F0003203017F01033F4040403F1F2040201F45
:100700003F4038403F6314081463030478040361D6
:1007100059494D43007F41414102040810200041E6
:1007200041417F0402010204404040404000030771
:10073000080020545478407F2844443838444444C6
:1007400028384444287F385454541800087E09023D
:1007500018A4A49C787F0804047800447D400020FD
:1007600040403D007F1028440000417F40007C0451
:100770007804787C080404783844444438FC18240D
:10078000241818242418FC7C0804040848545454E1
:100790002404043F44243C4040207C1C2040201C76
:1007A0003C4030403C44281028444C9090907C447D
:1007B00064544C44000836410000007700000041BA
:1007C00036080002010204023C2623263C1EA1A199
:1007D00061123A4040207A38545455592155557980
:1007E0004122545478422155547840205455794040
:1007F0000C1E5272123955555559395454545939A1
:10080000555454580000457C410002457D4200018A
:10081000457C407D1211127DF0282528F07C54552E
:1008200045002054547C547C0A097F493249494987
:10083000323A4444443A324A4848303A4141217AB3
:100840003A42402078009DA0A07D3D4242423D3D7D
:100850004040403D3C24FF2424487E4943662B2FE2
:10086000FC2F2BFF0929F620C0887E090320545451
:1008700079410000447D413048484A3238404022A6
:100880007A007A0A0A727D0D19317D2629292F28CE
:10089000262929292630484D40203808080808080C
:1008A000080808382F10C8ACBA2F102834FA0000F6
:1008B0007B000008142A142222142A14085500551B
:1008C0000055AA55AA55AAFF55FF55FF000000FF85
:1008D00000101010FF00141414FF001010FF00FF90
:1008E0001010F010F0141414FC001414F700FF00A2
:1008F00000FF00FF1414F404FC141417101F101050
:100900001F101F1414141F00101010F0000000001E
:100910001F101010101F10101010F010000000FF1A
:10092000101010101010101010FF10000000FF1415
:100930000000FF00FF00001F10170000FC04F4146B
:10094000141710171414F404F40000FF00F7141423
:100950001414141414F700F7141414171410101F9F
:10096000101F141414F4141010F010F000001F10D5
:100970001F0000001F14000000FC140000F010F025
:100980001010FF10FF141414FF141010101F00009B
:100990000000F010FFFFFFFFFFF0F0F0F0F0FFFFAE
:1009A000FF0000000000FFFF0F0F0F0F0F3844443F
:1009B0003844FC4A4A4A347E02020606027E027E1F
:1009C0000263554941633844443C04407E201E2064
:1009D00006027E020299A5E7A5991C2A492A1C4C09
:1009E0007201724C304A4D4D303048784830BC620C
:1009F0005A463D3E494949007E0101017E2A2A2A84
:100A00002A2A44445F444440514A444040444A51A5
:100A1000400000FF0103E080FF000008086B6B0846
:100A20003612362436060F090F060000181800008B
:100A3000001010003040FF0101001F01011E0019CD
:100A40001D1712003C3C3C3C000000000000000070
:100A500000250028002B0000000000240027002AA9
:100A60000004040404040404040202020202020357
:100A70000303030303010204081020408001020461
:100A8000081020010204081020002E1A4919112410
:100A90001FBECFEFD8E0DEBFCDBF23E0AAE6B1E0B6
:100AA00001C01D92AB35B207E1F711E0A0E0B1E063
:100AB000E6E2FCE302C005900D92AA36B107D9F731
:100AC00015E0C6E4D5E004C02197FE010E94FD1B9D
:100AD000C534D107C9F70E9459190C94061E0C940D
:100AE00000000895E091940180919301E81730F49B
:100AF000F0E0ED58FE4F808190E008958FEF9FEF7A
:100B000008959091940180919301981750F4E92FE2
:100B1000F0E0ED58FE4F208130E09F5F909394010C
:100B200002C02FEF3FEFC90108958091930190E03B
:100B300020919401821B91090895FC0177FDB9C0B1
:100B400080859185681779070CF0B3C057FDB1C057
:100B500082859385481759070CF00895858982305E
:100B600079F484819581DC01A61BB70BBD0161502E
:100B7000710986819781DC01A41BB50BAD010EC004
:100B8000833009F084C064277527CA018627972718
:100B90006827792746815781481B590B41505109D5
:100BA0002130310531F048F12230310509F44AC0D5
:100BB0000895CA0157FD07969C01A3E03595279536
:100BC000AA95E1F7A481B5812A9FC0012B9F900DC2
:100BD0003A9F900D1124680F791F068CF78DE02D38
:100BE000E60FF71F4770552781E090E001C0880F9E
:100BF0004A95EAF79081892B48C0CA0157FD0796AC
:100C00009C0193E0359527959A95E1F7A481B581EC
:100C10002A9FC0012B9F900D3A9F900D1124680FC1
:100C2000791F068CF78DE02DE60FF71F47705527CB
:100C300081E090E001C0880F4A95EAF780959081A5
:100C4000892323C0CA0157FD07969C0183E035958F
:100C500027958A95E1F7A481B5812A9FC0012B9F32
:100C6000900D3A9F900D1124680F791F068CF78D17
:100C7000E02DE60FF71F4770552781E090E001C097
:100C8000880F4A95EAF790818927808308958130FB
:100C900009F086CF642775274627572764277527CD
:100CA00084819581DC01A61BB70BBD0161507109E0
:100CB00077CF089508958EBD00000DB407FEFDCFD7
:100CC0008EB508958CBD9DBD08950895FC01637097
:100CD000658B8481958126813781613039F063305D
:100CE00029F091878087338722870895318720876D
:100CF0009387828708956F927F928F929F92AF928F
:100D0000BF92CF92DF92EF92FF920F931F93CF93F8
:100D1000DF93EC014B015A0169013801E881F98147
:100D20000284F385E02D0995E881F9810288F38931
:100D3000E02D87019601A501B401CE010995A50119
:100D4000460D571D41505109E881F9810288F38908
:100D5000E02D9601B401CE010995E881F981008862
:100D6000F189E02D9301A501B401CE010995C80CCC
:100D7000D91CB60161507109E881F9810088F189B7
:100D8000E02D9301A501CE010995E881F98106883E
:100D9000F789E02DCE01DF91CF911F910F91FF9048
:100DA000EF90DF90CF90BF90AF909F908F907F900B
:100DB0006F9009948F929F92AF92BF92CF92DF92E1
:100DC000EF92FF920F931F93CF93DF934C016B0130
:100DD0005A01E901DC01ED91FC916217730781F47E
:100DE0000417150724F48B2D5801042F182F0A1906
:100DF0001B0998012F5F3F4F048CF58DE02D12C029
:100E00004017510709F52617370724F48D2D69017E
:100E1000C62FD82F9E012C193D092F5F3F4F068CFE
:100E2000F78DE02D8701A501B601C4010995DF9179
:100E3000CF911F910F91FF90EF90DF90CF90BF90D7
:100E4000AF909F908F9008950284F385E02D0995CF
:100E5000D401ED91FC910488F589E02D9E01A50156
:100E6000B601C4010995D401ED91FC910688F7897A
:100E7000E02DC401DF91CF911F910F91FF90EF9072
:100E8000DF90CF90BF90AF909F908F900994EF929A
:100E9000FF920F931F93DC011A960D911C911B97E3
:100EA00018962D913C911997ED91FC9100A0F1A11C
:100EB000E02D7B0140E050E060E070E009951F917B
:100EC0000F91FF90EF9008954F925F926F927F92F3
:100ED0008F929F92AF92BF92CF92DF92EF92FF924A
:100EE0000F931F93CF93DF936C012B015A013901AC
:100EF0004801DC01ED91FC910284F385E02D099518
:100F0000E201640C751CD601ED91FC91C615D70564
:100F10005CF40088F189E02D87019401A501BE01F0
:100F2000C60109952196EFCF0688F789E02DC60105
:100F3000DF91CF911F910F91FF90EF90DF90CF90B5
:100F4000BF90AF909F908F907F906F905F904F90E9
:100F500009948F929F92AF92BF92CF92DF92EF92BD
:100F6000FF920F931F93CF93DF93EC015B014A0134
:100F70006901E881F9810284F385E02D09959501E5
:100F80002C0D3D1D21503109E881F9810488F58936
:100F9000E02D78018401A401B501CE010995E88115
:100FA000F9810688F789E02DCE01DF91CF911F915D
:100FB0000F91FF90EF90DF90CF90BF90AF909F90F8
:100FC0008F9009948F929F92AF92BF92CF92DF92AF
:100FD000EF92FF920F931F93CF93DF93EC015B018E
:100FE0004A0169017801E881F9810284F385E02DE5
:100FF0000995C80CD91C860101501109E881F981B5
:101000000488F589E02D9501A401B501CE0109956B
:10101000E881F9810688F789E02DCE01DF91CF9133
:101020001F910F91FF90EF90DF90CF90BF90AF9006
:101030009F908F900994EF92FF920F931F93DC0182
:10104000ED91FC9100A0F1A1E02D09951F910F9168
:10105000FF90EF9008950F931F93DC01ED91FC91A9
:10106000068CF78DE02D09951F910F9108950F9330
:101070001F93DC01ED91FC91048CF58DE02D099519
:101080001F910F910895DC01ED91FC910084F18591
:10109000E02D09942F923F924F925F926F927F9230
:1010A0008F929F92AF92BF92CF92DF92EF92FF9278
:1010B0000F931F93CF93DF9300D000D000D0CDB714
:1010C000DEB72C017E836D836A015901C801FC8261
:1010D000EB824801841A950A97FE03C0919481948B
:1010E000910835012D813E81621A730A77FE03C093
:1010F000719461947108681479045CF43A2D2B2D75
:101100005C01832F922F3D812E81DE82CD82C32E02
:10111000D22EAD81BE81AA16BB065CF43C2D2D2DCE
:101120006C01832F922F3D812E81BE82AD82A32E32
:10113000B22E85012D813E81021B130B1C012C1840
:101140003D0837FE03C0319421943108780117FF20
:1011500003C03FEFE31AF30AF594E794C816D906E3
:101160002CF08FEF9FEF9A83898304C0A1E0B0E059
:10117000BA83A9832D813E81A216B30624F1D20140
:10118000ED91FC910484F585E02D2B813C81681460
:10119000790424F44D815E81B60103C0A6016D81FE
:1011A0007E81C2010995E218F308F7FE06C0298185
:1011B0003A81C20ED31EE00EF11E8D819E810196F2
:1011C0009E838D83D7CF26960FB6F894DEBF0FBED1
:1011D000CDBFDF91CF911F910F91FF90EF90DF90E6
:1011E000CF90BF90AF909F908F907F906F905F90C7
:1011F0004F903F902F900895089580E090E00895DB
:10120000CF92DF92EF92FF920F931F93CF93DF93D2
:101210007C01CB018A0120912602222389F0EB0177
:101220006B01C40ED51ECC15DD0569F06991D7019F
:10123000ED91FC910190F081E02DC7010995F3CF6C
:10124000642F0E947814C801DF91CF911F910F91F4
:10125000FF90EF90DF90CF900895CF93DF931F9290
:10126000CDB7DEB76983209126022223D1F02091E9
:101270004902203240F021E030E0FC013383228338
:1012800080E090E015C080912702E82FF0E0E85D53
:10129000FD4F998190838F5F80932702809349024D
:1012A00005C061E0CE0101960E94781481E090E0D3
:1012B0000F90DF91CF9108950F931F93CF93DF93FA
:1012C000DC015596EC915597E23071F0E330E9F08E
:1012D000E13079F5FB0114960D90BC91A02DA41B73
:1012E000B50BA21BB30B18C0EC01EC81FD81E61B12
:1012F000F70BBF0161507109EE81FF81DF01A41B73
:10130000B50BAD01421B530B14C0DA01EC01EE81A9
:10131000FF81E61BF70B3197F7FD0DC0EC014E8105
:101320005F81E417F5073CF4AF01BD010E942D1861
:1013300002C00E949418DF91CF911F910F910895E0
:101340000F931F93DC015596EC915597E23061F0B5
:10135000E33009F1E13081F51496ED91FC91159798
:10136000E41BF50B319723C0DC011496ED91FC9141
:101370001597DF01A61BB70BBD01DC011696ED9199
:10138000FC911797DF01A41BB50BAD01415051092A
:10139000621B730B11C0FA01DC0116964D915C9132
:1013A0001797DA01A61BB70BBD01621B730BAB01CC
:1013B000BF010E9494180CC057FD0AC0DC011696AC
:1013C000ED91FC9117974E175F0714F40E942D18AA
:1013D0001F910F910895FC01868197819C01295FDF
:1013E0003F4F37FF02C0295F3F4F83E03595279578
:1013F0008A95E1F784819581289FA001299F500D4E
:10140000389F500D112460E070E0868D978D0C940C
:10141000F81DDF92EF92FF920F931F93CF93DF930C
:10142000EC01D62E072F142F8C8D9D8D009709F47B
:101430004DC028A131E0309326022093480210923B
:10144000270210924902DC01ED91FC910190F0819C
:10145000E02D60E00995ED2CF02E01E0DD24D39421
:101460008C8D9D8D112349F10032B0F00E94421500
:1014700088A1D092260280934802109227021092EF
:1014800049028C8D9D8DDC01ED91FC910190F081E4
:10149000E02D60E0099501E08C8D9D8DF701649150
:1014A000DC01ED91FC910190F081E02D09950F5F39
:1014B0001150F70131967F01D3CFDF91CF911F916A
:1014C0000F91FF90EF90DF900C944215ECA5FDA5D5
:1014D00090818AA9809589238083E62EF72E112397
:1014E00079F1F70184912A8D3B8D232B39F00E94ED
:1014F0005B061150C70101967C01F1CF28E030E076
:1015000040E8E8A5F9A598A9582F542319F050816F
:10151000952B03C05081909595239083EAA5FBA558
:10152000508199A9952B9083EAA5FBA5508199A993
:1015300090959523908346952150310911F7D9CF85
:10154000DF91CF911F910F91FF90EF90DF90089561
:101550001F93CF93DF93FC01848D958D009729F124
:10156000162FEF0120A131E030932602209348028C
:101570001092270210924902DC01ED91FC9101903A
:10158000F081E02D60E009958C8D9D8DDC01ED9161
:10159000FC910190F081E02D612F09958C8D9D8D3E
:1015A000DF91CF911F910C944215A4A5B5A59C91F4
:1015B00082A9809589238C93828D938D892B31F01C
:1015C000862FDF91CF911F910C945B0628E030E0CD
:1015D00080E8A0A5B1A590A9462F482319F04C9109
:1015E000942B03C04C91909594239C93A2A5B3A5F2
:1015F0004C9191A9942B9C93A2A5B3A54C9191A930
:10160000909594239C9386952150310911F7DF9191
:10161000CF911F9108951F93CF93DF93EC01162F65
:101620008C8D9D8D892BB1F02EA93FA948AD59AD68
:1016300060E074E284EF90E00E94DB1BDA01C901F4
:101640004097A109B109B695A7959795879580937D
:10165000B8000FC08A8D9B8D892B21F08CA99DA984
:101660000E946206EEA5FFA590818BA98095892333
:101670008083111102C066EA01C067EACE010E94B0
:10168000A80A8C8D9D8D892BB1F02AAD3BAD4CAD58
:101690005DAD60E074E284EF90E00E94DB1BDA0154
:1016A000C9014097A109B109B695A7959795879566
:1016B0008093B80006C0EEA5FFA590818BA9892B69
:1016C0008083DF91CF911F910895AF92BF92CF9207
:1016D000EF92FF920F931F93CF93DF93EC01262F8E
:1016E000888D998D009709F040C06A3059F41D86A5
:1016F0001C862C898E859F8538E0239F800D911D47
:10170000112441C06D3009F4AAC08E898823C1F02C
:101710003C898C859D8546E0349F800D911D112468
:1017200048855985481759075CF41D861C868E85A7
:101730009F8548E0349F800D911D11249F878E87DF
:10174000EA88FB88088919894E855F856C857D85C7
:10175000CC88CE010E9413162C898C859D8536E09D
:10176000239F800D911D112442C06A3079F41D869B
:101770001C862C89FC013696E4918E859F852E9FD0
:10178000800D911D11249F878E8769C06D3009F4EB
:1017900066C0FC0134963491631708F460C031963A
:1017A000E491E61708F45BC0FC01329665917491F0
:1017B000422F50E0431B510937E0349F5001359FC1
:1017C000B00C1124A60EB71EF50132963491319655
:1017D000E491332311F0E1110DC0F5013496E49149
:1017E0002C898C859D85E29F800D911D11249D87FC
:1017F0008C8735C0F501359644915E89552311F1EA
:101800006C89E32FF0E0E40FF11D47FDFA956E9F20
:10181000D0016F9FB00D11244C855D854A0F5B1F71
:10182000E885F985E417F5076CF41D861C86FC0134
:101830003696E4918E859F856E9F800D911D1124B3
:101840009F878E87EA88FB88088919894E855F857E
:101850006C857D85CC88CE010E941316BECF81E0B9
:1018600090E0DF91CF911F910F91FF90EF90CF907B
:10187000BF90AF9008950F931F93CF9380916B010A
:101880008111BCC210924D0210924C0220E830E04F
:1018900030934F0220934E0280E290E090935102E9
:1018A000809350023093530220935202909355023A
:1018B0008093540210925F021092570210925602C7
:1018C000109259021092580281E080935E022FEF2D
:1018D0003FEF30935D0220935C0230935B022093D4
:1018E0005A02809360021092610210926302109279
:1018F00062028AE091E090934B0280934A02109238
:1019000065021092640287E293E0909367028093ED
:10191000660210926902109268028FEF80936D0246
:1019200080936E0280936F028093700284E08093B4
:10193000710280E580937E0210927F0280E89AE136
:10194000A6E0B0E08093800290938102A09382028F
:10195000B093830280EA96E8A1E0B0E0809384022D
:1019600090938502A0938602B09387021092890219
:10197000109288028091680290916902892B51F43B
:1019800080E092E00E94031C9093690280936802B9
:10199000892B81F38AE492E00E94EB0920915002A6
:1019A0003091510280914E0290914F0221323105C7
:1019B000A4F0B9016054710977FF02C06F5F7F4FD7
:1019C000759567958255910997FD019600E410E0A1
:1019D00022E530E044E652E013C0B90160527109DB
:1019E00077FF02C06F5F7F4F7595679583579109A9
:1019F00097FD019600E210E023E730E044E850E074
:101A0000959587950E94A01482E080936B02809147
:101A1000660290916702892BB9F18CE380936A0288
:101A20001092940110929301109227021092490291
:101A30001092250281E0809324021092FF0161E060
:101A400082E10E94791261E083E10E947912809123
:101A5000B9008E7F8093B9008091B9008D7F80930B
:101A6000B90088E48093B80085E48093BC008DEDD4
:101A700091E190939601809395018EED91E1909381
:101A8000980180939701B6C080916F020E94231540
:101A9000809170020E94231580916F02082E000C25
:101AA000990BFC01EF59F54FE491F0E0EE0FFF1FA9
:101AB000E35BF54F259134913093770220937602C2
:101AC000FC01EB58F54FE491E0937C0280917002A9
:101AD000082E000C990BFC01EF59F54FE491F0E052
:101AE000EE0FFF1FE35BF54FA591B491B093790220
:101AF000A0937802FC01EB58F54FE491E0937D024E
:101B00008C91E82BEC938091640290916502892B73
:101B100089F1CFB7F89480916A01811124C0EBE676
:101B2000FAE08491EFE7FAE09491E82FF0E0EE0F0D
:101B3000FF1FE95AF54FA591B491EC91E92321F4E7
:101B400061E08AE00E9479128AE00E9423158CB538
:101B500080618CBD8CB580648CBD8DE00E942315A6
:101B60008BE00E94231580916A018F5F80936A0148
:101B7000CFBF40C080916D020E94231580916E02FC
:101B80000E94231580916D02082E000C990BFC0118
:101B9000EF59F54FE491F0E0EE0FFF1FE35BF54FD7
:101BA000259134913093730220937202FC01EB581B
:101BB000F54FE491E0937A0280916E02082E000CBA
:101BC000990BFC01EF59F54FE491F0E0EE0FFF1F88
:101BD000E35BF54FA591B491B0937502A0937402A5
:101BE000FC01EB58F54FE491E0937B028C91E0957A
:101BF000E823EC938091710287FD1DC00E9423159C
:101C000061E0809171020E94791261E070E080E0F1
:101C100090E00E94C61260E0809171020E947912E9
:101C20006AE070E080E090E00E94C61261E080917E
:101C300071020E9479128091660290916702892B4D
:101C4000D1F0209180023091810240918202509126
:101C5000830260E074E284EF90E00E94DB1BDA0113
:101C6000C9014097A109B109B695A79597958795A0
:101C70008093B80016C08091640290916502892B10
:101C800031F080917E0290917F020E946206E09185
:101C90007802F0917902908180917D02809589236C
:101CA000808344E060E870E08AE492E00E94090AE0
:101CB0006091500261508AE492E00E94A80A44E0D8
:101CC0006CE770E08AE492E00E94090A80916B025E
:101CD000813011F460E101C064E18AE492E00E9485
:101CE000A80A44E068E770E08AE492E00E94090AEA
:101CF00080914E0290914F028038910509F58091B4
:101D00005002909151028032910541F444E064E721
:101D100070E08AE492E00E94090A2DC080349105A7
:101D200051F543E061E770E08AE492E00E94090A1D
:101D300080916B02813011F46FE919C06FEC17C00C
:101D400080369105C1F480915002909151024097E4
:101D500091F443E06EE670E08AE492E00E94090AA2
:101D600080916B02813011F460E101C06FEA8AE476
:101D700092E00E94A80A69ED8AE492E00E94A80A13
:101D800080916B02813011F462E201C061EF8AE45C
:101D900092E00E94A80A46E068E670E08AE492E0D9
:101DA0000E94090A8091660290916702892BD1F006
:101DB00020918402309185024091860250918702E1
:101DC00060E074E284EF90E00E94DB1BDA01C9015D
:101DD0004097A109B109B695A795979587958093E6
:101DE000B80009C0E0917802F09179029081809169
:101DF0007D02892B808381E080936B018AE492E0ED
:101E0000CF911F910F9108958F929F92AF92BF92A1
:101E1000CF92DF92EF92FF920F931F93CF93DF93B6
:101E20008C010E943B0C0E94EB09D80116966D9123
:101E30007D918D919C9119970E94A51B4B015C018E
:101E4000F80162817381848195810E94A51B6B01D9
:101E50007C010E943B0C21E030E0A401B6010E940D
:101E60009D050E943B0CEC018C8D9D8D892BB1F062
:101E70002EA93FA948AD59AD60E074E284EF90E02F
:101E80000E94DB1BDA01C9014097A109B109B6958F
:101E9000A795979587958093B8000FC08A8D9B8DE5
:101EA000892B21F08CA99DA90E946206EEA5FFA5B1
:101EB00090818BA980958923808345E064E275E059
:101EC000CE010E94090A6C816150CE010E94A80ACD
:101ED0002E813F81C901079697FD079633E09595BE
:101EE00087953A95E1F72C813D81829F6001839F20
:101EF000D00C929FD00C1124EE8CFF8C8C8D9D8D7C
:101F0000CE0CDF1C009709F447C028A131E03093C4
:101F10002602209348021092270210924902DC0107
:101F2000ED91FC910190F081E02D60E4099557015D
:101F3000FF24F394EE24E3948C8D9D8DCA14DB046E
:101F400041F1BFE1BF15B8F40E94421588A1E092AB
:101F500026028093480210922702109249028C8D2B
:101F60009D8DDC01ED91FC910190F081E02D60E40C
:101F70000995FF24F3948C8D9D8DF50161915F018E
:101F8000DC01ED91FC910190F081E02D0995F39435
:101F9000D3CF0E94421535C0ECA5FDA590818AA93A
:101FA000892B8083EC14FD0461F1F70181917F019D
:101FB0002A8D3B8D232B19F00E945B06F3CF28E07E
:101FC00030E040E8E8A5F9A598A9582F542319F066
:101FD0005081952B03C05081909595239083EAA55D
:101FE000FBA5508199A9952B9083EAA5FBA550816B
:101FF00099A990959523908346952150310911F721
:10200000D1CF8C8D9D8D892BB1F02AAD3BAD4CADE0
:102010005DAD60E074E284EF90E00E94DB1BDA01CA
:10202000C9014097A109B109B695A79597958795DC
:102030008093B80006C0EEA5FFA590818BA9892BDF
:102040008083D8011A962D913D914D915C911D97F9
:1020500012966D917D918D919C9115970E94391BDF
:102060000E94A51BEB0177FD57C00E943B0CFC01B1
:10207000808591858C179D070CF44EC0D8011E9663
:102080002D913D914D915C91519716966D917D9159
:102090008D919C9119970E94391B0E94A51BEB0101
:1020A00077FD45C00E943B0CFC01828593858C170F
:1020B0009D07ECF1D8011A962D913D914D915C91BF
:1020C0001D9712966D917D918D919C9115970E940F
:1020D000391BF80162837383848395832685378552
:1020E0004089518966817781808591850E94391B5D
:1020F000D80116966D937D938D939C931997DF91DC
:10210000CF911F910F91FF90EF90DF90CF90BF90F4
:10211000AF909F908F900895F80182859385A48554
:10212000B585B05882879387A487B587A7CFF80174
:1021300086859785A089B189B05886879787A08BB7
:10214000B18BB8CFCF92DF92EF92FF920F931F9394
:10215000CF93DF936C017A018B01C0E0D0E0CE1504
:10216000DF0581F0D8016D918D01D601ED91FC91D3
:102170000190F081E02DC6010995892B11F021967F
:10218000EECF7E01C701DF91CF911F910F91FF909C
:10219000EF90DF90CF900895FC01538D448D252F53
:1021A00030E0842F90E0821B930B541710F0CF96F1
:1021B000089501970895FC01918D828D981761F023
:1021C000828DDF01A80FB11D5D968C91928D9F5F6E
:1021D0009F73928F90E008958FEF9FEF0895FC0119
:1021E000918D828D981731F0828DE80FF11D858DCC
:1021F00090E008958FEF9FEF0895FC01918D228D5F
:10220000892F90E0805C9F4F821B91098F739927E3
:1022100008958AE892E00E94FD1021E0892B09F4DC
:1022200020E0822F0895FC01848DDF01A80FB11DED
:10223000A35ABF4F2C91848D90E001968F739927FC
:10224000848FA689B7892C93A089B1898C918370DA
:1022500080648C93938D848D981306C00288F389D3
:10226000E02D80818F7D80830895EF92FF920F9300
:102270001F93CF93DF93EC0181E0888F9B8D8C8D32
:10228000981305C0E889F989808185FD26C0F62E5E
:102290000B8D10E00F5F1F4F0F731127E02E8C8DF9
:1022A000E8120CC00FB607FCFACFE889F9898081E3
:1022B00085FFF5CFCE010E941311F1CF8B8DFE016A
:1022C000E80FF11DE35AFF4FF0829FB7F8940B8F90
:1022D000EA89FB89808180620AC09FB7F894EE8901
:1022E000FF896083E889F9898081837080648083B5
:1022F0009FBF81E090E0DF91CF911F910F91FF9000
:10230000EF900895CF93DF93EC01888D8823C9F077
:10231000EA89FB89808185FD05C0A889B9898C91EE
:1023200086FD0FC00FB607FCF5CF808185FFF2CF89
:10233000A889B9898C9185FFEDCFCE010E94131138
:10234000E7CFDF91CF91089580E090E0892B29F0CD
:102350000E94091181110C94000008953FB7F89470
:102360008091E1019091E201A091E301B091E4013B
:1023700026B5A89B05C02F3F19F00196A11DB11DE0
:102380003FBFBA2FA92F982F8827820F911DA11D1B
:10239000B11DBC01CD0142E0660F771F881F991F58
:1023A0004A95D1F7089585ED8093BC008091BC00DB
:1023B00084FDFCCF109225020895089508950E948F
:1023C000EA1DEF92FF920F931F93CF93DF93EC01DF
:1023D0007B018A0188819981009729F02A813B81BC
:1023E00024173507F8F4B8016F5F7F4F0E94241D52
:1023F000009759F0998388831B830A832C813D8140
:10240000232B81F4FC0110820DC0888199810097F3
:1024100011F00E949B1C198218821D821C821B8253
:102420001A8207C01D830C83B701888199810E949D
:10243000FF1DCE01DF91CF911F910F91FF90EF9083
:1024400008951F920F920FB60F9211242F933F936E
:102450004F935F936F937F938F939F93AF93BF93AC
:10246000EF93FF938AE892E00E941311FF91EF919E
:10247000BF91AF919F918F917F916F915F914F919C
:102480003F912F910F900FBE0F901F9018951F92A4
:102490000F920FB60F9211242F938F939F93EF9368
:1024A000FF93E0919A02F0919B028081E091A0025B
:1024B000F091A10282FD12C090818091A3028F5FF2
:1024C0008F732091A402821751F0E091A302F0E0F3
:1024D000E657FD4F958F8093A30201C08081FF9145
:1024E000EF919F918F912F910F900FBE0F901F90A2
:1024F000189590E0FC01E75DFA4F2491FC01EB5840
:10250000F54F3491FC01EF59F54FE491EE2309F4B6
:102510003CC0222339F1233091F038F42130A9F066
:10252000223001F584B58F7D12C0273091F028301C
:10253000A1F02430B9F4809180008F7D03C0809198
:1025400080008F77809380000DC084B58F7784BD25
:1025500009C08091B0008F7703C08091B0008F7D5B
:102560008093B000F0E0EE0FFF1FE35BF54FA59105
:10257000B4919FB7F894611104C08C9130953823C1
:1025800002C0EC913E2B3C939FBF08958F929F9287
:10259000AF92BF92CF92DF92EF92FF926B017C01DC
:1025A0000E94AE114B015C01C114D104E104F1049D
:1025B000F1F00E94AE11DC01CB0188199909AA093A
:1025C000BB09883E9340A105B10570F321E0C21A12
:1025D000D108E108F10888EE880E83E0981EA11C5E
:1025E000B11CC114D104E104F10419F7DDCFFF904F
:1025F000EF90DF90CF90BF90AF909F908F90089515
:102600001F920F920FB60F9211242F933F938F9327
:102610009F93AF93BF938091DD019091DE01A091D4
:10262000DF01B091E0013091DC0123E0230F2D3771
:1026300020F40196A11DB11D05C026E8230F0296C6
:10264000A11DB11D2093DC018093DD019093DE017B
:10265000A093DF01B093E0018091E1019091E2014C
:10266000A091E301B091E4010196A11DB11D8093F9
:10267000E1019093E201A093E301B093E401BF91E3
:10268000AF919F918F913F912F910F900FBE0F901F
:102690001F9018951F920F920FB60F9211242F932F
:1026A0003F934F935F936F937F938F939F93AF93DA
:1026B000BF93EF93FF938091B900887F803609F430
:1026C0009CC068F5883209F45BC090F4803109F44D
:1026D00054C038F4882309F4F6C0883009F44DC09A
:1026E000F6C0883109F44CC0803209F45DC0EFC0F7
:1026F000803409F468C048F4803309F455C0883345
:1027000009F0E5C080932302D8C0803509F44FC09A
:10271000883509F45DC0883409F0D9C0D6C088393D
:1027200009F4C7C0A8F4883709F467C038F48836BC
:1027300009F463C0803709F460C0C9C0883809F45F
:10274000B8C0803909F45FC0803809F0C0C05BC0F0
:10275000803B09F486C038F4803A09F466C0883AB0
:1027600009F47FC0B4C0803C09F4A7C0883C09F4D8
:10277000A4C0883B09F48AC0AAC08091000210C09E
:102780009091220280912102981770F5E091220227
:1027900081E08E0F80932202F0E0EF5FFD4F808199
:1027A0008093BB0085EC86C0809323028EC0E091AD
:1027B000220281E08E0F809322028091BB00F0E024
:1027C000EF5FFD4F808390912202809121026EC0C5
:1027D000E091220281E08E0F809322028091BB0063
:1027E000F0E0EF5FFD4F80838091240281116DC086
:1027F00081E08093FF0184EA61C083E08093250239
:102800001092DB01CFCF8091DB01803208F051C004
:10281000E091DB0181E08E0F8093DB018091BB00B2
:10282000F0E0E554FE4F8083BDCF85EC8093BC0083
:10283000109225028091DB01803230F4E091DB01BF
:10284000F0E0E554FE4F10826091DB0170E0E09112
:102850009701F09198018BEB91E009951092DB01C3
:1028600036C084E0809325021092BA011092B9011B
:10287000E0919501F091960109958091B90181113E
:1028800005C081E08093B90110929901E091BA01ED
:1028900081E08E0F8093BA01F0E0E756FE4F808111
:1028A0008093BB009091BA018091B901981708F408
:1028B00079CF85E88093BC000AC085EC8093BC008A
:1028C0001092250204C0109223020E94D311FF919E
:1028D000EF91BF91AF919F918F917F916F915F9198
:1028E0004F913F912F910F900FBE0F901F90189511
:1028F0004091B901262F30E0240F311D21323105DE
:10290000DCF4209125022430C9F4FC0180E090E041
:10291000861758F43091B9012191DC01A756BE4FBA
:10292000A30FB11D2C930196F3CF8091B901680FCD
:102930006093B90180E0089581E0089582E00895F0
:102940003F924F925F926F927F928F929F92AF923F
:10295000BF92CF92DF92EF92FF920F931F93CF938C
:10296000DF9300D000D000D0CDB7DEB72C013B0103
:102970004A015901C901079697FD07969C0193E00A
:10298000359527959A95E1F73C832B83C12CD12C63
:10299000E12CF12C312CC3018E0D9F1D9A8389836C
:1029A000E016F106C4F51E821D822D813E812A1596
:1029B0003B054CF5C90187709927892B11F0330C21
:1029C0000EC0ED81FE81F7FD379683E0F595E79522
:1029D0008A95E1F7EC0DFD1DE80DF91D349037FEE9
:1029E0000CC021E030E049815A816D817E81640D07
:1029F000751D8AE492E00E9443088D819E810196B4
:102A00009E838D83D2CF9FEFE91AF90A2B813C81F7
:102A1000C20ED31EC0CF26960FB6F894DEBF0FBEEF
:102A2000CDBFDF91CF911F910F91FF90EF90DF907D
:102A3000CF90BF90AF909F908F907F906F905F905E
:102A40004F903F90089590E0FC01EB58F54F249192
:102A5000FC01EF59F54F8491882399F090E0880F9D
:102A6000991FFC01E95AF54FA591B491FC01E35B74
:102A7000F54F859194918FB7F894EC91E22BEC93FC
:102A80008FBF089530914902313208F04BC08091D8
:102A900025028111FCCF9091480222E0209325026B
:102AA00021E0209324022FEF209323021092220290
:102AB00030932102E8E2F2E0A1E0B2E020E0321738
:102AC00021F041914D932F5FFACF10920002209197
:102AD0000002990F922B909300029091FF01913088
:102AE00061F41092FF01909100029093BB009091CD
:102AF000BC0093FDF8CF95EC01C095EE9093BC001F
:102B0000909125029230E1F3909123029F3F79F05A
:102B100080912302803241F080912302803331F092
:102B200084E005C081E003C082E001C083E0109230
:102B3000270210924902109226020895EF92FF9206
:102B40000F931F93CF93DF93CDB7DEB728970FB6C0
:102B5000F894DEBF0FBECDBFFC0180811A821982BE
:102B60001C821B821E821D828F831886BE01695FB4
:102B70007F4FFB0101900020E9F73197AF01461B21
:102B8000570BCE0101967C010E94E1110091510387
:102B90001091520301151105A9F1209155033091AF
:102BA000560380915303909154032817390750F529
:102BB000C9010196909356038093550346E0429FC6
:102BC000C001439F900D1124080F191FE016F10654
:102BD000C9F069817A816115710531F04D815E819D
:102BE000C8010E94E1110EC0F80180819181009717
:102BF00011F00E949B1CF801118210821582148230
:102C00001382128289819A810E949B1C28960FB69A
:102C1000F894DEBF0FBECDBFDF91CF911F910F9112
:102C2000FF90EF9008952F923F924F925F926F9294
:102C30007F928F929F92AF92BF92CF92DF92EF924C
:102C4000FF920F931F93CF93DF93CDB7DEB76B97B0
:102C50000FB6F894DEBF0FBECDBF9B8F8A8F5B018E
:102C60001A01D22E1F830E833701C982DC015896C8
:102C70002D913C9159972115310509F0E6C0189620
:102C80008D919C911997681779070CF0CDC11A9610
:102C90008D919C911B97481759070CF0C5C18C2C3E
:102CA000912CFB0126E0C29EE00DF11D1124FB8753
:102CB000EA871E161F060CF0B7C1A40183E0440F7B
:102CC000551F8A95E1F75D874C87CA01820D931DD8
:102CD000181619060CF0A8C157968C91811104C0E2
:102CE0005FEA5D1508F4D394AA8DBB8DED91FC913C
:102CF00011970284F385E02DCD010995B5E0DB9EA7
:102D0000C0011124F5013596FF87EE87BB82AA82A8
:102D100025019C012A193B09398B288BA101485FA9
:102D20005F4F5B8B4A8BE889F989E40DF51DE35B06
:102D3000FA4F5491588761013D822C82888580FF2B
:102D400013C0AA8DBB8DED91FC91B981B13031F4E6
:102D50000484F585E02D2E813F8116C00684F78519
:102D6000E02DEE80FF801AC0EE81FF81E615F705A9
:102D7000F1F0AA8DBB8DED91FC91B981B13051F488
:102D80000484F585E02D9301A601B2018A8D9B8D07
:102D900009950DC00684F785E02D73018401940127
:102DA0004C815D816A817B818A8D9B8D0995E88547
:102DB000E695E887FFEFCF1ADF0A2C813D81280DC9
:102DC000391D3D832C834A895B89C416D50609F0D9
:102DD000B5CF5FEF451A550A8A819B81880D991DF1
:102DE0009B838A83AE85BF854A165B0609F09BCF1D
:102DF000EE81FF81E615F70509F4F4C0EA8DFB8D3D
:102E0000A081B181F981F13079F4B5016B5F7F4F19
:102E10005096ED91FC915197830128E030E0A1019B
:102E20008A8D9B8D0995DEC06A857B856819790935
:102E30001E96ED91FC911F9773010C851D859401E1
:102E4000A1018A8D9B8D0995CDC0F9013496E4913D
:102E5000DE1AF901329685919491B7E0DB9E800DE0
:102E6000911D1124F901259134913B8B2A8BFC0192
:102E7000259134912901FC013296C4903196349108
:102E80003E87329614913196D4904981423058F061
:102E9000612E012E000C77088D2D0D2C000C990B46
:102EA0009987888704C019861886612C712CAA8D91
:102EB000BB8DED91FC9111970284F385E02DCD013E
:102EC0000995B9818B2E912C689CC001699C900D4D
:102ED000789C900D1124FC01EA0DFB1DFD87EC8709
:102EE0001A82712C612CE12F110FFF0B95012E0F0F
:102EF0003F1F3B872A87AC0CB11CA5014E0F5F1FFB
:102F00005F8B4E8BC1018D0D911DD7FC9A95998FCA
:102F1000888F9E85691608F065C0862D90E04885EB
:102F20005985480F591F489D9001499D300D589D66
:102F3000300D1124D101A20FB31FB98BA88BEC85E2
:102F4000FD85FD83EC83AA84BB84DA80FA85DF1AD1
:102F5000288D398D280F391F3D8B2C8B8D2D8A0D97
:102F60004E895F89A416B506C1F1877041F4C2018C
:102F70000196EA89FB89E40DF51D74902C0177FE1A
:102F800021C0AA8DBB8DED91FC91B981B13061F466
:102F90000484F585E02D2E813F814C895D89B50142
:102FA0008A8D9B8D09950EC00684F785E02DEE80F5
:102FB000FF8084019401488959896C817D818A8DC3
:102FC0009B8D0995770CEFEFAE1ABE0A2C813D81DF
:102FD000280D391D3D832C83C1CF3A813C0D3A83A6
:102FE000639497CFAA8DBB8DED91FC9111970688C4
:102FF000F789E02DCD016B960FB6F894DEBF0FBEBA
:10300000CDBFDF91CF911F910F91FF90EF90DF9097
:10301000CF90BF90AF909F908F907F906F905F9078
:103020004F903F902F9009946B960FB6F894DEBFA7
:103030000FBECDBFDF91CF911F910F91FF90EF9009
:10304000DF90CF90BF90AF909F908F907F906F90C8
:103050005F904F903F902F9008950F931F93CF93C1
:10306000DF9377FF04C0260F371F60E070E0DC01BC
:103070001496CD91DC911597FB01E20FF31FCE174B
:10308000DF071CF49E01261B370B121613060CF0EB
:1030900046C0FA0157FD3796DF01E3E0B595A795E5
:1030A000EA95E1F7AC9FF001AD9FF00DBC9FF00DEC
:1030B00011246E0F7F1FDC015E96ED91FC915F97EE
:1030C000E60FF71F4770552781E090E001C0880F99
:1030D0004A95EAF7482F0130110539F078F00230AF
:1030E0001105E9F42E0F3F1F13C02E0F3F1FE217EB
:1030F000F307A9F08081842B8193F9CF80952E0F5F
:103100003F1FE217F30759F0908198239193F9CF6D
:10311000E217F30721F0808184278193F9CFDF91B3
:10312000CF911F910F910895EF92FF920F931F93EC
:10313000CF93DF93EC0177FDA5C0EC80FD806E1589
:103140007F050CF09FC057FF04C0240F351F40E0DF
:1031500050E08E819F81FA01E20FF31F8E179F07C7
:103160001CF49C01241B350B121613060CF08AC0AC
:10317000922F842F8695869586958E9DD0018F9D62
:10318000B00D11246A0F7B1FAE8DBF8DA60FB71F28
:103190004770B1F188E0841B482F682F70E0FB0175
:1031A000EB5BFA4FE491281798F4621B71092FEF3B
:1031B00030E002C0359527956A95E2F7E2230130A9
:1031C000110549F078F00230110509F05BC00EC01E
:1031D0000130110519F48C91E82B0AC0013011055A
:1031E00008F049C0E0958C91E82302C08C91E82753
:1031F000EC93941708F446C02C813D81A20FB31FB5
:10320000E92FE41BE830F8F00230110561F48E2F4D
:103210009C9190959C932C813D81A20FB31F885067
:103220008830B0F70FC081E00115110509F480E086
:1032300081959E2F8C932C813D81A20FB31F9850B6
:103240009830C0F7E770EE23E9F0F0E0E35CFA4F66
:10325000E4910130110539F048F00230110591F484
:103260008C91E82706C08C91E82B03C0E0958C91E7
:10327000E823EC9307C00230110509F4B7CFAE0D77
:10328000BF1DBECFDF91CF911F910F91FF90EF90A7
:103290000895CF93DF93C1E5D3E026978881998184
:1032A0000E949B1C83E0C333D807B9F7DF91CF910D
:1032B0000895CF93DF931F92CDB7DEB7789484B58E
:1032C000826084BD84B5816084BD85B5826085BD22
:1032D00085B5816085BD80916E00816080936E00B0
:1032E00010928100809181008260809381008091A2
:1032F0008100816080938100809180008160809353
:1033000080008091B10084608093B1008091B00012
:1033100081608093B00080917A00846080937A000D
:1033200080917A00826080937A0080917A00816037
:1033300080937A0080917A00806880937A0010925E
:10334000C100E0919A02F0919B0282E08083E091BB
:103350009602F09197021082E0919802F091990202
:1033600080E180831092A202E0919E02F0919F0280
:1033700086E08083E0919C02F0919D0280818061D3
:103380008083E0919C02F0919D028081886080831F
:10339000E0919C02F0919D02808180688083E091A1
:1033A0009C02F0919D0280818F7D808382E28983DF
:1033B000CE0101960E949E1583E28983CE0101967B
:1033C0000E949E150E943B0C23E333E0FC0137AFC3
:1033D00026AF06E311E08EEAC82E87E4D82E81E8F6
:1033E000E82E8FE3F82E812C912C90E8A92E9FE3F4
:1033F000B92E772473940E943B0C8091F7018111C0
:1034000026C01093E6010093E5011092E7011092A7
:10341000E8011092E9011092EA011092EB0110927A
:10342000EC011092ED011092EE01C092EF01D092EA
:10343000F001E092F101F092F2018092F30190929A
:10344000F401A092F501B092F6017092F70185EEB9
:1034500091E00E94040F0E94A411CDCF0F931F93FF
:10346000CF93DF9310928D0210928C0288EE93E03E
:10347000A0E0B0E080938E0290938F02A093900220
:10348000B09391022CE331E030938B0220938A02B7
:1034900025EC30E0309397022093960224EC30E044
:1034A000309399022093980220EC30E030939B02F5
:1034B00020939A0221EC30E030939D0220939C02ED
:1034C00022EC30E030939F0220939E0226EC30E005
:1034D0003093A1022093A0021092A3021092A402A2
:1034E0001092A5021092A60210922A0310922903AC
:1034F00080932B0390932C03A0932D03B0932E0362
:103500008AE591E09093280380932703C3E3D3E0F7
:1035100001E513E0198218821B821A821D821C8227
:1035200040E050E068E671E0CE010E94E11126968D
:103530000C171D0779F7109256031092550383E379
:1035400093E0909352038093510385E090E0909331
:10355000540380935303DF91CF911F910F910895EE
:1035600097F99F6780E870E060E008959FEF80EC36
:10357000089500240A9416161706180609060895D9
:1035800000240A9412161306140605060895092E3F
:103590000394000C11F4882352F0BB0F40F4BF2BAE
:1035A00011F460FF04C06F5F7F4F8F4F9F4F0895EE
:1035B00057FD9058440F551F59F05F3F71F04795E4
:1035C000880F97FB991F61F09F3F79F087950895C9
:1035D000121613061406551FF2CF4695F1DF08C0E8
:1035E000161617061806991FF1CF86957105610505
:1035F00008940895E894BB2766277727CB0197F9AD
:1036000008952F923F924F925F926F927F928F9286
:103610009F92AF92BF92CF92DF92EF92FF920F9361
:103620001F93CF93DF93CDB7DEB7CA1BDB0B0FB66B
:10363000F894DEBF0FBECDBF09942A883988488828
:103640005F846E847D848C849B84AA84B984C884BE
:10365000DF80EE80FD800C811B81AA81B981CE0FB5
:10366000D11D0FB6F894DEBF0FBECDBFED0108959A
:103670005058BB27AA270E94501B0C94C71A0E94BF
:10368000B91A38F00E94C01A20F039F49F3F19F49B
:1036900026F40C94B61A0EF4E095E7FB0C94B01ADD
:1036A000E92F0E94D81A58F3BA17620773078407E4
:1036B000950720F079F4A6F50C94FA1A0EF4E0952B
:1036C0000B2EBA2FA02D0B01B90190010C01CA01DC
:1036D000A0011124FF27591B99F0593F50F4503E87
:1036E00068F11A16F040A22F232F342F4427585F79
:1036F000F3CF469537952795A795F0405395C9F791
:103700007EF41F16BA0B620B730B840BBAF0915048
:10371000A1F0FF0FBB1F661F771F881FC2F70EC0E7
:10372000BA0F621F731F841F48F4879577956795BA
:10373000B795F7959E3F08F0B0CF9395880F08F0A6
:103740009927EE0F9795879508950E94AC1B689472
:10375000B1110C94FB1A08950E94E01A88F09F574B
:1037600098F0B92F9927B751B0F0E1F0660F771FA5
:10377000881F991F1AF0BA95C9F714C0B13091F09B
:103780000E94FA1AB1E008950C94FA1A672F782F64
:103790008827B85F39F0B93FCCF386957795679560
:1037A000B395D9F73EF490958095709561957F4FCC
:1037B0008F4F9F4F0895A1E21A2EAA1BBB1BFD013C
:1037C0000DC0AA1FBB1FEE1FFF1FA217B307E40700
:1037D000F50720F0A21BB30BE40BF50B661F771F58
:1037E000881F991F1A9469F7609570958095909538
:1037F0009B01AC01BD01CF010895EE0FFF1F0590A5
:10380000F491E02D09940F931F93CF93DF938230AF
:10381000910510F482E090E0E0915903F0915A0391
:1038200020E030E0A0E0B0E0309719F14081518114
:103830000281138148175907C8F08417950769F466
:10384000109731F012960C93129713961C9327C081
:103850000093590310935A0322C02115310519F022
:103860004217530718F49A01BD01EF01DF01F80177
:10387000DBCF21153105F9F0281B390B2430310538
:1038800080F48A819B816115710521F0FB0193838E
:10389000828304C090935A0380935903FE013296A9
:1038A00044C0FE01E20FF31F81939193225031092E
:1038B000398328833AC02091570330915803232B32
:1038C00041F4209102013091030130935803209379
:1038D000570320910001309101012115310541F478
:1038E0002DB73EB74091040150910501241B350BC3
:1038F000E0915703F0915803E217F307A0F42E1B51
:103900003F0B2817390778F0AC014E5F5F4F241743
:10391000350748F04E0F5F1F5093580340935703ED
:103920008193919302C0E0E0F0E0CF01DF91CF916D
:103930001F910F910895CF93DF93009709F481C0F1
:10394000FC01329713821282A0915903B0915A035D
:10395000109781F420813181820F931F20915703AA
:10396000309158032817390751F5F0935803E09325
:10397000570367C0ED0120E030E0CE17DF0740F4C9
:103980004A815B819E0141155105F1F0EA01F5CFB5
:10399000D383C28340815181840F951FC817D907F3
:1039A00059F488819981840F951F029691838083B1
:1039B0008A819B81938382832115310529F4F093B9
:1039C0005A03E09359033DC0E901FB83EA8349911F
:1039D0005991C40FD51FEC17FD0761F480819181C7
:1039E000840F951F0296E9019983888382819381D0
:1039F0009B838A83E0E0F0E012968D919C9113976F
:103A0000009719F0FD01DC01F7CF8D919C91119782
:103A10009D012E5F3F4F820F931F209157033091DE
:103A200058032817390769F4309729F410925A037C
:103A30001092590302C013821282B0935803A093CC
:103A40005703DF91CF910895A0E0B0E0EAE2FDE1F5
:103A50000C94051BEC01009721F4CB010E94031C80
:103A6000B4C0FC01E60FF71F9C0122503109E21798
:103A7000F30708F4A8C0D9010D911C9111970617FE
:103A80001707B0F00530110508F49BC0C801049772
:103A90008617970708F495C002501109061B170BEB
:103AA000019311936D937C93CF010E949B1C89C05D
:103AB0005B01A01AB10A4C01800E911EA09159031E
:103AC000B0915A03612C712CE12CF12C109709F460
:103AD00046C08D919C911197A815B905B1F56C015F
:103AE00042E0C40ED11CCA14DB0478F14C018A18E0
:103AF0009B08640142E0C40ED11C1296BC90129740
:103B00001396AC91B5E0CB16D10440F0B282A383FA
:103B100091828082D9016D937C9309C00E5F1F4F03
:103B2000800F911FF90191838083EB2DFA2FE1140F
:103B3000F10431F0D7011396FC93EE93129741C034
:103B4000F0935A03E09359033CC06816790608F4D1
:103B50003C017D0112960D90BC91A02DB7CF8091B4
:103B600057039091580388169906E1F46616770674
:103B7000C8F48091000190910101009741F48DB744
:103B80009EB74091040150910501841B950BE817E5
:103B9000F907C8F4F0935803E0935703F9017183D0
:103BA00060830FC0CB010E94031C7C01009759F079
:103BB000A801BE010E94EF1DCE010E949B1CC701FF
:103BC00004C0CE0102C080E090E0CDB7DEB7EEE0E9
:103BD0000C94211B81E090E0F8940C94061EFB01EC
:103BE000DC0102C001900D9241505040D8F7089579
:103BF000DC0101C06D9341505040E0F70895FB0196
:103C0000DC0101900D920020E1F7089515E0C6E473
:103C1000D5E004C0FE010E94FD1B2196C734D107E8
:063C2000C9F7F894FFCF84
:103C260000005B03800000000000650BA210FD0889
:103C3600FC089D05710543081B0837082B084A0830
:103C4600710566060B0B5C09A00964074707DA06CF
:103C56007B0600000000040F000000003511A210D2
:103C6600CC108211FD10DB10EF1000000000DF11F8
:103C7600A210FD08FC08000000002D090009FD083F
:0A3C86007105950581057205000027
:107800000C94343C0C94513C0C94513C0C94513CE1
:107810000C94513C0C94513C0C94513C0C94513CB4
:107820000C94513C0C94513C0C94513C0C94513CA4
:107830000C94513C0C94513C0C94513C0C94513C94
:107840000C94513C0C94513C0C94513C0C94513C84
:107850000C94513C0C94513C0C94513C0C94513C74
:107860000C94513C0C94513C11241FBECFEFD8E036
:10787000DEBFCDBF11E0A0E0B1E0ECE9FFE702C060
:1078800005900D92A230B107D9F712E0A2E0B1E065
:1078900001C01D92AD30B107E1F70E942D3D0C945F
:1078A000CC3F0C94003C982F959595959595959582
:1078B000905D8F708A307CF0282F295A8091C0000B
:1078C00085FFFCCF9093C6008091C00085FFFCCF60
:1078D0002093C6000895282F205DF0CF982F809127
:1078E000C00085FFFCCF9093C6000895EF92FF92F1
:1078F0000F931F93EE24FF2487018091C00087FD22
:1079000017C00894E11CF11C011D111D81E4E8164B
:1079100082E4F8068FE0080780E0180770F3E09132
:107920000401F091050109958091C00087FFE9CF1E
:107930008091C6001F910F91FF90EF9008950E94D3
:10794000763C982F8091C00085FFFCCF9093C600B5
:1079500091362CF490330CF09053892F089597555D
:10796000892F08951F930E949F3C182F0E949F3CCF
:107970001295107F810F1F9108951F93182F882350
:1079800021F00E94763C1150E1F71F9108951F935A
:10799000182F0E94763C803249F0809103018F5F5E
:1079A000809303018530C1F01F9108958091C0003C
:1079B00085FFFCCF84E18093C6008091C00085FFE5
:1079C000FCCF1093C6008091C00085FFFCCF80E102
:1079D0008093C6001F910895E0910401F091050184
:1079E00009951F9108950E94763C803241F0809164
:1079F00003018F5F80930301853081F008958091AA
:107A0000C00085FFFCCF84E18093C6008091C00058
:107A100085FFFCCF80E18093C6000895E0910401CA
:107A2000F09105010995089540E951E08823A1F0FE
:107A30002D9A28EE33E0FA013197F1F721503040CA
:107A4000D1F72D9828EE33E0FA013197F1F7215064
:107A50003040D1F7815061F708953F924F925F9285
:107A60006F927F928F929F92AF92BF92CF92DF924E
:107A7000EF92FF920F931F93CF93DF93000080E16B
:107A80008093C4001092C50088E18093C10086E015
:107A90008093C2005098589A259A81E00E94143D24
:107AA00024E1F22E9EE1E92E85E9D82E0FE0C02ECA
:107AB00010E1B12EAA24A394B1E49B2EA6E58A2E50
:107AC000F2E57F2EE0E26E2E79E4572E63E5462E36
:107AD00050E5352E0E94763C8033B1F18133B9F107
:107AE000803409F46FC0813409F476C0823409F41B
:107AF00085C0853409F488C0803531F1823521F1A3
:107B0000813511F1853509F485C0863509F48DC0BC
:107B1000843609F496C0843709F403C1853709F423
:107B200072C1863709F466C0809103018F5F80932C
:107B30000301853079F6E0910401F0910501099582
:107B40000E94763C803351F60E94F33CC3CF0E94E2
:107B5000763C803249F78091C00085FFFCCFF092DF
:107B6000C6008091C00085FFFCCF9092C600809136
:107B7000C00085FFFCCF8092C6008091C00085FFC9
:107B8000FCCF7092C6008091C00085FFFCCF609250
:107B9000C6008091C00085FFFCCF5092C600809146
:107BA000C00085FFFCCF4092C6008091C00085FFD9
:107BB000FCCF3092C6008091C00085FFFCCFB09210
:107BC000C60088CF0E94763C863808F4BDCF0E945C
:107BD000763C0E94F33C7ECF0E94763C803809F4CC
:107BE0009CC0813809F40BC1823809F43CC1883942
:107BF00009F48FC080E00E94C73C6CCF84E10E94F2
:107C0000BD3C0E94F33C66CF85E00E94BD3C0E94D3
:107C1000F33C60CF0E94763C809306010E94763C44
:107C2000809307010E94F33C55CF0E94763C80333D
:107C300009F41DC183E00E94BD3C80E00E94C73C66
:107C400049CF0E94763C809309020E94763C809343
:107C5000080280910C028E7F80930C020E94763C79
:107C6000853409F415C18091080290910902892B8D
:107C700089F000E010E00E94763CF801E85FFE4FDA
:107C800080830F5F1F4F80910802909109020817AF
:107C9000190788F30E94763C803209F045CF809125
:107CA0000C0280FF01C16091060170910701660F0F
:107CB000771F7093070160930601A0910802B091AD
:107CC00009021097C9F0E8E0F1E09B01AD014E0F09
:107CD0005F1FF999FECF32BD21BD819180BDFA9A17
:107CE000F99A2F5F3F4FE417F50799F76A0F7B1F4B
:107CF00070930701609306018091C00085FFFCCF5F
:107D0000F092C6008091C00085FFFCCFB092C60003
:107D1000E1CE83E00E94C73CDDCE82E00E94C73CFA
:107D2000D9CE0E94763C809309020E94763C8093D3
:107D300008028091060190910701880F991F909386
:107D40000701809306010E94763C853409F4A6C0A1
:107D500080910C028E7F80930C020E94763C8032D0
:107D600009F0B8CE8091C00085FFFCCFF092C6002C
:107D7000609108027091090261157105B9F140E046
:107D800050E080910C02A82FA170B82FB27011C0E2
:107D9000BB2309F45CC0E0910601F0910701319624
:107DA000F0930701E09306014F5F5F4F46175707B7
:107DB000E8F4AA2369F3F999FECF209106013091E6
:107DC000070132BD21BDF89A90B58091C00085FFB2
:107DD000FCCF9093C6002F5F3F4F30930701209355
:107DE00006014F5F5F4F4617570718F38091C00099
:107DF00085FDE5CE8091C00085FFF8CFE0CE81E023
:107E00000E94C73C67CE0E94763C803209F08CCE3F
:107E10008091C00085FFFCCFF092C6008091C00029
:107E200085FFFCCFE092C6008091C00085FFFCCFAB
:107E3000D092C6008091C00085FFFCCFC092C600E2
:107E40008091C00085FFFCCFB092C60043CEE09188
:107E50000601F091070194918091C00085FFFCCF4D
:107E60009093C6009CCF80E10E94C73C33CE0E9415
:107E7000763C0E94763C182F0E94763C112309F430
:107E800083C0113009F484C08FE00E94C73C22CE29
:107E900080910C02816080930C02E5CE80910C02EF
:107EA000816080930C0259CF809107018823880F4D
:107EB000880B8A2180930B02809106019091070123
:107EC000880F991F90930701809306018091080203
:107ED00080FF09C080910802909109020196909359
:107EE000090280930802F894F999FECF1127E091D6
:107EF0000601F0910701C8E0D1E08091080290915D
:107F00000902103091F40091570001700130D9F34B
:107F100003E000935700E89500915700017001308D
:107F2000D9F301E100935700E89509901990009169
:107F3000570001700130D9F301E000935700E89534
:107F40001395103498F011270091570001700130FB
:107F5000D9F305E000935700E895009157000170B0
:107F60000130D9F301E100935700E895329602976A
:107F700009F0C7CF103011F00296E5CF112480919F
:107F8000C00085FFB9CEBCCE8EE10E94C73CA2CD19
:0C7F900085E90E94C73C9ECDF894FFCF0D
:027F9C00800063
:040000030000780081
:00000001FF