:100000000C9446050C946E050C946E050C946E05CC
:100010000C946E050C946E050C946E050C946E0594
:100020000C946E050C946E050C946E050C946E0584
:100030000C946E050C946E050C946E050C946E0574
:100040000C9453120C946E050C949A110C94741128
:100050000C946E050C946E050C946E050C946E0554
:100060000C949D120C946E05DB40A4A62EAFDA0210
:1000700081DA1281DA02818F2000A1C8D300408D7D
:10008000AED580A800006000000000000000000065
:100090000000000000E00000000000000000000080
:1000A00000000001E000000000000000000000006F
:1000B000000001F00000000000000000000000004F
:1000C0000003F0000000000000000000000000003D
:1000D00007F0000000000000000000000000000722
:1000E000F8000000000000000000000000000FF811
:1000F00000000003C0007E000001E0007F0FF80058
:10010000000003C000FE000001E000FFEFF8000067
:100110000003C000FE000001E000FFFFF800000047
:1001200003C000F00000000F007FFE7FC00000034E
:10013000C000F00000000F003FFE7FF83FF1FBCF52
:10014000FCFEF3BC3DEFE01FFE7FFF7FFBFFDFFE09
:10015000FEFFBC3DEFE01FC6FFFF7FFBFFDFFEFEA3
:10016000FFBC3DEFE00FE3C7FE787BC3DE1EF0FF70
:10017000BC3DEF0007FF87FC787BC3DE1EF0F83C38
:100180003DEF0001FFFFF0007BC3C01EF0F03C3DDF
:10019000EF0001F37FE03FFBC3CFFEF0F03C3DEF0B
:1001A0000003E33F807FFBC3DFFEF0F03C3DEF0048
:1001B00007E73C00787BC3DE1EF0F03C3DEF000714
:1001C000FFBE00787BC3DE1EF0F03C3DEF0007FF72
:1001D000FE00787BC3DE1EF0F03C3DEF000FFFFE1B
:1001E000007FFBFFDFFEF0F03FFDEFE00FFFFF00C1
:1001F0007FFBFFDFFEF0F03FFDEFE00FF9FF003E79
:1002000079F9CF9EF0F01F3DE7E01FF1FF000000FD
:100210000000000000000000001F80FF007FFFFFC3
:10022000FFFFFFFFFFFFFFE01C007F007FFFFFFFDE
:10023000FEB46D888D18E000001F007FFFFFFFFEF9
:1002400095AD7DB577E000000F007FFFFFFFFEA5B5
:10025000AD9D8D19E0000006007FFFFFFFFEB5ADEC
:10026000EDB57EE00000000000018000000000000D
:1002700000000000038000000000000000000007F4
:10028000C000000000000000000007C000000000E7
:1002900000000000000FC00000000000000000008F
:1002A0001FE00000000000000000001FE000000050
:1002B0000000000000003FE000000000000000001F
:1002C000003FF00000000000000000007FF0000090
:1002D00000000000001FF87FF00000000000000098
:1002E0003FFE7FF0000000000000003FFF7FF000B5
:1002F0000000000000001FFFFBE000000000000005
:10030000000FFFF9FFC00000000000000FFFF9FF21
:10031000F800000000000007FFF1FFFF00000000F0
:10032000000003FC73FFFF80000000000001FE3F9F
:10033000FFFF80000000000000FF1E0FFF00000014
:10034000000000007FFE1FFC000000000000003FD6
:10035000FFFFF8000000000000000FDFFFE00000DA
:1003600000000000001F19FFC00000000000000096
:100370003F3CFF00000000000000007E7CF8000011
:100380000000000000007FFE7C0000000000000074
:1003900000FFFFFC0000000000000000FFFFFE0067
:1003A00000000000000000FFFFFE00000000000051
:1003B0000001FFEFFE0000000000000001FFCFFE83
:1003C0000000000000000003FF07FE000000000026
:1003D000000003FC07FE0000000000000003F00323
:1003E000FE00000000000000018000FE0000000090
:1003F0000000000000007E0000000000000000007F
:10040000003E000000000000000000000C000000A2
:10041000000000078000FC000003C000000007800F
:1004200001FC000003C0000000078001FC00000385
:10043000C0000000078001E00000001E000000076F
:100440008001E00000001E007FE3F79FF9FDE778E0
:100450007BDFC0FFF7FFBFFDFDFF787BDFC0FFF74D
:10046000FFBFFDFDFF787BDFC0F0F787BC3DE1FFFC
:10047000787BDE00F0F787BC3DE1F0787BDE0000A2
:10048000F787803DE1E0787BDE007FF7879FFDE125
:10049000E0787BDE00FFF787BFFDE1E0787BDE00E0
:1004A000F0F787BC3DE1E0787BDE00F0F787BC3DEC
:1004B000E1E0787BDE00F0F787BC3DE1E0787BDEB1
:1004C00000FFF7FFBFFDE1E07FFBDFC0FFF7FFBFED
:1004D000FDE1E07FFBDFC07CF3F39F3DE1E03E7B8D
:1004E000CFC00000000000000000000000FFFFFF80
:1004F000FFFFFFFFFFFFFFC0FFFFFFFFFD68DB11F6
:100500001A31C0FFFFFFFFFD2B5AFB6AEFC0FFFF50
:10051000FFFFFD4B5B3B1A33C0FFFFFFFFFD6B5B33
:10052000DB6AFDC02200FF2100000000080002017C
:1005300000000304070000000000000000000103A9
:10054000070F1F3F7F0080C0E0F0F8FCFE000000B6
:1005500000003E5B4F5B3E3E6B4F6B3E1C3E7C3E65
:100560001C183C7E3C181C577D571C1C5E7F5E1C73
:1005700000183C1800FFE7C3E7FF0018241800FF2D
:10058000E7DBE7FF30483A060E2629792926407F27
:10059000050507407F05253F5A3CE73C5A7F3E1C36
:1005A0001C08081C1C3E7F14227F22145F5F005F22
:1005B0005F06097F017F006689956A606060606000
:1005C00094A2FFA29408047E040810207E20100844
:1005D000082A1C08081C2A08081E101010100C1EDF
:1005E0000C1E0C30383E3830060E3E0E0600000061
:1005F000000000005F00000007000700147F147F68
:1006000014242A7F2A122313086462364956205084
:100610000008070300001C2241000041221C002AA0
:100620001C7F1C2A08083E0808008070300008085B
:10063000080808000060600020100804023E5149CC
:10064000453E00427F400072494949462141494D9B
:10065000331814127F1027454545393C4A49493122
:1006600041211109073649494936464949291E00A1
:10067000001400000040340000000814224114144B
:10068000141414004122140802015909063E415D68
:10069000594E7C1211127C7F494949363E414141F5
:1006A000227F4141413E7F494949417F0909090172
:1006B0003E414151737F0808087F00417F4100207F
:1006C00040413F017F081422417F404040407F026B
:1006D0001C027F7F0408107F3E4141413E7F090993
:1006E00009063E4151215E7F09192946264949499B
:1006F0003203017F01033F4040403F1F2040201F45
:100700003F4038403F6314081463030478040361D6
:1007100059494D43007F41414102040810200041E6
:1007200041417F0402010204404040404000030771
:10073000080020545478407F2844443838444444C6
:1007400028384444287F385454541800087E09023D
:1007500018A4A49C787F0804047800447D400020FD
:1007600040403D007F1028440000417F40007C0451
:100770007804787C080404783844444438FC18240D
:10078000241818242418FC7C0804040848545454E1
:100790002404043F44243C4040207C1C2040201C76
:1007A0003C4030403C44281028444C9090907C447D
:1007B00064544C44000836410000007700000041BA
:1007C00036080002010204023C2623263C1EA1A199
:1007D00061123A4040207A38545455592155557980
:1007E0004122545478422155547840205455794040
:1007F0000C1E5272123955555559395454545939A1
:10080000555454580000457C410002457D4200018A
:10081000457C407D1211127DF0282528F07C54552E
:1008200045002054547C547C0A097F493249494987
:10083000323A4444443A324A4848303A4141217AB3
:100840003A42402078009DA0A07D3D4242423D3D7D
:100850004040403D3C24FF2424487E4943662B2FE2
:10086000FC2F2BFF0929F620C0887E090320545451
:1008700079410000447D413048484A3238404022A6
:100880007A007A0A0A727D0D19317D2629292F28CE
:10089000262929292630484D40203808080808080C
:1008A000080808382F10C8ACBA2F102834FA0000F6
:1008B0007B000008142A142222142A14085500551B
:1008C0000055AA55AA55AAFF55FF55FF000000FF85
:1008D00000101010FF00141414FF001010FF00FF90
:1008E0001010F010F0141414FC001414F700FF00A2
:1008F00000FF00FF1414F404FC141417101F101050
:100900001F101F1414141F00101010F0000000001E
:100910001F101010101F10101010F010000000FF1A
:10092000101010101010101010FF10000000FF1415
:100930000000FF00FF00001F10170000FC04F4146B
:10094000141710171414F404F40000FF00F7141423
:100950001414141414F700F7141414171410101F9F
:10096000101F141414F4141010F010F000001F10D5
:100970001F0000001F14000000FC140000F010F025
:100980001010FF10FF141414FF141010101F00009B
:100990000000F010FFFFFFFFFFF0F0F0F0F0FFFFAE
:1009A000FF0000000000FFFF0F0F0F0F0F3844443F
:1009B0003844FC4A4A4A347E02020606027E027E1F
:1009C0000263554941633844443C04407E201E2064
:1009D00006027E020299A5E7A5991C2A492A1C4C09
:1009E0007201724C304A4D4D303048784830BC620C
:1009F0005A463D3E494949007E0101017E2A2A2A84
:100A00002A2A44445F444440514A444040444A51A5
:100A1000400000FF0103E080FF000008086B6B0846
:100A20003612362436060F090F060000181800008B
:100A3000001010003040FF0101001F01011E0019CD
:100A40001D1712003C3C3C3C000000000000000070
:100A500000250028002B0000000000240027002AA9
:100A60000004040404040404040202020202020357
:100A70000303030303010204081020408001020461
:100A800008102001020408102000DF1811241FBEE6
:100A9000CFEFD8E0DEBFCDBF23E0ACE6B1E001C0D0
:100AA0001D92A932B207E1F711E0A0E0B1E0E8EF52
:100AB000F6E302C005900D92AC36B107D9F715E008
:100AC000C6E4D5E004C02197FE010E947119C53427
:100AD000D107C9F70E9451180C947A1B0C9400009E
:100AE0000895E091960180919501E81730F4F0E0C7
:100AF000EB58FE4F808190E008958FEF9FEF0895AF
:100B00009091960180919501981750F4E92FF0E0AB
:100B1000EB58FE4F208130E09F5F9093960102C01A
:100B20002FEF3FEFC90108958091950190E020914A
:100B30009601821B91090895FC0177FDB9C080855B
:100B40009185681779070CF0B3C057FDB1C0828555
:100B50009385481759070CF008958589823079F4F8
:100B600084819581DC01A61BB70BBD016150710921
:100B700086819781DC01A41BB50BAD010EC08330CB
:100B800009F084C064277527CA018627972768273C
:100B9000792746815781481B590B41505109213013
:100BA000310531F048F12230310509F44AC0089589
:100BB000CA0157FD07969C01A3E035952795AA9594
:100BC000E1F7A481B5812A9FC0012B9F900D3A9F28
:100BD000900D1124680F791F068CF78DE02DE60F1C
:100BE000F71F4770552781E090E001C0880F4A95B4
:100BF000EAF79081892B48C0CA0157FD07969C01EE
:100C000093E0359527959A95E1F7A481B5812A9FC0
:100C1000C0012B9F900D3A9F900D1124680F791FF2
:100C2000068CF78DE02DE60FF71F4770552781E002
:100C300090E001C0880F4A95EAF78095908189235A
:100C400023C0CA0157FD07969C0183E0359527957F
:100C50008A95E1F7A481B5812A9FC0012B9F900D51
:100C60003A9F900D1124680F791F068CF78DE02DA7
:100C7000E60FF71F4770552781E090E001C0880F0D
:100C80004A95EAF79081892780830895813009F099
:100C900086CF6427752746275727642775278481C1
:100CA0009581DC01A61BB70BBD016150710977CF9F
:100CB00008950895FC016370658B84819581268178
:100CC0003781613039F0633029F09187808733872D
:100CD00022870895318720879387828708956F92AE
:100CE0007F928F929F92AF92BF92CF92DF92EF92BC
:100CF000FF920F931F93CF93DF93EC014B015A01A7
:100D000069013801E881F9810284F385E02D0995B4
:100D1000E881F9810288F389E02D87019601A50118
:100D2000B401CE010995A501460D571D4150510949
:100D3000E881F9810288F389E02D9601B401CE01A2
:100D40000995E881F9810088F189E02D9301A501D9
:100D5000B401CE010995C80CD91CB60161507109C6
:100D6000E881F9810088F189E02D9301A501CE0188
:100D70000995E881F9810688F789E02DCE01DF9198
:100D8000CF911F910F91FF90EF90DF90CF90BF9088
:100D9000AF909F908F907F906F9009948F929F92C9
:100DA000AF92BF92CF92DF92EF92FF920F931F9379
:100DB000CF93DF934C016B015A01E901DC01ED9106
:100DC000FC916217730781F40417150724F48B2D27
:100DD0005801042F182F0A191B0998012F5F3F4F44
:100DE000048CF58DE02D12C04017510709F5261728
:100DF000370724F48D2D6901C62FD82F9E012C1999
:100E00003D092F5F3F4F068CF78DE02D8701A5012F
:100E1000B601C4010995DF91CF911F910F91FF9009
:100E2000EF90DF90CF90BF90AF909F908F900895FC
:100E30000284F385E02D0995D401ED91FC9104889D
:100E4000F589E02D9E01A501B601C4010995D401E3
:100E5000ED91FC910688F789E02DC401DF91CF91D7
:100E60001F910F91FF90EF90DF90CF90BF90AF90C8
:100E70009F908F900994EF92FF920F931F93DC0144
:100E80001A960D911C911B9718962D913C911997CC
:100E9000ED91FC9100A0F1A1E02D7B0140E050E03C
:100EA00060E070E009951F910F91FF90EF90089519
:100EB0004F925F926F927F928F929F92AF92BF926A
:100EC000CF92DF92EF92FF920F931F93CF93DF9316
:100ED0006C012B015A0139014801DC01ED91FC91B3
:100EE0000284F385E02D0995E201640C751CD6019E
:100EF000ED91FC91C615D7055CF40088F189E02DD1
:100F000087019401A501BE01C60109952196EFCF85
:100F10000688F789E02DC601DF91CF911F910F91CF
:100F2000FF90EF90DF90CF90BF90AF909F908F9009
:100F30007F906F905F904F9009948F929F92AF92A5
:100F4000BF92CF92DF92EF92FF920F931F93CF93B6
:100F5000DF93EC015B014A016901E881F9810284B8
:100F6000F385E02D099595012C0D3D1D215031098A
:100F7000E881F9810488F589E02D78018401A401D4
:100F8000B501CE010995E881F9810688F789E02D40
:100F9000CE01DF91CF911F910F91FF90EF90DF90E5
:100FA000CF90BF90AF909F908F9009948F929F9217
:100FB000AF92BF92CF92DF92EF92FF920F931F9367
:100FC000CF93DF93EC015B014A0169017801E8816D
:100FD000F9810284F385E02D0995C80CD91C86019E
:100FE00001501109E881F9810488F589E02D950106
:100FF000A401B501CE010995E881F9810688F78938
:10100000E02DCE01DF91CF911F910F91FF90EF90D6
:10101000DF90CF90BF90AF909F908F900994EF9208
:10102000FF920F931F93DC01ED91FC9100A0F1A1C1
:10103000E02D09951F910F91FF90EF9008950F9368
:101040001F93DC01ED91FC91068CF78DE02D099545
:101050001F910F9108950F931F93DC01ED91FC9167
:10106000048CF58DE02D09951F910F910895DC01F9
:10107000ED91FC910084F185E02D09942F923F922F
:101080004F925F926F927F928F929F92AF92BF9298
:10109000CF92DF92EF92FF920F931F93CF93DF9344
:1010A00000D000D000D0CDB7DEB72C017E836D8399
:1010B0006A015901C801FC82EB824801841A950A31
:1010C00097FE03C091948194910835012D813E8152
:1010D000621A730A77FE03C07194619471086814F0
:1010E00079045CF43A2D2B2D5C01832F922F3D81E6
:1010F0002E81DE82CD82C32ED22EAD81BE81AA1674
:10110000BB065CF43C2D2D2D6C01832F922F3D816D
:101110002E81BE82AD82A32EB22E85012D813E810D
:10112000021B130B1C012C183D0837FE03C0319421
:1011300021943108780117FF03C03FEFE31AF30A47
:10114000F594E794C816D9062CF08FEF9FEF9A8399
:10115000898304C0A1E0B0E0BA83A9832D813E81D8
:10116000A216B30624F1D201ED91FC910484F58519
:10117000E02D2B813C816814790424F44D815E813B
:10118000B60103C0A6016D817E81C2010995E218F6
:10119000F308F7FE06C029813A81C20ED31EE00E85
:1011A000F11E8D819E8101969E838D83D7CF2696D9
:1011B0000FB6F894DEBF0FBECDBFDF91CF911F9168
:1011C0000F91FF90EF90DF90CF90BF90AF909F90E6
:1011D0008F907F906F905F904F903F902F900895E9
:1011E000089580E090E00895CF92DF92EF92FF9211
:1011F0000F931F93CF93DF937C01CB018A01209142
:101200001802222389F0EB016B01C40ED51ECC1508
:10121000DD0569F06991D701ED91FC910190F081B4
:10122000E02DC7010995F3CF642F0E94CB13C801AD
:10123000DF91CF911F910F91FF90EF90DF90CF90B2
:101240000895CF93DF931F92CDB7DEB769832091C6
:1012500018022223D1F020913B02203240F021E0FD
:1012600030E0FC013383228380E090E015C0809160
:101270001902E82FF0E0E65EFD4F998190838F5FC1
:101280008093190280933B0205C061E0CE01019674
:101290000E94CB1381E090E00F90DF91CF910895F1
:1012A0000F931F93CF93DF93DC015596EC915597E5
:1012B000E23071F0E330E9F0E13079F5FB011496AA
:1012C0000D90BC91A02DA41BB50BA21BB30B18C095
:1012D000EC01EC81FD81E61BF70BBF016150710948
:1012E000EE81FF81DF01A41BB50BAD01421B530B47
:1012F00014C0DA01EC01EE81FF81E61BF70B319798
:10130000F7FD0DC0EC014E815F81E417F5073CF459
:10131000AF01BD010E94351702C00E949C17DF91EA
:10132000CF911F910F9108950F931F93DC01559654
:10133000EC915597E23061F0E33009F1E13081F54D
:101340001496ED91FC911597E41BF50B319723C092
:10135000DC011496ED91FC911597DF01A61BB70BEC
:10136000BD01DC011696ED91FC911797DF01A41BDE
:10137000B50BAD0141505109621B730B11C0FA014D
:10138000DC0116964D915C911797DA01A61BB70BFD
:10139000BD01621B730BAB01BF010E949C170CC007
:1013A00057FD0AC0DC011696ED91FC9117974E1778
:1013B0005F0714F40E9435171F910F910895AF92A3
:1013C000BF92CF92EF92FF920F931F93CF93DF9331
:1013D000EC01262F888D998D009709F040C06A3066
:1013E00059F41D861C862C898E859F8538E0239FA5
:1013F000800D911D112441C06D3009F4AAC08E8961
:101400008823C1F03C898C859D8546E0349F800D02
:10141000911D112448855985481759075CF41D868C
:101420001C868E859F8548E0349F800D911D112478
:101430009F878E87EA88FB88088919894E855F8592
:101440006C857D85CC88CE010E941B152C898C85EE
:101450009D8536E0239F800D911D112442C06A3086
:1014600079F41D861C862C89FC013696E4918E85C4
:101470009F852E9F800D911D11249F878E8769C0A7
:101480006D3009F466C0FC0134963491631708F49A
:1014900060C03196E491E61708F45BC0FC01329617
:1014A00065917491422F50E0431B510937E0349FFE
:1014B0005001359FB00C1124A60EB71EF5013296CF
:1014C00034913196E491332311F0E1110DC0F5010F
:1014D0003496E4912C898C859D85E29F800D911D29
:1014E00011249D878C8735C0F501359644915E891E
:1014F000552311F16C89E32FF0E0E40FF11D47FD56
:10150000FA956E9FD0016F9FB00D11244C855D85BB
:101510004A0F5B1FE885F985E417F5076CF41D8613
:101520001C86FC013696E4918E859F856E9F800D0A
:10153000911D11249F878E87EA88FB880889198965
:101540004E855F856C857D85CC88CE010E941B15FC
:10155000BECF81E090E0DF91CF911F910F91FF907E
:10156000EF90CF90BF90AF900895FC018681978156
:101570009C01295F3F4F37FF02C0295F3F4F83E047
:10158000359527958A95E1F784819581289FA0015B
:10159000299F500D389F500D112460E070E0868D1A
:1015A000978D0C946C1B08958EBD00000DB407FE42
:1015B000FDCF8EB50895DF92EF92FF920F931F93A8
:1015C000CF93DF93EC01D62E072F142F8C8D9D8D9A
:1015D000009709F44DC028A131E030931802209300
:1015E0003A021092190210923B02DC01ED91FC913B
:1015F0000190F081E02D60E00995ED2CF02E01E0E6
:10160000DD24D3948C8D9D8D112349F10032B0F0EF
:101610000E94BF1488A1D092180280933A021092BF
:10162000190210923B028C8D9D8DDC01ED91FC9195
:101630000190F081E02D60E0099501E08C8D9D8D99
:10164000F7016491DC01ED91FC910190F081E02DB6
:1016500009950F5F1150F70131967F01D3CFDF91CC
:10166000CF911F910F91FF90EF90DF900C94BF14DA
:10167000ECA5FDA590818AA9809589238083E62E1B
:10168000F72E112379F1F70184912A8D3B8D232BBD
:1016900039F00E94D40A1150C70101967C01F1CFA4
:1016A00028E030E040E8E8A5F9A598A9582F542390
:1016B00019F05081952B03C050819095952390830C
:1016C000EAA5FBA5508199A9952B9083EAA5FBA5D6
:1016D000508199A990959523908346952150310981
:1016E00011F7D9CFDF91CF911F910F91FF90EF901C
:1016F000DF9008951F93CF93DF93FC01848D958D28
:10170000009729F1162FEF0120A131E03093180244
:1017100020933A021092190210923B02DC01ED91E3
:10172000FC910190F081E02D60E009958C8D9D8DFC
:10173000DC01ED91FC910190F081E02D612F099584
:101740008C8D9D8DDF91CF911F910C94BF14A4A51A
:10175000B5A59C9182A9809589238C93828D938DC8
:10176000892B31F0862FDF91CF911F910C94D40AF1
:1017700028E030E080E8A0A5B1A590A9462F482335
:1017800019F04C91942B03C04C91909594239C9309
:10179000A2A5B3A54C9191A9942B9C93A2A5B3A506
:1017A0004C9191A9909594239C9386952150310951
:1017B00011F7DF91CF911F9108958CBD9DBD0895C4
:1017C0001F93CF93DF93EC01162F8C8D9D8D892B6A
:1017D000B1F02EA93FA948AD59AD60E074E284EFA5
:1017E00090E00E944F19DA01C9014097A109B1099F
:1017F000B695A795979587958093B8000FC08A8D69
:101800009B8D892B21F08CA99DA90E94DD0BEEA553
:10181000FFA590818BA9809589238083111102C037
:1018200066EA01C067EACE010E947A0B8C8D9D8D1D
:10183000892BB1F02AAD3BAD4CAD5DAD60E074E2FB
:1018400084EF90E00E944F19DA01C9014097A10985
:10185000B109B695A795979587958093B80006C06E
:10186000EEA5FFA590818BA9892B8083DF91CF9175
:101870001F9108950F931F93CF9380916D01811154
:10188000C4C210923F0210923E0220E830E0309332
:1018900041022093400280E290E0909343028093C3
:1018A0004202309345022093440290934702809372
:1018B0004602109251021092490210924802109270
:1018C0004B0210924A0281E0809350022FEF3FEFCB
:1018D00030934F0220934E0230934D0220934C02DE
:1018E00080935202109253021092550210925402A9
:1018F0008AE091E090933D0280933C02109257025F
:101900001092560289E193E0909359028093580215
:1019100010925B0210925A028FEF80935F028093C5
:101920006002809361028093620284E0809363028C
:1019300080E5809370021092710280E89AE1A6E03F
:10194000B0E08093720290937302A0937402B093FC
:10195000750280EA96E8A1E0B0E080937602909369
:101960007702A0937802B093790210927B021092D2
:101970007A0280915A0290915B02892B51F480E0A7
:1019800092E00E94771990935B0280935A02892B10
:1019900081F38CE392E00E94B50A209142023091DB
:1019A0004302809140029091410221323105A4F01E
:1019B000B9016054710977FF02C06F5F7F4F759561
:1019C00067958255910997FD019600E410E022E5A4
:1019D00030E044E652E013C0B9016052710977FF6C
:1019E00002C06F5F7F4F759567958357910997FD8B
:1019F000019600E210E023E730E044E850E09595DE
:101A000087950E941D1482E080935D0280915802A8
:101A100090915902892BB9F18CE380935C0210926A
:101A20009601109295011092190210923B021092A9
:101A3000170281E0809316021092F10161E082E1C9
:101A40000E94CC1161E083E10E94CC118091B90029
:101A50008E7F8093B9008091B9008D7F8093B9000B
:101A600088E48093B80085E48093BC0080E791E12E
:101A7000909398018093970181E791E190939A0167
:101A800080939901B6C0809161020E94A014809158
:101A900062020E94A01480916102082E000C990B32
:101AA000FC01EF59F54FE491F0E0EE0FFF1FE35B0F
:101AB000F54F259134913093690220936802FC011F
:101AC000EB58F54FE491E0936E0280916202082E8C
:101AD000000C990BFC01EF59F54FE491F0E0EE0F8B
:101AE000FF1FE35BF54FA591B491B0936B02A093F8
:101AF0006A02FC01EB58F54FE491E0936F028C9180
:101B0000E82BEC938091560290915702892B89F132
:101B1000CFB7F89480916C01811124C0EBE6FAE014
:101B20008491EFE7FAE09491E82FF0E0EE0FFF1FC9
:101B3000E95AF54FA591B491EC91E92321F461E0C4
:101B40008AE00E94CC118AE00E94A0148CB58061CA
:101B50008CBD8CB580648CBD8DE00E94A0148BE0A0
:101B60000E94A01480916C018F5F80936C01CFBFA5
:101B700040C080915F020E94A014809160020E9488
:101B8000A01480915F02082E000C990BFC01EF5904
:101B9000F54FE491F0E0EE0FFF1FE35BF54F259169
:101BA00034913093650220936402FC01EB58F54FA9
:101BB000E491E0936C0280916002082E000C990B76
:101BC000FC01EF59F54FE491F0E0EE0FFF1FE35BEE
:101BD000F54FA591B491B0936702A0936602FC0102
:101BE000EB58F54FE491E0936D028C91E095E8237A
:101BF000EC938091630287FD1DC00E94A01461E0F8
:101C0000809163020E94CC1161E070E080E090E07E
:101C10000E94191260E0809163020E94CC116AE078
:101C200070E080E090E00E94191261E08091630210
:101C30000E94CC118091580290915902892BD1F0C9
:101C4000209172023091730240917402509175029A
:101C500060E074E284EF90E00E944F19DA01C9015C
:101C60004097A109B109B695A79597958795809357
:101C7000B80016C08091560290915702892B31F01E
:101C800080917002909171020E94DD0BE0916A02D6
:101C9000F0916B02908180916F02809589238083FF
:101CA00044E060E870E08CE392E00E94DB0A60911F
:101CB000420261508CE392E00E947A0B44E06CE7B0
:101CC00070E08CE392E00E94DB0A80915D0281303B
:101CD00011F460E101C064E18CE392E00E947A0BB0
:101CE00044E068E770E08CE392E00E94DB0A8091B8
:101CF0004002909141028038910509F5809142029D
:101D0000909143028032910541F444E064E770E031
:101D10008CE392E00E94DB0A2DC08034910551F5DE
:101D200043E061E770E08CE392E00E94DB0A80917F
:101D30005D02813011F46FE919C06FEC17C0803675
:101D40009105C1F48091420290914302409791F431
:101D500043E06EE670E08CE392E00E94DB0A809143
:101D60005D02813011F460E101C06FEA8CE392E022
:101D70000E947A0B69ED8CE392E00E947A0B8091CD
:101D80005D02813011F462E201C061EF8CE392E008
:101D90000E947A0B46E068E670E08CE392E00E94D5
:101DA000DB0A8091580290915902892BD1F0209141
:101DB000760230917702409178025091790260E08A
:101DC00074E284EF90E00E944F19DA01C901409754
:101DD000A109B109B695A795979587958093B80005
:101DE00011C0E0916A02F0916B02908180916F02C4
:101DF000892B80838091560290915702892B11F094
:101E00000E94D30A81E080936D018CE392E0CF9130
:101E10001F910F910895CF92DF92EF92FF920F934F
:101E20001F93CF93DF930E943A0C0E94B50A0E9441
:101E30003A0CDC01DE968D919C91DF97892BC9F1DC
:101E40000E943A0C21E030E0FC01338B228B318B75
:101E5000208B0E943A0C21E0DC0154962C930E94C6
:101E60003A0CFC0115861486178616860E943A0CD9
:101E700064E070E080E090E00E94981AEC01009726
:101E800041F0188268E671E00E94731B03E010E0E5
:101E900002C000E010E00E943A0CDC01ED91FC91E0
:101EA0000280F381E02DA801BE010995CE010E94B8
:101EB0000F1A0E943A0CEC018C8D9D8D892BB1F08C
:101EC0002EA93FA948AD59AD60E074E284EF90E0DF
:101ED0000E944F19DA01C9014097A109B109B695CD
:101EE000A795979587958093B8000FC08A8D9B8D95
:101EF000892B21F08CA99DA90E94DD0BEEA5FFA5E1
:101F000090818BA980958923808345E064E275E008
:101F1000CE010E94DB0A6C816150CE010E947A0BD7
:101F20002E813F81C901079697FD079633E095956D
:101F300087953A95E1F72C813D81829F7001839FBF
:101F4000F00C929FF00C11240E8D1F8D8C8D9D8DA9
:101F5000E00EF11E009709F446C028A131E030934D
:101F6000180220933A021092190210923B02DC01EF
:101F7000ED91FC910190F081E02D60E40995DD2464
:101F8000D394CC24C3948C8D9D8DE016F10641F141
:101F9000BFE1BD15B8F40E94BF1488A1C092180219
:101FA00080933A021092190210923B028C8D9D8D03
:101FB000DC01ED91FC910190F081E02D60E4099548
:101FC000DD24D3948C8D9D8DF80161918F01DC010E
:101FD000ED91FC910190F081E02D0995D394D3CF40
:101FE0000E94BF1435C0ECA5FDA590818AA9892B5C
:101FF0008083E016F10661F1F80181918F012A8D4D
:102000003B8D232B19F00E94D40AF3CF28E030E057
:1020100040E8E8A5F9A598A9542F582319F0508154
:10202000952B03C05081909595239083EAA5FBA53D
:10203000508199A9952B9083EAA5FBA5508199A978
:1020400090959523908346952150310911F7D1CF72
:102050008C8D9D8D892BB1F02AAD3BAD4CAD5DAD26
:1020600060E074E284EF90E00E944F19DA01C90148
:102070004097A109B109B695A79597958795809343
:10208000B80014C0EEA5FFA590818BA9892B808391
:102090008A8D9B8D892B51F0DF91CF911F910F91EC
:1020A000FF90EF90DF90CF900C94D30ADF91CF9107
:1020B0001F910F91FF90EF90DF90CF900895FC015A
:1020C000538D448D252F30E0842F90E0821B930B9D
:1020D000541710F0CF96089501970895FC01918D43
:1020E000828D981761F0828DDF01A80FB11D5D967A
:1020F0008C91928D9F5F9F73928F90E008958FEFE8
:102100009FEF0895FC01918D828D981731F0828D9B
:10211000E80FF11D858D90E008958FEF9FEF0895F2
:10212000FC01918D228D892F90E0805C9F4F821B56
:1021300091098F73992708958CE792E00E9490107F
:1021400021E0892B09F420E0822F0895FC01848D81
:10215000DF01A80FB11DA35ABF4F2C91848D90E0D1
:1021600001968F739927848FA689B7892C93A089AC
:10217000B1898C91837080648C93938D848D981336
:1021800006C00288F389E02D80818F7D80830895C9
:10219000EF92FF920F931F93CF93DF93EC0181E0B7
:1021A000888F9B8D8C8D981305C0E889F989808173
:1021B00085FD26C0F62E0B8D10E00F5F1F4F0F73AD
:1021C0001127E02E8C8DE8120CC00FB607FCFACF59
:1021D000E889F989808185FFF5CFCE010E94A6109C
:1021E000F1CF8B8DFE01E80FF11DE35AFF4FF08216
:1021F0009FB7F8940B8FEA89FB89808180620AC0BF
:102200009FB7F894EE89FF896083E889F989808116
:102210008370806480839FBF81E090E0DF91CF91E5
:102220001F910F91FF90EF900895CF93DF93EC01F2
:10223000888D8823C9F0EA89FB89808185FD05C0E6
:10224000A889B9898C9186FD0FC00FB607FCF5CF20
:10225000808185FFF2CFA889B9898C9185FFEDCF68
:10226000CE010E94A610E7CFDF91CF91089580E0C4
:1022700090E0892B29F00E949C1081110C940000A1
:1022800008953FB7F8948091E3019091E401A09103
:10229000E501B091E60126B5A89B05C02F3F19F0D6
:1022A0000196A11DB11D3FBFBA2FA92F982F8827D6
:1022B000820F911DA11DB11DBC01CD0142E0660F31
:1022C000771F881F991F4A95D1F7089585ED809350
:1022D000BC008091BC0084FDFCCF109217020895D1
:1022E000089508950E945E1B1F920F920FB60F92E1
:1022F00011242F933F934F935F936F937F938F930B
:102300009F93AF93BF93EF93FF938CE792E00E946C
:10231000A610FF91EF91BF91AF919F918F917F9107
:102320006F915F914F913F912F910F900FBE0F9042
:102330001F9018951F920F920FB60F9211242F9392
:102340008F939F93EF93FF93E0918C02F0918D0216
:102350008081E0919202F091930282FD12C09081FF
:10236000809195028F5F8F7320919602821751F0B2
:10237000E0919502F0E0E458FD4F958F809395022F
:1023800001C08081FF91EF919F918F912F910F90CC
:102390000FBE0F901F90189590E0FC01E75DFA4F7B
:1023A0002491FC01EB58F54F3491FC01EF59F54FA6
:1023B000E491EE2309F43CC0222339F1233091F05B
:1023C00038F42130A9F0223001F584B58F7D12C098
:1023D000273091F02830A1F02430B9F480918000AA
:1023E0008F7D03C0809180008F77809380000DC027
:1023F00084B58F7784BD09C08091B0008F7703C00A
:102400008091B0008F7D8093B000F0E0EE0FFF1F51
:10241000E35BF54FA591B4919FB7F894611104C0A7
:102420008C913095382302C0EC913E2B3C939FBF9A
:1024300008958F929F92AF92BF92CF92DF92EF92C8
:10244000FF926B017C010E9441114B015C01C114A0
:10245000D104E104F104F1F00E944111DC01CB014F
:1024600088199909AA09BB09883E9340A105B105BD
:1024700070F321E0C21AD108E108F10888EE880E55
:1024800083E0981EA11CB11CC114D104E104F10425
:1024900019F7DDCFFF90EF90DF90CF90BF90AF9016
:1024A0009F908F9008951F920F920FB60F92112454
:1024B0002F933F938F939F93AF93BF938091DF01AF
:1024C0009091E001A091E101B091E2013091DE0133
:1024D00023E0230F2D3720F40196A11DB11D05C067
:1024E00026E8230F0296A11DB11D2093DE018093E3
:1024F000DF019093E001A093E101B093E2018091AC
:10250000E3019091E401A091E501B091E60101960B
:10251000A11DB11D8093E3019093E401A093E50117
:10252000B093E601BF91AF919F918F913F912F9111
:102530000F900FBE0F901F9018951F920F920FB61D
:102540000F9211242F933F934F935F936F937F9339
:102550008F939F93AF93BF93EF93FF938091B900B5
:10256000887F803609F49CC068F5883209F45BC026
:1025700090F4803109F454C038F4882309F4F6C08B
:10258000883009F44DC0F6C0883109F44CC080325F
:1025900009F45DC0EFC0803409F468C048F48033AA
:1025A00009F455C0883309F0E5C080931502D8C0FE
:1025B000803509F44FC0883509F45DC0883409F0CE
:1025C000D9C0D6C0883909F4C7C0A8F4883709F43F
:1025D00067C038F4883609F463C0803709F460C0F6
:1025E000C9C0883809F4B8C0803909F45FC08038A0
:1025F00009F0C0C05BC0803B09F486C038F4803A63
:1026000009F466C0883A09F47FC0B4C0803C09F47C
:10261000A7C0883C09F4A4C0883B09F48AC0AAC0BA
:102620008091F20110C090911402809113029817CA
:1026300070F5E091140281E08E0F80931402F0E0B7
:10264000ED50FE4F80818093BB0085EC86C0809367
:1026500015028EC0E091140281E08E0F8093140267
:102660008091BB00F0E0ED50FE4F8083909114020A
:10267000809113026EC0E091140281E08E0F80936E
:1026800014028091BB00F0E0ED50FE4F80838091FA
:10269000160281116DC081E08093F10184EA61C06E
:1026A00083E0809317021092DD01CFCF8091DD018E
:1026B000803208F051C0E091DD0181E08E0F8093FF
:1026C000DD018091BB00F0E0E354FE4F8083BDCF7D
:1026D00085EC8093BC00109217028091DD0180325E
:1026E00030F4E091DD01F0E0E354FE4F10826091A0
:1026F000DD0170E0E0919901F0919A018DEB91E09C
:1027000009951092DD0136C084E080931702109283
:10271000BC011092BB01E0919701F09198010995DD
:102720008091BB01811105C081E08093BB011092B3
:102730009B01E091BC0181E08E0F8093BC01F0E031
:10274000E556FE4F80818093BB009091BC01809143
:10275000BB01981708F479CF85E88093BC000AC0C4
:1027600085EC8093BC001092170204C010921502F1
:102770000E946611FF91EF91BF91AF919F918F9150
:102780007F916F915F914F913F912F910F900FBE6D
:102790000F901F9018954091BB01262F30E0240F19
:1027A000311D21323105DCF4209117022430C9F4A7
:1027B000FC0180E090E0861758F43091BB01219134
:1027C000DC01A556BE4FA30FB11D2C930196F3CF8C
:1027D0008091BB01680F6093BB0180E0089581E0A8
:1027E000089582E00895CF92DF92EF92FF920F93C7
:1027F0001F93CF93DF936C017A018B01C0E0D0E08F
:10280000CE15DF0581F0D8016D918D01D601ED91D6
:10281000FC910190F081E02DC6010995892B11F002
:102820002196EECF7E01C701DF91CF911F910F91CD
:10283000FF90EF90DF90CF9008953F924F925F927C
:102840006F927F928F929F92AF92BF92CF92DF92C0
:10285000EF92FF920F931F93CF93DF9300D000D09E
:1028600000D0CDB7DEB72C013B014A015901C901A7
:10287000079697FD07969C0193E0359527959A95C5
:10288000E1F73C832B83C12CD12CE12CF12C312C92
:10289000C3018E0D9F1D9A838983E016F106C4F54E
:1028A0001E821D822D813E812A153B054CF5C901F2
:1028B00087709927892B11F0330C0EC0ED81FE81B2
:1028C000F7FD379683E0F595E7958A95E1F7EC0DEE
:1028D000FD1DE80DF91D349037FE0CC021E030E0FD
:1028E00049815A816D817E81640D751D8CE392E072
:1028F0000E9437088D819E8101969E838D83D2CF61
:102900009FEFE91AF90A2B813C81C20ED31EC0CF7A
:1029100026960FB6F894DEBF0FBECDBFDF91CF91E4
:102920001F910F91FF90EF90DF90CF90BF90AF90ED
:102930009F908F907F906F905F904F903F90089501
:1029400090E0FC01EB58F54F2491FC01EF59F54F55
:102950008491882399F090E0880F991FFC01E95A2F
:10296000F54FA591B491FC01E35BF54F85919491EE
:102970008FB7F894EC91E22BEC938FBF08953091D0
:102980003B02313208F04BC0809117028111FCCF1D
:1029900090913A0222E02093170221E02093160240
:1029A0002FEF209315021092140230931302EAE1E4
:1029B000F2E0A3EFB1E020E0321721F041914D9316
:1029C0002F5FFACF1092F2012091F201990F922B12
:1029D0009093F2019091F101913061F41092F10124
:1029E0009091F2019093BB009091BC0093FDF8CFC1
:1029F00095EC01C095EE9093BC0090911702923037
:102A0000E1F3909115029F3F79F080911502803299
:102A100041F080911502803331F084E005C081E0FF
:102A200003C082E001C083E01092190210923B02C1
:102A30001092180208952F923F924F925F926F92D8
:102A40007F928F929F92AF92BF92CF92DF92EF923E
:102A5000FF920F931F93CF93DF93CDB7DEB76B97A2
:102A60000FB6F894DEBF0FBECDBF9B8F8A8F5B0180
:102A70001A01D22E1F830E833701C982DC015896BA
:102A80002D913C9159972115310509F0E6C0189612
:102A90008D919C911997681779070CF0CDC11A9602
:102AA0008D919C911B97481759070CF0C5C18C2C30
:102AB000912CFB0126E0C29EE00DF11D1124FB8745
:102AC000EA871E161F060CF0B7C1A40183E0440F6D
:102AD000551F8A95E1F75D874C87CA01820D931DCA
:102AE000181619060CF0A8C157968C91811104C0D4
:102AF0005FEA5D1508F4D394AA8DBB8DED91FC912E
:102B000011970284F385E02DCD010995B5E0DB9E98
:102B1000C0011124F5013596FF87EE87BB82AA829A
:102B200025019C012A193B09398B288BA101485F9B
:102B30005F4F5B8B4A8BE889F989E40DF51DE35BF8
:102B4000FA4F5491588761013D822C82888580FF1D
:102B500013C0AA8DBB8DED91FC91B981B13031F4D8
:102B60000484F585E02D2E813F8116C00684F7850B
:102B7000E02DEE80FF801AC0EE81FF81E615F7059B
:102B8000F1F0AA8DBB8DED91FC91B981B13051F47A
:102B90000484F585E02D9301A601B2018A8D9B8DF9
:102BA00009950DC00684F785E02D73018401940119
:102BB0004C815D816A817B818A8D9B8D0995E88539
:102BC000E695E887FFEFCF1ADF0A2C813D81280DBB
:102BD000391D3D832C834A895B89C416D50609F0CB
:102BE000B5CF5FEF451A550A8A819B81880D991DE3
:102BF0009B838A83AE85BF854A165B0609F09BCF0F
:102C0000EE81FF81E615F70509F4F4C0EA8DFB8D2E
:102C1000A081B181F981F13079F4B5016B5F7F4F0B
:102C20005096ED91FC915197830128E030E0A1018D
:102C30008A8D9B8D0995DEC06A857B856819790927
:102C40001E96ED91FC911F9773010C851D859401D3
:102C5000A1018A8D9B8D0995CDC0F9013496E4912F
:102C6000DE1AF901329685919491B7E0DB9E800DD2
:102C7000911D1124F901259134913B8B2A8BFC0184
:102C8000259134912901FC013296C49031963491FA
:102C90003E87329614913196D4904981423058F053
:102CA000612E012E000C77088D2D0D2C000C990B38
:102CB0009987888704C019861886612C712CAA8D83
:102CC000BB8DED91FC9111970284F385E02DCD0130
:102CD0000995B9818B2E912C689CC001699C900D3F
:102CE000789C900D1124FC01EA0DFB1DFD87EC87FB
:102CF0001A82712C612CE12F110FFF0B95012E0F01
:102D00003F1F3B872A87AC0CB11CA5014E0F5F1FEC
:102D10005F8B4E8BC1018D0D911DD7FC9A95998FBC
:102D2000888F9E85691608F065C0862D90E04885DD
:102D30005985480F591F489D9001499D300D589D58
:102D4000300D1124D101A20FB31FB98BA88BEC85D4
:102D5000FD85FD83EC83AA84BB84DA80FA85DF1AC3
:102D6000288D398D280F391F3D8B2C8B8D2D8A0D89
:102D70004E895F89A416B506C1F1877041F4C2017E
:102D80000196EA89FB89E40DF51D74902C0177FE0C
:102D900021C0AA8DBB8DED91FC91B981B13061F458
:102DA0000484F585E02D2E813F814C895D89B50134
:102DB0008A8D9B8D09950EC00684F785E02DEE80E7
:102DC000FF8084019401488959896C817D818A8DB5
:102DD0009B8D0995770CEFEFAE1ABE0A2C813D81D1
:102DE000280D391D3D832C83C1CF3A813C0D3A8398
:102DF000639497CFAA8DBB8DED91FC9111970688B6
:102E0000F789E02DCD016B960FB6F894DEBF0FBEAB
:102E1000CDBFDF91CF911F910F91FF90EF90DF9089
:102E2000CF90BF90AF909F908F907F906F905F906A
:102E30004F903F902F9009946B960FB6F894DEBF99
:102E40000FBECDBFDF91CF911F910F91FF90EF90FB
:102E5000DF90CF90BF90AF909F908F907F906F90BA
:102E60005F904F903F902F9008950F931F93CF93B3
:102E7000DF9377FF04C0260F371F60E070E0DC01AE
:102E80001496CD91DC911597FB01E20FF31FCE173D
:102E9000DF071CF49E01261B370B121613060CF0DD
:102EA00046C0FA0157FD3796DF01E3E0B595A795D7
:102EB000EA95E1F7AC9FF001AD9FF00DBC9FF00DDE
:102EC00011246E0F7F1FDC015E96ED91FC915F97E0
:102ED000E60FF71F4770552781E090E001C0880F8B
:102EE0004A95EAF7482F0130110539F078F00230A1
:102EF0001105E9F42E0F3F1F13C02E0F3F1FE217DD
:102F0000F307A9F08081842B8193F9CF80952E0F50
:102F10003F1FE217F30759F0908198239193F9CF5F
:102F2000E217F30721F0808184278193F9CFDF91A5
:102F3000CF911F910F910895EF92FF920F931F93DE
:102F4000CF93DF93EC0177FDA5C0EC80FD806E157B
:102F50007F050CF09FC057FF04C0240F351F40E0D1
:102F600050E08E819F81FA01E20FF31F8E179F07B9
:102F70001CF49C01241B350B121613060CF08AC09E
:102F8000922F842F8695869586958E9DD0018F9D54
:102F9000B00D11246A0F7B1FAE8DBF8DA60FB71F1A
:102FA0004770B1F188E0841B482F682F70E0FB0167
:102FB000EB5BFA4FE491281798F4621B71092FEF2D
:102FC00030E002C0359527956A95E2F7E22301309B
:102FD000110549F078F00230110509F05BC00EC010
:102FE0000130110519F48C91E82B0AC0013011054C
:102FF00008F049C0E0958C91E82302C08C91E82745
:10300000EC93941708F446C02C813D81A20FB31FA6
:10301000E92FE41BE830F8F00230110561F48E2F3F
:103020009C9190959C932C813D81A20FB31F885059
:103030008830B0F70FC081E00115110509F480E078
:1030400081959E2F8C932C813D81A20FB31F9850A8
:103050009830C0F7E770EE23E9F0F0E0E35CFA4F58
:10306000E4910130110539F048F00230110591F476
:103070008C91E82706C08C91E82B03C0E0958C91D9
:10308000E823EC9307C00230110509F4B7CFAE0D69
:10309000BF1DBECFDF91CF911F910F91FF90EF9099
:1030A0000895789484B5826084BD84B5816084BDC0
:1030B00085B5826085BD85B5816085BD80916E00D6
:1030C000816080936E001092810080918100826007
:1030D0008093810080918100816080938100809144
:1030E00080008160809380008091B1008460809333
:1030F000B1008091B00081608093B00080917A002F
:10310000846080937A0080917A00826080937A0054
:1031100080917A00816080937A0080917A00806843
:1031200080937A001092C100E0918C02F0918D02A0
:1031300082E08083E0918802F09189021082E09120
:103140008A02F0918B0280E1808310929402E091D8
:103150009002F091910286E08083E0918E02F091DE
:103160008F02808180618083E0918E02F0918F02D6
:10317000808188608083E0918E02F0918F0280814F
:1031800080688083E0918E02F0918F0280818F7D34
:103190008083C6E3D1E011E00E943A0C8091E901FE
:1031A000811106C0D093E801C093E7011093E901B3
:1031B00087EE91E00E940B0F0E943711EDCFECE7F4
:1031C000F2E01382128288EE93E0A0E0B0E0848304
:1031D0009583A683B7832CE331E03183208325ECEC
:1031E00030E03587248724EC30E03787268720ECD1
:1031F00030E0318B208B21EC30E0338B228B22ECC2
:1032000030E0358B248B26EC30E0378B268B118E0B
:10321000128E138E148EE9E1F3E0138212828483FE
:103220009583A683B7838AE591E09183808308958F
:103230002F923F924F925F926F927F928F929F92C6
:10324000AF92BF92CF92DF92EF92FF920F931F93B4
:10325000CF93DF93CDB7DEB7CA1BDB0B0FB6F89465
:10326000DEBF0FBECDBF09942A88398848885F84A5
:103270006E847D848C849B84AA84B984C884DF8016
:10328000EE80FD800C811B81AA81B981CE0FD11DFA
:103290000FB6F894DEBF0FBECDBFED010895A1E2D9
:1032A0001A2EAA1BBB1BFD010DC0AA1FBB1FEE1FC0
:1032B000FF1FA217B307E407F50720F0A21BB30B0B
:1032C000E40BF50B661F771F881F991F1A9469F787
:1032D00060957095809590959B01AC01BD01CF01E3
:1032E0000895EE0FFF1F0590F491E02D09940F93C0
:1032F0001F93CF93DF938230910510F482E090E02A
:10330000E0912703F091280320E030E0A0E0B0E056
:10331000309719F140815181028113814817590773
:10332000C8F08417950769F4109731F012960C9342
:10333000129713961C9327C000932703109328031A
:1033400022C02115310519F04217530718F49A01CC
:10335000BD01EF01DF01F801DBCF21153105F9F0E7
:10336000281B390B2430310580F48A819B8161153B
:10337000710521F0FB019383828304C0909328039D
:1033800080932703FE01329644C0FE01E20FF31F33
:103390008193919322503109398328833AC0209137
:1033A000250330912603232B41F420910201309113
:1033B00003013093260320932503209100013091CF
:1033C00001012115310541F42DB73EB740910401AB
:1033D00050910501241B350BE0912503F091260344
:1033E000E217F307A0F42E1B3F0B2817390778F0DC
:1033F000AC014E5F5F4F2417350748F04E0F5F1F3B
:1034000050932603409325038193919302C0E0E0FB
:10341000F0E0CF01DF91CF911F910F910895CF93ED
:10342000DF93009709F481C0FC0132971382128266
:10343000A0912703B0912803109781F42081318156
:10344000820F931F209125033091260328173907F7
:1034500051F5F0932603E093250367C0ED0120E0CA
:1034600030E0CE17DF0740F44A815B819E014115B1
:103470005105F1F0EA01F5CFD383C2834081518138
:10348000840F951FC817D90759F488819981840F33
:10349000951F0296918380838A819B819383828387
:1034A0002115310529F4F0932803E09327033DC04B
:1034B000E901FB83EA8349915991C40FD51FEC17A9
:1034C000FD0761F480819181840F951F0296E901C7
:1034D00099838883828193819B838A83E0E0F0E0F3
:1034E00012968D919C911397009719F0FD01DC01C4
:1034F000F7CF8D919C9111979D012E5F3F4F820FC9
:10350000931F20912503309126032817390769F46A
:10351000309729F4109228031092270302C01382D7
:103520001282B0932603A0932503DF91CF910895D3
:10353000A0E0B0E0EEE9FAE10C941C19EC01009770
:1035400021F4CB010E947719B4C0FC01E60FF71FEC
:103550009C0122503109E217F30708F4A8C0D901F1
:103560000D911C91119706171707B0F00530110542
:1035700008F49BC0C80104978617970708F495C004
:1035800002501109061B170B019311936D937C9345
:10359000CF010E940F1A89C05B01A01AB10A4C0129
:1035A000800E911EA0912703B0912803612C712CED
:1035B000E12CF12C109709F446C08D919C91119744
:1035C000A815B905B1F56C0142E0C40ED11CCA14AE
:1035D000DB0478F14C018A189B08640142E0C40EB8
:1035E000D11C1296BC9012971396AC91B5E0CB16F5
:1035F000D10440F0B282A38391828082D9016D937D
:103600007C9309C00E5F1F4F800F911FF9019183BA
:103610008083EB2DFA2FE114F10431F0D7011396DA
:10362000FC93EE93129741C0F0932803E093270395
:103630003CC06816790608F43C017D0112960D9095
:10364000BC91A02DB7CF80912503909126038816B9
:103650009906E1F466167706C8F48091000190910E
:103660000101009741F48DB79EB74091040150913C
:103670000501841B950BE817F907C8F4F09326039E
:10368000E0932503F901718360830FC0CB010E9491
:1036900077197C01009759F0A801BE010E94631BB5
:1036A000CE010E940F1AC70104C0CE0102C080E003
:1036B00090E0CDB7DEB7EEE00C94381981E090E0F1
:1036C000F8940C947A1BFB01DC0102C001900D926E
:1036D00041505040D8F70895DC0101C06D9341502E
:1036E0005040E0F70895FB01DC0101900D920020AD
:0836F000E1F70895F894FFCF03
:1036F80000002903800000000000DF09F313F1082F
:10370800F0089C05700537080F082B081F083E08AD
:1037180070055A06E00B5009940958073B07CE0676
:103728006F06000000000B0F00000000C810F31324
:103738005F10151190106E108210000000007211B9
:10374800F313F108F008000000002109F408F1085B
:0C375800700594058005710531323300C6
:00000001FF
